{
  "contractName": "MarketPlace",
  "abi": [
    {
      "inputs": [
        {
          "internalType": "address",
          "name": "_tigerContractAddress",
          "type": "address"
        }
      ],
      "payable": false,
      "stateMutability": "nonpayable",
      "type": "constructor"
    },
    {
      "anonymous": false,
      "inputs": [
        {
          "indexed": false,
          "internalType": "string",
          "name": "TxType",
          "type": "string"
        },
        {
          "indexed": false,
          "internalType": "address",
          "name": "owner",
          "type": "address"
        },
        {
          "indexed": false,
          "internalType": "uint256",
          "name": "tokenId",
          "type": "uint256"
        }
      ],
      "name": "MarketTransaction",
      "type": "event"
    },
    {
      "anonymous": false,
      "inputs": [
        {
          "indexed": true,
          "internalType": "address",
          "name": "previousOwner",
          "type": "address"
        },
        {
          "indexed": true,
          "internalType": "address",
          "name": "newOwner",
          "type": "address"
        }
      ],
      "name": "OwnershipTransferred",
      "type": "event"
    },
    {
      "constant": true,
      "inputs": [],
      "name": "isOwner",
      "outputs": [
        {
          "internalType": "bool",
          "name": "",
          "type": "bool"
        }
      ],
      "payable": false,
      "stateMutability": "view",
      "type": "function"
    },
    {
      "constant": true,
      "inputs": [],
      "name": "owner",
      "outputs": [
        {
          "internalType": "address",
          "name": "",
          "type": "address"
        }
      ],
      "payable": false,
      "stateMutability": "view",
      "type": "function"
    },
    {
      "constant": false,
      "inputs": [],
      "name": "renounceOwnership",
      "outputs": [],
      "payable": false,
      "stateMutability": "nonpayable",
      "type": "function"
    },
    {
      "constant": false,
      "inputs": [
        {
          "internalType": "address",
          "name": "newOwner",
          "type": "address"
        }
      ],
      "name": "transferOwnership",
      "outputs": [],
      "payable": false,
      "stateMutability": "nonpayable",
      "type": "function"
    },
    {
      "constant": false,
      "inputs": [
        {
          "internalType": "address",
          "name": "_tigerContractAddress",
          "type": "address"
        }
      ],
      "name": "setTigerCoreContract",
      "outputs": [],
      "payable": false,
      "stateMutability": "nonpayable",
      "type": "function"
    },
    {
      "constant": true,
      "inputs": [
        {
          "internalType": "uint256",
          "name": "_tokenId",
          "type": "uint256"
        }
      ],
      "name": "getOffer",
      "outputs": [
        {
          "internalType": "address",
          "name": "seller",
          "type": "address"
        },
        {
          "internalType": "uint256",
          "name": "price",
          "type": "uint256"
        },
        {
          "internalType": "uint256",
          "name": "index",
          "type": "uint256"
        },
        {
          "internalType": "uint256",
          "name": "tokenId",
          "type": "uint256"
        },
        {
          "internalType": "bool",
          "name": "active",
          "type": "bool"
        }
      ],
      "payable": false,
      "stateMutability": "view",
      "type": "function"
    },
    {
      "constant": true,
      "inputs": [],
      "name": "getAllTokenOnSale",
      "outputs": [
        {
          "internalType": "uint256[]",
          "name": "listOfOffers",
          "type": "uint256[]"
        }
      ],
      "payable": false,
      "stateMutability": "view",
      "type": "function"
    },
    {
      "constant": false,
      "inputs": [
        {
          "internalType": "uint256",
          "name": "_fee",
          "type": "uint256"
        }
      ],
      "name": "_payTransactionFee",
      "outputs": [],
      "payable": false,
      "stateMutability": "nonpayable",
      "type": "function"
    },
    {
      "constant": false,
      "inputs": [
        {
          "internalType": "uint256",
          "name": "_price",
          "type": "uint256"
        },
        {
          "internalType": "uint256",
          "name": "_tokenId",
          "type": "uint256"
        }
      ],
      "name": "setOffer",
      "outputs": [],
      "payable": false,
      "stateMutability": "nonpayable",
      "type": "function"
    },
    {
      "constant": false,
      "inputs": [
        {
          "internalType": "uint256",
          "name": "_tokenId",
          "type": "uint256"
        }
      ],
      "name": "removeOffer",
      "outputs": [],
      "payable": false,
      "stateMutability": "nonpayable",
      "type": "function"
    },
    {
      "constant": false,
      "inputs": [
        {
          "internalType": "uint256",
          "name": "_tokenId",
          "type": "uint256"
        },
        {
          "internalType": "uint256",
          "name": "_price",
          "type": "uint256"
        },
        {
          "internalType": "uint256",
          "name": "_transactionFee",
          "type": "uint256"
        }
      ],
      "name": "buyTiger",
      "outputs": [],
      "payable": true,
      "stateMutability": "payable",
      "type": "function"
    }
  ],
  "bytecode": "0x608060405234801561001057600080fd5b5060405161197f38038061197f8339818101604052602081101561003357600080fd5b8101908080519060200190929190505050336000806101000a81548173ffffffffffffffffffffffffffffffffffffffff021916908373ffffffffffffffffffffffffffffffffffffffff1602179055503373ffffffffffffffffffffffffffffffffffffffff16600073ffffffffffffffffffffffffffffffffffffffff167f8be0079c531659141344cd1fd0a4f28419497f9722a3daafe3b4186f6b6457e060405160405180910390a36100ee816100f460201b60201c565b5061020f565b6101026101b860201b60201c565b610174576040517f08c379a00000000000000000000000000000000000000000000000000000000081526004018080602001828103825260208152602001807f4f776e61626c653a2063616c6c6572206973206e6f7420746865206f776e657281525060200191505060405180910390fd5b80600160006101000a81548173ffffffffffffffffffffffffffffffffffffffff021916908373ffffffffffffffffffffffffffffffffffffffff16021790555050565b60008060009054906101000a900473ffffffffffffffffffffffffffffffffffffffff1673ffffffffffffffffffffffffffffffffffffffff163373ffffffffffffffffffffffffffffffffffffffff1614905090565b6117618061021e6000396000f3fe60806040526004361061009c5760003560e01c8063866b3a9211610064578063866b3a92146102525780638da5cb5b1461028d5780638f32d59b146102e4578063941b055b1461031357806395a0f9c714610358578063f2fde38b146103935761009c565b80630eb47c3a146100a15780634579268a146100e357806349b3709f1461017e578063715018a6146101ea578063733fea4914610201575b600080fd5b6100e1600480360360608110156100b757600080fd5b810190808035906020019092919080359060200190929190803590602001909291905050506103e4565b005b3480156100ef57600080fd5b5061011c6004803603602081101561010657600080fd5b8101908080359060200190929190505050610785565b604051808673ffffffffffffffffffffffffffffffffffffffff1673ffffffffffffffffffffffffffffffffffffffff168152602001858152602001848152602001838152602001821515151581526020019550505050505060405180910390f35b34801561018a57600080fd5b50610193610800565b6040518080602001828103825283818151815260200191508051906020019060200280838360005b838110156101d65780820151818401526020810190506101bb565b505050509050019250505060405180910390f35b3480156101f657600080fd5b506101ff610858565b005b34801561020d57600080fd5b506102506004803603602081101561022457600080fd5b81019080803573ffffffffffffffffffffffffffffffffffffffff169060200190929190505050610991565b005b34801561025e57600080fd5b5061028b6004803603602081101561027557600080fd5b8101908080359060200190929190505050610a4f565b005b34801561029957600080fd5b506102a2610ab3565b604051808273ffffffffffffffffffffffffffffffffffffffff1673ffffffffffffffffffffffffffffffffffffffff16815260200191505060405180910390f35b3480156102f057600080fd5b506102f9610adc565b604051808215151515815260200191505060405180910390f35b34801561031f57600080fd5b506103566004803603604081101561033657600080fd5b810190808035906020019092919080359060200190929190505050610b33565b005b34801561036457600080fd5b506103916004803603602081101561037b57600080fd5b8101908080359060200190929190505050610f7b565b005b34801561039f57600080fd5b506103e2600480360360208110156103b657600080fd5b81019080803573ffffffffffffffffffffffffffffffffffffffff169060200190929190505050611188565b005b6103ec61166e565b600360008581526020019081526020016000206040518060a00160405290816000820160009054906101000a900473ffffffffffffffffffffffffffffffffffffffff1673ffffffffffffffffffffffffffffffffffffffff1673ffffffffffffffffffffffffffffffffffffffff1681526020016001820154815260200160028201548152602001600382015481526020016004820160009054906101000a900460ff16151515158152505090506000816020015111610515576040517f08c379a000000000000000000000000000000000000000000000000000000000815260040180806020018281038252600f8152602001807f4e6f20616374697665206f66666572000000000000000000000000000000000081525060200191505060405180910390fd5b61051e8461120e565b6000816020015111156105e257806000015173ffffffffffffffffffffffffffffffffffffffff166108fc849081150290604051600060405180830381858888f19350505050158015610575573d6000803e3d6000fd5b503073ffffffffffffffffffffffffffffffffffffffff1663866b3a92836040518263ffffffff1660e01b815260040180828152602001915050600060405180830381600087803b1580156105c957600080fd5b505af11580156105dd573d6000803e3d6000fd5b505050505b600160009054906101000a900473ffffffffffffffffffffffffffffffffffffffff1673ffffffffffffffffffffffffffffffffffffffff166323b872dd826000015133876040518463ffffffff1660e01b8152600401808473ffffffffffffffffffffffffffffffffffffffff1673ffffffffffffffffffffffffffffffffffffffff1681526020018373ffffffffffffffffffffffffffffffffffffffff1673ffffffffffffffffffffffffffffffffffffffff1681526020018281526020019350505050600060405180830381600087803b1580156106c357600080fd5b505af11580156106d7573d6000803e3d6000fd5b505050507fd99e4fad9ad6313b1feb588fa8e605e3a9873172f2024330c35dd2b4041a4386338560405180806020018473ffffffffffffffffffffffffffffffffffffffff1673ffffffffffffffffffffffffffffffffffffffff168152602001838152602001828103825260038152602001807f4275790000000000000000000000000000000000000000000000000000000000815250602001935050505060405180910390a150505050565b6000806000806000806003600088815260200190815260200160002090508060000160009054906101000a900473ffffffffffffffffffffffffffffffffffffffff168160010154826002015483600301548460040160009054906101000a900460ff16849450955095509550955095505091939590929450565b6060600280548060200260200160405190810160405280929190818152602001828054801561084e57602002820191906000526020600020905b81548152602001906001019080831161083a575b5050505050905090565b610860610adc565b6108d2576040517f08c379a00000000000000000000000000000000000000000000000000000000081526004018080602001828103825260208152602001807f4f776e61626c653a2063616c6c6572206973206e6f7420746865206f776e657281525060200191505060405180910390fd5b600073ffffffffffffffffffffffffffffffffffffffff166000809054906101000a900473ffffffffffffffffffffffffffffffffffffffff1673ffffffffffffffffffffffffffffffffffffffff167f8be0079c531659141344cd1fd0a4f28419497f9722a3daafe3b4186f6b6457e060405160405180910390a360008060006101000a81548173ffffffffffffffffffffffffffffffffffffffff021916908373ffffffffffffffffffffffffffffffffffffffff160217905550565b610999610adc565b610a0b576040517f08c379a00000000000000000000000000000000000000000000000000000000081526004018080602001828103825260208152602001807f4f776e61626c653a2063616c6c6572206973206e6f7420746865206f776e657281525060200191505060405180910390fd5b80600160006101000a81548173ffffffffffffffffffffffffffffffffffffffff021916908373ffffffffffffffffffffffffffffffffffffffff16021790555050565b6000731df62f291b2e969fb0849d99d9ce41e2f137006e90508073ffffffffffffffffffffffffffffffffffffffff166108fc839081150290604051600060405180830381858888f19350505050158015610aae573d6000803e3d6000fd5b505050565b60008060009054906101000a900473ffffffffffffffffffffffffffffffffffffffff16905090565b60008060009054906101000a900473ffffffffffffffffffffffffffffffffffffffff1673ffffffffffffffffffffffffffffffffffffffff163373ffffffffffffffffffffffffffffffffffffffff1614905090565b610b3d338261133a565b610baf576040517f08c379a000000000000000000000000000000000000000000000000000000000815260040180806020018281038252600d8152602001807f4e6f7420746865206f776e65720000000000000000000000000000000000000081525060200191505060405180910390fd5b6000600360008381526020019081526020016000206001015414610c3b576040517f08c379a000000000000000000000000000000000000000000000000000000000815260040180806020018281038252600f8152602001807f416c7265616479206f666665726564000000000000000000000000000000000081525060200191505060405180910390fd5b600160009054906101000a900473ffffffffffffffffffffffffffffffffffffffff1673ffffffffffffffffffffffffffffffffffffffff1663e985e9c533306040518363ffffffff1660e01b8152600401808373ffffffffffffffffffffffffffffffffffffffff1673ffffffffffffffffffffffffffffffffffffffff1681526020018273ffffffffffffffffffffffffffffffffffffffff1673ffffffffffffffffffffffffffffffffffffffff1681526020019250505060206040518083038186803b158015610d0e57600080fd5b505afa158015610d22573d6000803e3d6000fd5b505050506040513d6020811015610d3857600080fd5b8101908080519060200190929190505050610dbb576040517f08c379a000000000000000000000000000000000000000000000000000000000815260040180806020018281038252601a8152602001807f4d61726b6574706c616365206e6565647320617070726f76616c00000000000081525060200191505060405180910390fd5b610dc361166e565b6040518060a001604052803373ffffffffffffffffffffffffffffffffffffffff1681526020018481526020016002805490508152602001838152602001600115158152509050806003600084815260200190815260200160002060008201518160000160006101000a81548173ffffffffffffffffffffffffffffffffffffffff021916908373ffffffffffffffffffffffffffffffffffffffff16021790555060208201518160010155604082015181600201556060820151816003015560808201518160040160006101000a81548160ff02191690831515021790555090505060028290806001815401808255809150509060018203906000526020600020016000909192909190915055507fd99e4fad9ad6313b1feb588fa8e605e3a9873172f2024330c35dd2b4041a4386338360405180806020018473ffffffffffffffffffffffffffffffffffffffff1673ffffffffffffffffffffffffffffffffffffffff1681526020018381526020018281038252600c8152602001807f437265617465206f666665720000000000000000000000000000000000000000815250602001935050505060405180910390a1505050565b610f8361166e565b600360008381526020019081526020016000206040518060a00160405290816000820160009054906101000a900473ffffffffffffffffffffffffffffffffffffffff1673ffffffffffffffffffffffffffffffffffffffff1673ffffffffffffffffffffffffffffffffffffffff1681526020016001820154815260200160028201548152602001600382015481526020016004820160009054906101000a900460ff16151515158152505090503373ffffffffffffffffffffffffffffffffffffffff16816000015173ffffffffffffffffffffffffffffffffffffffff16146110d7576040517f08c379a000000000000000000000000000000000000000000000000000000000815260040180806020018281038252600d8152602001807f4e6f7420746865206f776e65720000000000000000000000000000000000000081525060200191505060405180910390fd5b6110e08261120e565b7fd99e4fad9ad6313b1feb588fa8e605e3a9873172f2024330c35dd2b4041a4386338360405180806020018473ffffffffffffffffffffffffffffffffffffffff1673ffffffffffffffffffffffffffffffffffffffff1681526020018381526020018281038252600c8152602001807f52656d6f7665206f666665720000000000000000000000000000000000000000815250602001935050505060405180910390a15050565b611190610adc565b611202576040517f08c379a00000000000000000000000000000000000000000000000000000000081526004018080602001828103825260208152602001807f4f776e61626c653a2063616c6c6572206973206e6f7420746865206f776e657281525060200191505060405180910390fd5b61120b81611420565b50565b6000611229600160028054905061156490919063ffffffff16565b905060006003600084815260200190815260200160002060020154905060006002838154811061125557fe5b90600052602060002001549050806002838154811061127057fe5b906000526020600020018190555081600360008381526020019081526020016000206002018190555060028054809190600190036112ae91906116b5565b506000600360008681526020019081526020016000206002018190555060036000858152602001908152602001600020600080820160006101000a81549073ffffffffffffffffffffffffffffffffffffffff02191690556001820160009055600282016000905560038201600090556004820160006101000a81549060ff0219169055505050505050565b60008273ffffffffffffffffffffffffffffffffffffffff16600160009054906101000a900473ffffffffffffffffffffffffffffffffffffffff1673ffffffffffffffffffffffffffffffffffffffff16636352211e846040518263ffffffff1660e01b81526004018082815260200191505060206040518083038186803b1580156113c657600080fd5b505afa1580156113da573d6000803e3d6000fd5b505050506040513d60208110156113f057600080fd5b810190808051906020019092919050505073ffffffffffffffffffffffffffffffffffffffff1614905092915050565b600073ffffffffffffffffffffffffffffffffffffffff168173ffffffffffffffffffffffffffffffffffffffff1614156114a6576040517f08c379a00000000000000000000000000000000000000000000000000000000081526004018080602001828103825260268152602001806117076026913960400191505060405180910390fd5b8073ffffffffffffffffffffffffffffffffffffffff166000809054906101000a900473ffffffffffffffffffffffffffffffffffffffff1673ffffffffffffffffffffffffffffffffffffffff167f8be0079c531659141344cd1fd0a4f28419497f9722a3daafe3b4186f6b6457e060405160405180910390a3806000806101000a81548173ffffffffffffffffffffffffffffffffffffffff021916908373ffffffffffffffffffffffffffffffffffffffff16021790555050565b60006115a683836040518060400160405280601e81526020017f536166654d6174683a207375627472616374696f6e206f766572666c6f7700008152506115ae565b905092915050565b600083831115829061165b576040517f08c379a00000000000000000000000000000000000000000000000000000000081526004018080602001828103825283818151815260200191508051906020019080838360005b83811015611620578082015181840152602081019050611605565b50505050905090810190601f16801561164d5780820380516001836020036101000a031916815260200191505b509250505060405180910390fd5b5060008385039050809150509392505050565b6040518060a00160405280600073ffffffffffffffffffffffffffffffffffffffff1681526020016000815260200160008152602001600081526020016000151581525090565b8154818355818111156116dc578183600052602060002091820191016116db91906116e1565b5b505050565b61170391905b808211156116ff5760008160009055506001016116e7565b5090565b9056fe4f776e61626c653a206e6577206f776e657220697320746865207a65726f2061646472657373a265627a7a7231582011cea5497023f00def1702f5d26f60ab6b5521d98fb3edbba4a9afbba69f692364736f6c63430005100032",
  "source": "pragma solidity 0.5.16;\n\nimport \"./utils/Ownable.sol\";\nimport \"./TigerCore.sol\";\n\n/**\n * @title The MarketPlace contract.\n * @author Andrew Ayson\n * @dev It takes ownership of the tiger for the duration that it is on the marketplace\n */\ncontract MarketPlace is Ownable {\n    using SafeMath for uint256;\n\n    struct Offer {\n        address payable seller;\n        uint256 price;\n        uint256 index;\n        uint256 tokenId;\n        bool active;\n    }\n\n    event MarketTransaction(string TxType, address owner, uint256 tokenId);\n    \n    TigerCore private _tigerContract;\n    uint256[] private _offeredTokenIds;\n    mapping(uint256 => Offer) private _tokenIdToOffer;\n\n    /**\n     * @notice Set the current TigerContract address and initialize the instance of TigerContract.\n     * @dev Requirement: Only the contract owner can call.\n     * @param _tigerContractAddress the address of the TigerCore contract to interact with\n     */\n    function setTigerCoreContract(address _tigerContractAddress)\n        public\n        onlyOwner\n    {\n        _tigerContract = TigerCore(_tigerContractAddress);\n    }\n\n    constructor(address _tigerContractAddress) public {\n        setTigerCoreContract(_tigerContractAddress);\n    }\n\n    /**\n     * @notice Get the details about a offer for _tokenId. Throws an error if there is no active offer for _tokenId.\n     * @param _tokenId the id of the token to get the offer from\n     * @return the offer\n     */\n    function getOffer(uint256 _tokenId)\n        external\n        view\n        returns (\n            address seller,\n            uint256 price,\n            uint256 index,\n            uint256 tokenId,\n            bool active\n        )\n    {\n        Offer storage offer = _tokenIdToOffer[_tokenId];\n        return (\n            offer.seller,\n            offer.price,\n            offer.index,\n            offer.tokenId,\n            offer.active\n        );\n    }\n\n    /**\n     * @notice Get all tigers that are on sale\n     * @return all tokenId's that are currently for sale. Returns an empty arror if none exist\n     */\n    function getAllTokenOnSale()\n        external\n        view\n        returns (uint256[] memory listOfOffers)\n    {\n        return _offeredTokenIds;\n    }\n\n    /**\n     * @dev checks if an address owns a tiger\n     * @param _address the address to check the ownership of\n     * @param _tokenId the id of the tiger to check\n     * @return True if the address owns the tiger, false otherwise\n     */\n    function _ownsTiger(address _address, uint256 _tokenId)\n        internal\n        view\n        returns (bool)\n    {\n        return (_tigerContract.ownerOf(_tokenId) == _address);\n    }\n\n    /**\n     * @notice Transfers the transaction fee of 2% to the business account\n     * @param _fee the transaction fee\n     */\n    function _payTransactionFee(uint256 _fee) external {\n        address payable feeReceiver = 0x1dF62f291b2E969fB0849d99D9Ce41e2F137006e;\n\n        feeReceiver.transfer(_fee);\n    }\n\n    /**\n     * @notice Creates a new offer for _tokenId for the price _price.\n     * @dev Requirements:\n     * Only the owner of _tokenId can create an offer.\n     * There can only be one active offer for a token at a time.\n     * Marketplace contract (this) needs to be an approved operator when the offer is created.\n     * @param _price the price of the new offer\n     * @param _tokenId the id of the tiger\n     */\n    function setOffer(uint256 _price, uint256 _tokenId) external {\n        require(_ownsTiger(msg.sender, _tokenId), \"Not the owner\");\n        require(_tokenIdToOffer[_tokenId].price == 0 , \"Already offered\");\n\n        require(\n            _tigerContract.isApprovedForAll(msg.sender, address(this)),\n            \"Marketplace needs approval\"\n        );\n\n        Offer memory _offer = Offer({\n            seller: msg.sender,\n            price: _price,\n            active: true,\n            tokenId: _tokenId,\n            index: _offeredTokenIds.length\n        });\n\n        _tokenIdToOffer[_tokenId] = _offer;\n        _offeredTokenIds.push(_tokenId);\n\n        emit MarketTransaction(\"Create offer\", msg.sender, _tokenId);\n    }\n\n    /**\n     * @dev In order to easily requests all _offeredTokenIds, we need to track an array of all the _offeredTokenIds,\n     * this needs to be updated on removal. For this we will swap the last element with the current element, \n     * and update the corresponding index in the struct.\n     * Note that this is only needed in order to easily request all active _offeredTokenIds as an array\n     * Inspired by https://github.com/OpenZeppelin/openzeppelin-contracts/blob/04a1b21874e02fd3027172bf208d9658b886b658/contracts/token/ERC721/ERC721Enumerable.sol\n     * @dev Requirement: Only the seller of _tokenId can remove an offer.\n     * @param _tokenId the id of the tiger of which its offer needs to remove\n     */\n    function _removeOffer(uint256 _tokenId) private {\n        // Remove from array: move the last token to the current token position\n        uint256 lastTokenIndex = _offeredTokenIds.length.sub(1);\n        uint256 tokenIndex = _tokenIdToOffer[_tokenId].index;\n        uint256 lastTokenId = _offeredTokenIds[lastTokenIndex];\n\n        _offeredTokenIds[tokenIndex] = lastTokenId; // Move the last token to the slot of the to-delete token\n        _tokenIdToOffer[lastTokenId].index = tokenIndex; // Update the moved token's index\n\n        // This also deletes the contents at the last position of the array\n        _offeredTokenIds.length--;\n        _tokenIdToOffer[_tokenId].index = 0;\n        \n        // Remove from mapping\n        delete _tokenIdToOffer[_tokenId];\n    }\n\n    /**\n     * @notice Removes an existing offer.\n     * @dev see _removeOffer\n     */\n    function removeOffer(uint256 _tokenId) external {\n        Offer memory offer = _tokenIdToOffer[_tokenId];\n        require(offer.seller == msg.sender, \"Not the owner\");\n\n        _removeOffer(_tokenId);\n\n        emit MarketTransaction(\"Remove offer\", msg.sender, _tokenId);\n    }\n\n    /**\n     * @notice Executes the purchase of _tokenId.\n     * Sends the funds to the seller and transfers the token using transferFrom in TigerContract.\n     * @dev Requirement:\n     * The msg.value needs to equal the price of _tokenId\n     * There must be an active offer for _tokenId\n     */\n    function buyTiger(uint256 _tokenId, uint256 _price, uint256 _transactionFee) external payable {\n        Offer memory offer = _tokenIdToOffer[_tokenId];\n        require(offer.price > 0, \"No active offer\");\n        // require(msg.value == offer.price, \"The price is incorrect\");\n\n        // Important: delete the tiger from the mapping BEFORE paying out to prevent reentry attacks\n        _removeOffer(_tokenId);\n\n        // Transfer the funds to the seller\n        // TODO: make this logic pull instead of push\n        if (offer.price > 0) {\n            offer.seller.transfer(_price);\n            this._payTransactionFee(_transactionFee);\n        }\n\n        // Transfer ownership of the tiger\n        _tigerContract.transferFrom(offer.seller, msg.sender, _tokenId);\n\n        emit MarketTransaction(\"Buy\", msg.sender, _tokenId);\n    }\n}\n",
  "sourcePath": "/Users/bananaQ/Documents/own_projects/business/crypto_tigers/backend/contracts/MarketPlace.sol",
  "compiler": {
    "name": "solc",
    "version": "0.5.16+commit.9c3226ce.Emscripten.clang"
  },
  "schemaVersion": "3.4.3",
  "updatedAt": "2021-12-26T08:24:47.070Z",
  "networkType": "ethereum",
  "devdoc": {
    "author": "Andrew Ayson",
    "details": "It takes ownership of the tiger for the duration that it is on the marketplace",
    "methods": {
      "_payTransactionFee(uint256)": {
        "params": {
          "_fee": "the transaction fee"
        }
      },
      "buyTiger(uint256,uint256,uint256)": {
        "details": "Requirement: The msg.value needs to equal the price of _tokenId There must be an active offer for _tokenId"
      },
      "getAllTokenOnSale()": {
        "return": "all tokenId's that are currently for sale. Returns an empty arror if none exist"
      },
      "getOffer(uint256)": {
        "params": {
          "_tokenId": "the id of the token to get the offer from"
        },
        "return": "the offer"
      },
      "isOwner()": {
        "details": "Returns true if the caller is the current owner."
      },
      "owner()": {
        "details": "Returns the address of the current owner."
      },
      "removeOffer(uint256)": {
        "details": "see _removeOffer"
      },
      "renounceOwnership()": {
        "details": "Leaves the contract without owner. It will not be possible to call `onlyOwner` functions anymore. Can only be called by the current owner.     * NOTE: Renouncing ownership will leave the contract without an owner, thereby removing any functionality that is only available to the owner."
      },
      "setOffer(uint256,uint256)": {
        "details": "Requirements: Only the owner of _tokenId can create an offer. There can only be one active offer for a token at a time. Marketplace contract (this) needs to be an approved operator when the offer is created.",
        "params": {
          "_price": "the price of the new offer",
          "_tokenId": "the id of the tiger"
        }
      },
      "setTigerCoreContract(address)": {
        "details": "Requirement: Only the contract owner can call.",
        "params": {
          "_tigerContractAddress": "the address of the TigerCore contract to interact with"
        }
      },
      "transferOwnership(address)": {
        "details": "Transfers ownership of the contract to a new account (`newOwner`). Can only be called by the current owner."
      }
    },
    "title": "The MarketPlace contract."
  },
  "userdoc": {
    "methods": {
      "_payTransactionFee(uint256)": {
        "notice": "Transfers the transaction fee of 2% to the business account"
      },
      "buyTiger(uint256,uint256,uint256)": {
        "notice": "Executes the purchase of _tokenId. Sends the funds to the seller and transfers the token using transferFrom in TigerContract."
      },
      "getAllTokenOnSale()": {
        "notice": "Get all tigers that are on sale"
      },
      "getOffer(uint256)": {
        "notice": "Get the details about a offer for _tokenId. Throws an error if there is no active offer for _tokenId."
      },
      "removeOffer(uint256)": {
        "notice": "Removes an existing offer."
      },
      "setOffer(uint256,uint256)": {
        "notice": "Creates a new offer for _tokenId for the price _price."
      },
      "setTigerCoreContract(address)": {
        "notice": "Set the current TigerContract address and initialize the instance of TigerContract."
      }
    }
  }
}