{
  "contractName": "MarketPlace",
  "abi": [
    {
      "inputs": [
        {
          "internalType": "address",
          "name": "_tigerContractAddress",
          "type": "address"
        }
      ],
      "payable": false,
      "stateMutability": "nonpayable",
      "type": "constructor"
    },
    {
      "anonymous": false,
      "inputs": [
        {
          "indexed": false,
          "internalType": "string",
          "name": "TxType",
          "type": "string"
        },
        {
          "indexed": false,
          "internalType": "address",
          "name": "owner",
          "type": "address"
        },
        {
          "indexed": false,
          "internalType": "uint256",
          "name": "tokenId",
          "type": "uint256"
        }
      ],
      "name": "MarketTransaction",
      "type": "event"
    },
    {
      "anonymous": false,
      "inputs": [
        {
          "indexed": true,
          "internalType": "address",
          "name": "previousOwner",
          "type": "address"
        },
        {
          "indexed": true,
          "internalType": "address",
          "name": "newOwner",
          "type": "address"
        }
      ],
      "name": "OwnershipTransferred",
      "type": "event"
    },
    {
      "constant": true,
      "inputs": [],
      "name": "isOwner",
      "outputs": [
        {
          "internalType": "bool",
          "name": "",
          "type": "bool"
        }
      ],
      "payable": false,
      "stateMutability": "view",
      "type": "function"
    },
    {
      "constant": true,
      "inputs": [],
      "name": "owner",
      "outputs": [
        {
          "internalType": "address",
          "name": "",
          "type": "address"
        }
      ],
      "payable": false,
      "stateMutability": "view",
      "type": "function"
    },
    {
      "constant": false,
      "inputs": [],
      "name": "renounceOwnership",
      "outputs": [],
      "payable": false,
      "stateMutability": "nonpayable",
      "type": "function"
    },
    {
      "constant": false,
      "inputs": [
        {
          "internalType": "address",
          "name": "newOwner",
          "type": "address"
        }
      ],
      "name": "transferOwnership",
      "outputs": [],
      "payable": false,
      "stateMutability": "nonpayable",
      "type": "function"
    },
    {
      "constant": false,
      "inputs": [
        {
          "internalType": "address",
          "name": "_tigerContractAddress",
          "type": "address"
        }
      ],
      "name": "setTigerCoreContract",
      "outputs": [],
      "payable": false,
      "stateMutability": "nonpayable",
      "type": "function"
    },
    {
      "constant": true,
      "inputs": [
        {
          "internalType": "uint256",
          "name": "_tokenId",
          "type": "uint256"
        }
      ],
      "name": "getOffer",
      "outputs": [
        {
          "internalType": "address",
          "name": "seller",
          "type": "address"
        },
        {
          "internalType": "uint256",
          "name": "price",
          "type": "uint256"
        },
        {
          "internalType": "uint256",
          "name": "index",
          "type": "uint256"
        },
        {
          "internalType": "uint256",
          "name": "tokenId",
          "type": "uint256"
        },
        {
          "internalType": "bool",
          "name": "active",
          "type": "bool"
        }
      ],
      "payable": false,
      "stateMutability": "view",
      "type": "function"
    },
    {
      "constant": true,
      "inputs": [],
      "name": "getAllTokenOnSale",
      "outputs": [
        {
          "internalType": "uint256[]",
          "name": "listOfOffers",
          "type": "uint256[]"
        }
      ],
      "payable": false,
      "stateMutability": "view",
      "type": "function"
    },
    {
      "constant": false,
      "inputs": [
        {
          "internalType": "uint256",
          "name": "_price",
          "type": "uint256"
        },
        {
          "internalType": "uint256",
          "name": "_tokenId",
          "type": "uint256"
        }
      ],
      "name": "setOffer",
      "outputs": [],
      "payable": false,
      "stateMutability": "nonpayable",
      "type": "function"
    },
    {
      "constant": false,
      "inputs": [
        {
          "internalType": "uint256",
          "name": "_tokenId",
          "type": "uint256"
        }
      ],
      "name": "removeOffer",
      "outputs": [],
      "payable": false,
      "stateMutability": "nonpayable",
      "type": "function"
    },
    {
      "constant": false,
      "inputs": [
        {
          "internalType": "uint256",
          "name": "_tokenId",
          "type": "uint256"
        }
      ],
      "name": "buyTiger",
      "outputs": [],
      "payable": true,
      "stateMutability": "payable",
      "type": "function"
    }
  ],
  "bytecode": "0x608060405234801561001057600080fd5b506040516118d13803806118d18339818101604052602081101561003357600080fd5b8101908080519060200190929190505050336000806101000a81548173ffffffffffffffffffffffffffffffffffffffff021916908373ffffffffffffffffffffffffffffffffffffffff1602179055503373ffffffffffffffffffffffffffffffffffffffff16600073ffffffffffffffffffffffffffffffffffffffff167f8be0079c531659141344cd1fd0a4f28419497f9722a3daafe3b4186f6b6457e060405160405180910390a36100ee816100f460201b60201c565b5061020f565b6101026101b860201b60201c565b610174576040517f08c379a00000000000000000000000000000000000000000000000000000000081526004018080602001828103825260208152602001807f4f776e61626c653a2063616c6c6572206973206e6f7420746865206f776e657281525060200191505060405180910390fd5b80600160006101000a81548173ffffffffffffffffffffffffffffffffffffffff021916908373ffffffffffffffffffffffffffffffffffffffff16021790555050565b60008060009054906101000a900473ffffffffffffffffffffffffffffffffffffffff1673ffffffffffffffffffffffffffffffffffffffff163373ffffffffffffffffffffffffffffffffffffffff1614905090565b6116b38061021e6000396000f3fe6080604052600436106100915760003560e01c80638f32d59b116100595780638f32d59b1461025c57806390f83fa71461028b578063941b055b146102b957806395a0f9c7146102fe578063f2fde38b1461033957610091565b80634579268a1461009657806349b3709f14610131578063715018a61461019d578063733fea49146101b45780638da5cb5b14610205575b600080fd5b3480156100a257600080fd5b506100cf600480360360208110156100b957600080fd5b810190808035906020019092919050505061038a565b604051808673ffffffffffffffffffffffffffffffffffffffff1673ffffffffffffffffffffffffffffffffffffffff168152602001858152602001848152602001838152602001821515151581526020019550505050505060405180910390f35b34801561013d57600080fd5b50610146610405565b6040518080602001828103825283818151815260200191508051906020019060200280838360005b8381101561018957808201518184015260208101905061016e565b505050509050019250505060405180910390f35b3480156101a957600080fd5b506101b261045d565b005b3480156101c057600080fd5b50610203600480360360208110156101d757600080fd5b81019080803573ffffffffffffffffffffffffffffffffffffffff169060200190929190505050610596565b005b34801561021157600080fd5b5061021a610654565b604051808273ffffffffffffffffffffffffffffffffffffffff1673ffffffffffffffffffffffffffffffffffffffff16815260200191505060405180910390f35b34801561026857600080fd5b5061027161067d565b604051808215151515815260200191505060405180910390f35b6102b7600480360360208110156102a157600080fd5b81019080803590602001909291905050506106d4565b005b3480156102c557600080fd5b506102fc600480360360408110156102dc57600080fd5b810190808035906020019092919080359060200190929190505050610a85565b005b34801561030a57600080fd5b506103376004803603602081101561032157600080fd5b8101908080359060200190929190505050610ecd565b005b34801561034557600080fd5b506103886004803603602081101561035c57600080fd5b81019080803573ffffffffffffffffffffffffffffffffffffffff1690602001909291905050506110da565b005b6000806000806000806003600088815260200190815260200160002090508060000160009054906101000a900473ffffffffffffffffffffffffffffffffffffffff168160010154826002015483600301548460040160009054906101000a900460ff16849450955095509550955095505091939590929450565b6060600280548060200260200160405190810160405280929190818152602001828054801561045357602002820191906000526020600020905b81548152602001906001019080831161043f575b5050505050905090565b61046561067d565b6104d7576040517f08c379a00000000000000000000000000000000000000000000000000000000081526004018080602001828103825260208152602001807f4f776e61626c653a2063616c6c6572206973206e6f7420746865206f776e657281525060200191505060405180910390fd5b600073ffffffffffffffffffffffffffffffffffffffff166000809054906101000a900473ffffffffffffffffffffffffffffffffffffffff1673ffffffffffffffffffffffffffffffffffffffff167f8be0079c531659141344cd1fd0a4f28419497f9722a3daafe3b4186f6b6457e060405160405180910390a360008060006101000a81548173ffffffffffffffffffffffffffffffffffffffff021916908373ffffffffffffffffffffffffffffffffffffffff160217905550565b61059e61067d565b610610576040517f08c379a00000000000000000000000000000000000000000000000000000000081526004018080602001828103825260208152602001807f4f776e61626c653a2063616c6c6572206973206e6f7420746865206f776e657281525060200191505060405180910390fd5b80600160006101000a81548173ffffffffffffffffffffffffffffffffffffffff021916908373ffffffffffffffffffffffffffffffffffffffff16021790555050565b60008060009054906101000a900473ffffffffffffffffffffffffffffffffffffffff16905090565b60008060009054906101000a900473ffffffffffffffffffffffffffffffffffffffff1673ffffffffffffffffffffffffffffffffffffffff163373ffffffffffffffffffffffffffffffffffffffff1614905090565b6106dc6115c0565b600360008381526020019081526020016000206040518060a00160405290816000820160009054906101000a900473ffffffffffffffffffffffffffffffffffffffff1673ffffffffffffffffffffffffffffffffffffffff1673ffffffffffffffffffffffffffffffffffffffff1681526020016001820154815260200160028201548152602001600382015481526020016004820160009054906101000a900460ff16151515158152505090506000816020015111610805576040517f08c379a000000000000000000000000000000000000000000000000000000000815260040180806020018281038252600f8152602001807f4e6f20616374697665206f66666572000000000000000000000000000000000081525060200191505060405180910390fd5b8060200151341461087e576040517f08c379a00000000000000000000000000000000000000000000000000000000081526004018080602001828103825260168152602001807f54686520707269636520697320696e636f72726563740000000000000000000081525060200191505060405180910390fd5b61088782611160565b6000816020015111156108e457806000015173ffffffffffffffffffffffffffffffffffffffff166108fc82602001519081150290604051600060405180830381858888f193505050501580156108e2573d6000803e3d6000fd5b505b600160009054906101000a900473ffffffffffffffffffffffffffffffffffffffff1673ffffffffffffffffffffffffffffffffffffffff166323b872dd826000015133856040518463ffffffff1660e01b8152600401808473ffffffffffffffffffffffffffffffffffffffff1673ffffffffffffffffffffffffffffffffffffffff1681526020018373ffffffffffffffffffffffffffffffffffffffff1673ffffffffffffffffffffffffffffffffffffffff1681526020018281526020019350505050600060405180830381600087803b1580156109c557600080fd5b505af11580156109d9573d6000803e3d6000fd5b505050507fd99e4fad9ad6313b1feb588fa8e605e3a9873172f2024330c35dd2b4041a4386338360405180806020018473ffffffffffffffffffffffffffffffffffffffff1673ffffffffffffffffffffffffffffffffffffffff168152602001838152602001828103825260038152602001807f4275790000000000000000000000000000000000000000000000000000000000815250602001935050505060405180910390a15050565b610a8f338261128c565b610b01576040517f08c379a000000000000000000000000000000000000000000000000000000000815260040180806020018281038252600d8152602001807f4e6f7420746865206f776e65720000000000000000000000000000000000000081525060200191505060405180910390fd5b6000600360008381526020019081526020016000206001015414610b8d576040517f08c379a000000000000000000000000000000000000000000000000000000000815260040180806020018281038252600f8152602001807f416c7265616479206f666665726564000000000000000000000000000000000081525060200191505060405180910390fd5b600160009054906101000a900473ffffffffffffffffffffffffffffffffffffffff1673ffffffffffffffffffffffffffffffffffffffff1663e985e9c533306040518363ffffffff1660e01b8152600401808373ffffffffffffffffffffffffffffffffffffffff1673ffffffffffffffffffffffffffffffffffffffff1681526020018273ffffffffffffffffffffffffffffffffffffffff1673ffffffffffffffffffffffffffffffffffffffff1681526020019250505060206040518083038186803b158015610c6057600080fd5b505afa158015610c74573d6000803e3d6000fd5b505050506040513d6020811015610c8a57600080fd5b8101908080519060200190929190505050610d0d576040517f08c379a000000000000000000000000000000000000000000000000000000000815260040180806020018281038252601a8152602001807f4d61726b6574706c616365206e6565647320617070726f76616c00000000000081525060200191505060405180910390fd5b610d156115c0565b6040518060a001604052803373ffffffffffffffffffffffffffffffffffffffff1681526020018481526020016002805490508152602001838152602001600115158152509050806003600084815260200190815260200160002060008201518160000160006101000a81548173ffffffffffffffffffffffffffffffffffffffff021916908373ffffffffffffffffffffffffffffffffffffffff16021790555060208201518160010155604082015181600201556060820151816003015560808201518160040160006101000a81548160ff02191690831515021790555090505060028290806001815401808255809150509060018203906000526020600020016000909192909190915055507fd99e4fad9ad6313b1feb588fa8e605e3a9873172f2024330c35dd2b4041a4386338360405180806020018473ffffffffffffffffffffffffffffffffffffffff1673ffffffffffffffffffffffffffffffffffffffff1681526020018381526020018281038252600c8152602001807f437265617465206f666665720000000000000000000000000000000000000000815250602001935050505060405180910390a1505050565b610ed56115c0565b600360008381526020019081526020016000206040518060a00160405290816000820160009054906101000a900473ffffffffffffffffffffffffffffffffffffffff1673ffffffffffffffffffffffffffffffffffffffff1673ffffffffffffffffffffffffffffffffffffffff1681526020016001820154815260200160028201548152602001600382015481526020016004820160009054906101000a900460ff16151515158152505090503373ffffffffffffffffffffffffffffffffffffffff16816000015173ffffffffffffffffffffffffffffffffffffffff1614611029576040517f08c379a000000000000000000000000000000000000000000000000000000000815260040180806020018281038252600d8152602001807f4e6f7420746865206f776e65720000000000000000000000000000000000000081525060200191505060405180910390fd5b61103282611160565b7fd99e4fad9ad6313b1feb588fa8e605e3a9873172f2024330c35dd2b4041a4386338360405180806020018473ffffffffffffffffffffffffffffffffffffffff1673ffffffffffffffffffffffffffffffffffffffff1681526020018381526020018281038252600c8152602001807f52656d6f7665206f666665720000000000000000000000000000000000000000815250602001935050505060405180910390a15050565b6110e261067d565b611154576040517f08c379a00000000000000000000000000000000000000000000000000000000081526004018080602001828103825260208152602001807f4f776e61626c653a2063616c6c6572206973206e6f7420746865206f776e657281525060200191505060405180910390fd5b61115d81611372565b50565b600061117b60016002805490506114b690919063ffffffff16565b90506000600360008481526020019081526020016000206002015490506000600283815481106111a757fe5b9060005260206000200154905080600283815481106111c257fe5b906000526020600020018190555081600360008381526020019081526020016000206002018190555060028054809190600190036112009190611607565b506000600360008681526020019081526020016000206002018190555060036000858152602001908152602001600020600080820160006101000a81549073ffffffffffffffffffffffffffffffffffffffff02191690556001820160009055600282016000905560038201600090556004820160006101000a81549060ff0219169055505050505050565b60008273ffffffffffffffffffffffffffffffffffffffff16600160009054906101000a900473ffffffffffffffffffffffffffffffffffffffff1673ffffffffffffffffffffffffffffffffffffffff16636352211e846040518263ffffffff1660e01b81526004018082815260200191505060206040518083038186803b15801561131857600080fd5b505afa15801561132c573d6000803e3d6000fd5b505050506040513d602081101561134257600080fd5b810190808051906020019092919050505073ffffffffffffffffffffffffffffffffffffffff1614905092915050565b600073ffffffffffffffffffffffffffffffffffffffff168173ffffffffffffffffffffffffffffffffffffffff1614156113f8576040517f08c379a00000000000000000000000000000000000000000000000000000000081526004018080602001828103825260268152602001806116596026913960400191505060405180910390fd5b8073ffffffffffffffffffffffffffffffffffffffff166000809054906101000a900473ffffffffffffffffffffffffffffffffffffffff1673ffffffffffffffffffffffffffffffffffffffff167f8be0079c531659141344cd1fd0a4f28419497f9722a3daafe3b4186f6b6457e060405160405180910390a3806000806101000a81548173ffffffffffffffffffffffffffffffffffffffff021916908373ffffffffffffffffffffffffffffffffffffffff16021790555050565b60006114f883836040518060400160405280601e81526020017f536166654d6174683a207375627472616374696f6e206f766572666c6f770000815250611500565b905092915050565b60008383111582906115ad576040517f08c379a00000000000000000000000000000000000000000000000000000000081526004018080602001828103825283818151815260200191508051906020019080838360005b83811015611572578082015181840152602081019050611557565b50505050905090810190601f16801561159f5780820380516001836020036101000a031916815260200191505b509250505060405180910390fd5b5060008385039050809150509392505050565b6040518060a00160405280600073ffffffffffffffffffffffffffffffffffffffff1681526020016000815260200160008152602001600081526020016000151581525090565b81548183558181111561162e5781836000526020600020918201910161162d9190611633565b5b505050565b61165591905b80821115611651576000816000905550600101611639565b5090565b9056fe4f776e61626c653a206e6577206f776e657220697320746865207a65726f2061646472657373a265627a7a723158202c3ac80532ece6246640687012609b20a1a69c14f39c229c52f4a7de1a37063664736f6c63430005100032",
  "source": "pragma solidity 0.5.16;\n\nimport \"./utils/Ownable.sol\";\nimport \"./TigerCore.sol\";\n\n/**\n * @title The MarketPlace contract.\n * @author Andrew Ayson\n * @dev It takes ownership of the tiger for the duration that it is on the marketplace\n */\ncontract MarketPlace is Ownable {\n    using SafeMath for uint256;\n\n    struct Offer {\n        address payable seller;\n        uint256 price;\n        uint256 index;\n        uint256 tokenId;\n        bool active;\n    }\n\n    event MarketTransaction(string TxType, address owner, uint256 tokenId);\n    \n    TigerCore private _tigerContract;\n    uint256[] private _offeredTokenIds;\n    mapping(uint256 => Offer) private _tokenIdToOffer;\n\n    /**\n     * @notice Set the current TigerContract address and initialize the instance of TigerContract.\n     * @dev Requirement: Only the contract owner can call.\n     * @param _tigerContractAddress the address of the TigerCore contract to interact with\n     */\n    function setTigerCoreContract(address _tigerContractAddress)\n        public\n        onlyOwner\n    {\n        _tigerContract = TigerCore(_tigerContractAddress);\n    }\n\n    constructor(address _tigerContractAddress) public {\n        setTigerCoreContract(_tigerContractAddress);\n    }\n\n    /**\n     * @notice Get the details about a offer for _tokenId. Throws an error if there is no active offer for _tokenId.\n     * @param _tokenId the id of the token to get the offer from\n     * @return the offer\n     */\n    function getOffer(uint256 _tokenId)\n        external\n        view\n        returns (\n            address seller,\n            uint256 price,\n            uint256 index,\n            uint256 tokenId,\n            bool active\n        )\n    {\n        Offer storage offer = _tokenIdToOffer[_tokenId];\n        return (\n            offer.seller,\n            offer.price,\n            offer.index,\n            offer.tokenId,\n            offer.active\n        );\n    }\n\n    /**\n     * @notice Get all tigers that are on sale\n     * @return all tokenId's that are currently for sale. Returns an empty arror if none exist\n     */\n    function getAllTokenOnSale()\n        external\n        view\n        returns (uint256[] memory listOfOffers)\n    {\n        return _offeredTokenIds;\n    }\n\n    /**\n     * @dev checks if an address owns a tiger\n     * @param _address the address to check the ownership of\n     * @param _tokenId the id of the tiger to check\n     * @return True if the address owns the tiger, false otherwise\n     */\n    function _ownsTiger(address _address, uint256 _tokenId)\n        internal\n        view\n        returns (bool)\n    {\n        return (_tigerContract.ownerOf(_tokenId) == _address);\n    }\n\n    /**\n     * @notice Creates a new offer for _tokenId for the price _price.\n     * @dev Requirements:\n     * Only the owner of _tokenId can create an offer.\n     * There can only be one active offer for a token at a time.\n     * Marketplace contract (this) needs to be an approved operator when the offer is created.\n     * @param _price the price of the new offer\n     * @param _tokenId the id of the tiger\n     */\n    function setOffer(uint256 _price, uint256 _tokenId) external {\n        require(_ownsTiger(msg.sender, _tokenId), \"Not the owner\");\n        require(_tokenIdToOffer[_tokenId].price == 0 , \"Already offered\");\n\n        require(\n            _tigerContract.isApprovedForAll(msg.sender, address(this)),\n            \"Marketplace needs approval\"\n        );\n\n        Offer memory _offer = Offer({\n            seller: msg.sender,\n            price: _price,\n            active: true,\n            tokenId: _tokenId,\n            index: _offeredTokenIds.length\n        });\n\n        _tokenIdToOffer[_tokenId] = _offer;\n        _offeredTokenIds.push(_tokenId);\n\n        emit MarketTransaction(\"Create offer\", msg.sender, _tokenId);\n    }\n\n    /**\n     * @dev In order to easily requests all _offeredTokenIds, we need to track an array of all the _offeredTokenIds,\n     * this needs to be updated on removal. For this we will swap the last element with the current element, \n     * and update the corresponding index in the struct.\n     * Note that this is only needed in order to easily request all active _offeredTokenIds as an array\n     * Inspired by https://github.com/OpenZeppelin/openzeppelin-contracts/blob/04a1b21874e02fd3027172bf208d9658b886b658/contracts/token/ERC721/ERC721Enumerable.sol\n     * @dev Requirement: Only the seller of _tokenId can remove an offer.\n     * @param _tokenId the id of the tiger of which its offer needs to remove\n     */\n    function _removeOffer(uint256 _tokenId) private {\n        // Remove from array: move the last token to the current token position\n        uint256 lastTokenIndex = _offeredTokenIds.length.sub(1);\n        uint256 tokenIndex = _tokenIdToOffer[_tokenId].index;\n        uint256 lastTokenId = _offeredTokenIds[lastTokenIndex];\n\n        _offeredTokenIds[tokenIndex] = lastTokenId; // Move the last token to the slot of the to-delete token\n        _tokenIdToOffer[lastTokenId].index = tokenIndex; // Update the moved token's index\n\n        // This also deletes the contents at the last position of the array\n        _offeredTokenIds.length--;\n        _tokenIdToOffer[_tokenId].index = 0;\n        \n        // Remove from mapping\n        delete _tokenIdToOffer[_tokenId];\n    }\n\n    /**\n     * @notice Removes an existing offer.\n     * @dev see _removeOffer\n     */\n    function removeOffer(uint256 _tokenId) external {\n        Offer memory offer = _tokenIdToOffer[_tokenId];\n        require(offer.seller == msg.sender, \"Not the owner\");\n\n        _removeOffer(_tokenId);\n\n        emit MarketTransaction(\"Remove offer\", msg.sender, _tokenId);\n    }\n\n    /**\n     * @notice Executes the purchase of _tokenId.\n     * Sends the funds to the seller and transfers the token using transferFrom in TigerContract.\n     * @dev Requirement:\n     * The msg.value needs to equal the price of _tokenId\n     * There must be an active offer for _tokenId\n     */\n    function buyTiger(uint256 _tokenId) external payable {\n        Offer memory offer = _tokenIdToOffer[_tokenId];\n        require(offer.price > 0, \"No active offer\");\n        require(msg.value == offer.price, \"The price is incorrect\");\n\n        // Important: delete the tiger from the mapping BEFORE paying out to prevent reentry attacks\n        _removeOffer(_tokenId);\n\n        // Transfer the funds to the seller\n        // TODO: make this logic pull instead of push\n        if (offer.price > 0) {\n            offer.seller.transfer(offer.price);\n        }\n\n        // Transfer ownership of the tiger\n        _tigerContract.transferFrom(offer.seller, msg.sender, _tokenId);\n\n        emit MarketTransaction(\"Buy\", msg.sender, _tokenId);\n    }\n}\n",
  "sourcePath": "/Users/bananaQ/Documents/own_projects/business/crypto_tigers/backend/contracts/MarketPlace.sol",
  "compiler": {
    "name": "solc",
    "version": "0.5.16+commit.9c3226ce.Emscripten.clang"
  },
  "schemaVersion": "3.4.3",
  "updatedAt": "2021-12-24T19:13:56.902Z",
  "networkType": "ethereum",
  "devdoc": {
    "author": "Andrew Ayson",
    "details": "It takes ownership of the tiger for the duration that it is on the marketplace",
    "methods": {
      "buyTiger(uint256)": {
        "details": "Requirement: The msg.value needs to equal the price of _tokenId There must be an active offer for _tokenId"
      },
      "getAllTokenOnSale()": {
        "return": "all tokenId's that are currently for sale. Returns an empty arror if none exist"
      },
      "getOffer(uint256)": {
        "params": {
          "_tokenId": "the id of the token to get the offer from"
        },
        "return": "the offer"
      },
      "isOwner()": {
        "details": "Returns true if the caller is the current owner."
      },
      "owner()": {
        "details": "Returns the address of the current owner."
      },
      "removeOffer(uint256)": {
        "details": "see _removeOffer"
      },
      "renounceOwnership()": {
        "details": "Leaves the contract without owner. It will not be possible to call `onlyOwner` functions anymore. Can only be called by the current owner.     * NOTE: Renouncing ownership will leave the contract without an owner, thereby removing any functionality that is only available to the owner."
      },
      "setOffer(uint256,uint256)": {
        "details": "Requirements: Only the owner of _tokenId can create an offer. There can only be one active offer for a token at a time. Marketplace contract (this) needs to be an approved operator when the offer is created.",
        "params": {
          "_price": "the price of the new offer",
          "_tokenId": "the id of the tiger"
        }
      },
      "setTigerCoreContract(address)": {
        "details": "Requirement: Only the contract owner can call.",
        "params": {
          "_tigerContractAddress": "the address of the TigerCore contract to interact with"
        }
      },
      "transferOwnership(address)": {
        "details": "Transfers ownership of the contract to a new account (`newOwner`). Can only be called by the current owner."
      }
    },
    "title": "The MarketPlace contract."
  },
  "userdoc": {
    "methods": {
      "buyTiger(uint256)": {
        "notice": "Executes the purchase of _tokenId. Sends the funds to the seller and transfers the token using transferFrom in TigerContract."
      },
      "getAllTokenOnSale()": {
        "notice": "Get all tigers that are on sale"
      },
      "getOffer(uint256)": {
        "notice": "Get the details about a offer for _tokenId. Throws an error if there is no active offer for _tokenId."
      },
      "removeOffer(uint256)": {
        "notice": "Removes an existing offer."
      },
      "setOffer(uint256,uint256)": {
        "notice": "Creates a new offer for _tokenId for the price _price."
      },
      "setTigerCoreContract(address)": {
        "notice": "Set the current TigerContract address and initialize the instance of TigerContract."
      }
    }
  }
}