{
    "contractName": "TigerBreeding",
    "abi": [
        {
            "anonymous": false,
            "inputs": [
                {
                    "indexed": true,
                    "internalType": "address",
                    "name": "owner",
                    "type": "address"
                },
                {
                    "indexed": true,
                    "internalType": "address",
                    "name": "approved",
                    "type": "address"
                },
                {
                    "indexed": true,
                    "internalType": "uint256",
                    "name": "tokenId",
                    "type": "uint256"
                }
            ],
            "name": "Approval",
            "type": "event"
        },
        {
            "anonymous": false,
            "inputs": [
                {
                    "indexed": true,
                    "internalType": "address",
                    "name": "owner",
                    "type": "address"
                },
                {
                    "indexed": true,
                    "internalType": "address",
                    "name": "operator",
                    "type": "address"
                },
                {
                    "indexed": false,
                    "internalType": "bool",
                    "name": "approved",
                    "type": "bool"
                }
            ],
            "name": "ApprovalForAll",
            "type": "event"
        },
        {
            "anonymous": false,
            "inputs": [
                {
                    "indexed": false,
                    "internalType": "address",
                    "name": "owner",
                    "type": "address"
                },
                {
                    "indexed": false,
                    "internalType": "uint256",
                    "name": "tigerId",
                    "type": "uint256"
                },
                {
                    "indexed": false,
                    "internalType": "uint256",
                    "name": "momId",
                    "type": "uint256"
                },
                {
                    "indexed": false,
                    "internalType": "uint256",
                    "name": "dadId",
                    "type": "uint256"
                },
                {
                    "indexed": false,
                    "internalType": "uint256",
                    "name": "genes",
                    "type": "uint256"
                }
            ],
            "name": "Birth",
            "type": "event"
        },
        {
            "anonymous": false,
            "inputs": [
                {
                    "indexed": true,
                    "internalType": "address",
                    "name": "previousOwner",
                    "type": "address"
                },
                {
                    "indexed": true,
                    "internalType": "address",
                    "name": "newOwner",
                    "type": "address"
                }
            ],
            "name": "OwnershipTransferred",
            "type": "event"
        },
        {
            "anonymous": false,
            "inputs": [
                {
                    "indexed": true,
                    "internalType": "address",
                    "name": "from",
                    "type": "address"
                },
                {
                    "indexed": true,
                    "internalType": "address",
                    "name": "to",
                    "type": "address"
                },
                {
                    "indexed": true,
                    "internalType": "uint256",
                    "name": "tokenId",
                    "type": "uint256"
                }
            ],
            "name": "Transfer",
            "type": "event"
        },
        {
            "constant": false,
            "inputs": [
                {
                    "internalType": "address",
                    "name": "_to",
                    "type": "address"
                },
                {
                    "internalType": "uint256",
                    "name": "_tigerId",
                    "type": "uint256"
                }
            ],
            "name": "approve",
            "outputs": [],
            "payable": false,
            "stateMutability": "nonpayable",
            "type": "function"
        },
        {
            "constant": true,
            "inputs": [
                {
                    "internalType": "address",
                    "name": "_owner",
                    "type": "address"
                }
            ],
            "name": "balanceOf",
            "outputs": [
                {
                    "internalType": "uint256",
                    "name": "",
                    "type": "uint256"
                }
            ],
            "payable": false,
            "stateMutability": "view",
            "type": "function"
        },
        {
            "constant": true,
            "inputs": [
                {
                    "internalType": "uint256",
                    "name": "_tigerId",
                    "type": "uint256"
                }
            ],
            "name": "getApproved",
            "outputs": [
                {
                    "internalType": "address",
                    "name": "",
                    "type": "address"
                }
            ],
            "payable": false,
            "stateMutability": "view",
            "type": "function"
        },
        {
            "constant": true,
            "inputs": [
                {
                    "internalType": "address",
                    "name": "_owner",
                    "type": "address"
                },
                {
                    "internalType": "address",
                    "name": "_operator",
                    "type": "address"
                }
            ],
            "name": "isApprovedForAll",
            "outputs": [
                {
                    "internalType": "bool",
                    "name": "",
                    "type": "bool"
                }
            ],
            "payable": false,
            "stateMutability": "view",
            "type": "function"
        },
        {
            "constant": true,
            "inputs": [],
            "name": "isOwner",
            "outputs": [
                {
                    "internalType": "bool",
                    "name": "",
                    "type": "bool"
                }
            ],
            "payable": false,
            "stateMutability": "view",
            "type": "function"
        },
        {
            "constant": true,
            "inputs": [],
            "name": "name",
            "outputs": [
                {
                    "internalType": "string",
                    "name": "",
                    "type": "string"
                }
            ],
            "payable": false,
            "stateMutability": "view",
            "type": "function"
        },
        {
            "constant": true,
            "inputs": [],
            "name": "owner",
            "outputs": [
                {
                    "internalType": "address",
                    "name": "",
                    "type": "address"
                }
            ],
            "payable": false,
            "stateMutability": "view",
            "type": "function"
        },
        {
            "constant": true,
            "inputs": [
                {
                    "internalType": "uint256",
                    "name": "_tigerId",
                    "type": "uint256"
                }
            ],
            "name": "ownerOf",
            "outputs": [
                {
                    "internalType": "address",
                    "name": "",
                    "type": "address"
                }
            ],
            "payable": false,
            "stateMutability": "view",
            "type": "function"
        },
        {
            "constant": false,
            "inputs": [],
            "name": "renounceOwnership",
            "outputs": [],
            "payable": false,
            "stateMutability": "nonpayable",
            "type": "function"
        },
        {
            "constant": false,
            "inputs": [
                {
                    "internalType": "address",
                    "name": "_from",
                    "type": "address"
                },
                {
                    "internalType": "address",
                    "name": "_to",
                    "type": "address"
                },
                {
                    "internalType": "uint256",
                    "name": "_tigerId",
                    "type": "uint256"
                }
            ],
            "name": "safeTransferFrom",
            "outputs": [],
            "payable": false,
            "stateMutability": "nonpayable",
            "type": "function"
        },
        {
            "constant": false,
            "inputs": [
                {
                    "internalType": "address",
                    "name": "_from",
                    "type": "address"
                },
                {
                    "internalType": "address",
                    "name": "_to",
                    "type": "address"
                },
                {
                    "internalType": "uint256",
                    "name": "_tigerId",
                    "type": "uint256"
                },
                {
                    "internalType": "bytes",
                    "name": "_data",
                    "type": "bytes"
                }
            ],
            "name": "safeTransferFrom",
            "outputs": [],
            "payable": false,
            "stateMutability": "nonpayable",
            "type": "function"
        },
        {
            "constant": false,
            "inputs": [
                {
                    "internalType": "address",
                    "name": "_operator",
                    "type": "address"
                },
                {
                    "internalType": "bool",
                    "name": "_approved",
                    "type": "bool"
                }
            ],
            "name": "setApprovalForAll",
            "outputs": [],
            "payable": false,
            "stateMutability": "nonpayable",
            "type": "function"
        },
        {
            "constant": true,
            "inputs": [
                {
                    "internalType": "bytes4",
                    "name": "_interfaceId",
                    "type": "bytes4"
                }
            ],
            "name": "supportsInterface",
            "outputs": [
                {
                    "internalType": "bool",
                    "name": "",
                    "type": "bool"
                }
            ],
            "payable": false,
            "stateMutability": "view",
            "type": "function"
        },
        {
            "constant": true,
            "inputs": [],
            "name": "symbol",
            "outputs": [
                {
                    "internalType": "string",
                    "name": "",
                    "type": "string"
                }
            ],
            "payable": false,
            "stateMutability": "view",
            "type": "function"
        },
        {
            "constant": true,
            "inputs": [
                {
                    "internalType": "uint256",
                    "name": "_index",
                    "type": "uint256"
                }
            ],
            "name": "tokenByIndex",
            "outputs": [
                {
                    "internalType": "uint256",
                    "name": "",
                    "type": "uint256"
                }
            ],
            "payable": false,
            "stateMutability": "view",
            "type": "function"
        },
        {
            "constant": true,
            "inputs": [
                {
                    "internalType": "address",
                    "name": "_owner",
                    "type": "address"
                },
                {
                    "internalType": "uint256",
                    "name": "_index",
                    "type": "uint256"
                }
            ],
            "name": "tokenOfOwnerByIndex",
            "outputs": [
                {
                    "internalType": "uint256",
                    "name": "",
                    "type": "uint256"
                }
            ],
            "payable": false,
            "stateMutability": "view",
            "type": "function"
        },
        {
            "constant": true,
            "inputs": [
                {
                    "internalType": "address",
                    "name": "_owner",
                    "type": "address"
                }
            ],
            "name": "tokensOfOwner",
            "outputs": [
                {
                    "internalType": "uint256[]",
                    "name": "",
                    "type": "uint256[]"
                }
            ],
            "payable": false,
            "stateMutability": "view",
            "type": "function"
        },
        {
            "constant": true,
            "inputs": [],
            "name": "totalSupply",
            "outputs": [
                {
                    "internalType": "uint256",
                    "name": "",
                    "type": "uint256"
                }
            ],
            "payable": false,
            "stateMutability": "view",
            "type": "function"
        },
        {
            "constant": false,
            "inputs": [
                {
                    "internalType": "address",
                    "name": "_to",
                    "type": "address"
                },
                {
                    "internalType": "uint256",
                    "name": "_tigerId",
                    "type": "uint256"
                }
            ],
            "name": "transfer",
            "outputs": [],
            "payable": false,
            "stateMutability": "nonpayable",
            "type": "function"
        },
        {
            "constant": false,
            "inputs": [
                {
                    "internalType": "address",
                    "name": "_from",
                    "type": "address"
                },
                {
                    "internalType": "address",
                    "name": "_to",
                    "type": "address"
                },
                {
                    "internalType": "uint256",
                    "name": "_tigerId",
                    "type": "uint256"
                }
            ],
            "name": "transferFrom",
            "outputs": [],
            "payable": false,
            "stateMutability": "nonpayable",
            "type": "function"
        },
        {
            "constant": false,
            "inputs": [
                {
                    "internalType": "address",
                    "name": "newOwner",
                    "type": "address"
                }
            ],
            "name": "transferOwnership",
            "outputs": [],
            "payable": false,
            "stateMutability": "nonpayable",
            "type": "function"
        },
        {
            "constant": false,
            "inputs": [
                {
                    "internalType": "uint256",
                    "name": "_momId",
                    "type": "uint256"
                },
                {
                    "internalType": "uint256",
                    "name": "_dadId",
                    "type": "uint256"
                }
            ],
            "name": "breed",
            "outputs": [
                {
                    "internalType": "uint256",
                    "name": "",
                    "type": "uint256"
                }
            ],
            "payable": false,
            "stateMutability": "nonpayable",
            "type": "function"
        },
        {
            "constant": true,
            "inputs": [
                {
                    "internalType": "uint256",
                    "name": "_tigerId",
                    "type": "uint256"
                }
            ],
            "name": "getChildren",
            "outputs": [
                {
                    "internalType": "uint256[]",
                    "name": "",
                    "type": "uint256[]"
                }
            ],
            "payable": false,
            "stateMutability": "view",
            "type": "function"
        }
    ],
    "bytecode": "0x6080604052336000806101000a81548173ffffffffffffffffffffffffffffffffffffffff021916908373ffffffffffffffffffffffffffffffffffffffff1602179055503373ffffffffffffffffffffffffffffffffffffffff16600073ffffffffffffffffffffffffffffffffffffffff167f8be0079c531659141344cd1fd0a4f28419497f9722a3daafe3b4186f6b6457e060405160405180910390a3612b33806100ae6000396000f3fe608060405234801561001057600080fd5b506004361061014d5760003560e01c806370a08231116100c3578063a22cb4651161007c578063a22cb4651461076f578063a9059cbb146107bf578063b88d4fde1461080d578063d9ecad7b14610912578063e985e9c51461095e578063f2fde38b146109da5761014d565b806370a0823114610585578063715018a6146105dd5780638462151c146105e75780638da5cb5b146106805780638f32d59b146106ca57806395d89b41146106ec5761014d565b806323b872dd1161011557806323b872dd146103145780632f745c591461038257806342842e0e146103e457806349ae8dc3146104525780634f6ccce7146104d55780636352211e146105175761014d565b806301ffc9a71461015257806306fdde03146101b7578063081812fc1461023a578063095ea7b3146102a857806318160ddd146102f6575b600080fd5b61019d6004803603602081101561016857600080fd5b8101908080357bffffffffffffffffffffffffffffffffffffffffffffffffffffffff19169060200190929190505050610a1e565b604051808215151515815260200191505060405180910390f35b6101bf610abe565b6040518080602001828103825283818151815260200191508051906020019080838360005b838110156101ff5780820151818401526020810190506101e4565b50505050905090810190601f16801561022c5780820380516001836020036101000a031916815260200191505b509250505060405180910390f35b6102666004803603602081101561025057600080fd5b8101908080359060200190929190505050610af7565b604051808273ffffffffffffffffffffffffffffffffffffffff1673ffffffffffffffffffffffffffffffffffffffff16815260200191505060405180910390f35b6102f4600480360360408110156102be57600080fd5b81019080803573ffffffffffffffffffffffffffffffffffffffff16906020019092919080359060200190929190505050610b92565b005b6102fe610d52565b6040518082815260200191505060405180910390f35b6103806004803603606081101561032a57600080fd5b81019080803573ffffffffffffffffffffffffffffffffffffffff169060200190929190803573ffffffffffffffffffffffffffffffffffffffff16906020019092919080359060200190929190505050610d5f565b005b6103ce6004803603604081101561039857600080fd5b81019080803573ffffffffffffffffffffffffffffffffffffffff16906020019092919080359060200190929190505050610e66565b6040518082815260200191505060405180910390f35b610450600480360360608110156103fa57600080fd5b81019080803573ffffffffffffffffffffffffffffffffffffffff169060200190929190803573ffffffffffffffffffffffffffffffffffffffff16906020019092919080359060200190929190505050610f09565b005b61047e6004803603602081101561046857600080fd5b8101908080359060200190929190505050610f29565b6040518080602001828103825283818151815260200191508051906020019060200280838360005b838110156104c15780820151818401526020810190506104a6565b505050509050019250505060405180910390f35b610501600480360360208110156104eb57600080fd5b8101908080359060200190929190505050610f99565b6040518082815260200191505060405180910390f35b6105436004803603602081101561052d57600080fd5b810190808035906020019092919050505061101f565b604051808273ffffffffffffffffffffffffffffffffffffffff1673ffffffffffffffffffffffffffffffffffffffff16815260200191505060405180910390f35b6105c76004803603602081101561059b57600080fd5b81019080803573ffffffffffffffffffffffffffffffffffffffff1690602001909291905050506110e7565b6040518082815260200191505060405180910390f35b6105e56111b5565b005b610629600480360360208110156105fd57600080fd5b81019080803573ffffffffffffffffffffffffffffffffffffffff1690602001909291905050506112ee565b6040518080602001828103825283818151815260200191508051906020019060200280838360005b8381101561066c578082015181840152602081019050610651565b505050509050019250505060405180910390f35b6106886114d8565b604051808273ffffffffffffffffffffffffffffffffffffffff1673ffffffffffffffffffffffffffffffffffffffff16815260200191505060405180910390f35b6106d2611501565b604051808215151515815260200191505060405180910390f35b6106f4611558565b6040518080602001828103825283818151815260200191508051906020019080838360005b83811015610734578082015181840152602081019050610719565b50505050905090810190601f1680156107615780820380516001836020036101000a031916815260200191505b509250505060405180910390f35b6107bd6004803603604081101561078557600080fd5b81019080803573ffffffffffffffffffffffffffffffffffffffff169060200190929190803515159060200190929190505050611591565b005b61080b600480360360408110156107d557600080fd5b81019080803573ffffffffffffffffffffffffffffffffffffffff16906020019092919080359060200190929190505050611734565b005b6109106004803603608081101561082357600080fd5b81019080803573ffffffffffffffffffffffffffffffffffffffff169060200190929190803573ffffffffffffffffffffffffffffffffffffffff169060200190929190803590602001909291908035906020019064010000000081111561088a57600080fd5b82018360208201111561089c57600080fd5b803590602001918460018302840111640100000000831117156108be57600080fd5b91908080601f016020809104026020016040519081016040528093929190818152602001838380828437600081840152601f19601f820116905080830192505050505050509192919290505050611743565b005b6109486004803603604081101561092857600080fd5b81019080803590602001909291908035906020019092919050505061184c565b6040518082815260200191505060405180910390f35b6109c06004803603604081101561097457600080fd5b81019080803573ffffffffffffffffffffffffffffffffffffffff169060200190929190803573ffffffffffffffffffffffffffffffffffffffff169060200190929190505050611af6565b604051808215151515815260200191505060405180910390f35b610a1c600480360360208110156109f057600080fd5b81019080803573ffffffffffffffffffffffffffffffffffffffff169060200190929190505050611b8a565b005b60006380ac58cd60e01b7bffffffffffffffffffffffffffffffffffffffffffffffffffffffff1916827bffffffffffffffffffffffffffffffffffffffffffffffffffffffff19161480610ab757506301ffc9a760e01b7bffffffffffffffffffffffffffffffffffffffffffffffffffffffff1916827bffffffffffffffffffffffffffffffffffffffffffffffffffffffff1916145b9050919050565b6040518060400160405280600d81526020017f43727970746f4b6974746965730000000000000000000000000000000000000081525081565b6000610b0282611c10565b610b57576040517f08c379a0000000000000000000000000000000000000000000000000000000008152600401808060200182810382526024815260200180612a216024913960400191505060405180910390fd5b6003600083815260200190815260200160002060009054906101000a900473ffffffffffffffffffffffffffffffffffffffff169050919050565b6000610b9d8261101f565b90508073ffffffffffffffffffffffffffffffffffffffff168373ffffffffffffffffffffffffffffffffffffffff161415610c41576040517f08c379a00000000000000000000000000000000000000000000000000000000081526004018080602001828103825260198152602001807f617070726f76616c20746f2063757272656e74206f776e65720000000000000081525060200191505060405180910390fd5b610c4b3383611c82565b610ca0576040517f08c379a0000000000000000000000000000000000000000000000000000000008152600401808060200182810382526030815260200180612a666030913960400191505060405180910390fd5b826003600084815260200190815260200160002060006101000a81548173ffffffffffffffffffffffffffffffffffffffff021916908373ffffffffffffffffffffffffffffffffffffffff160217905550818373ffffffffffffffffffffffffffffffffffffffff168273ffffffffffffffffffffffffffffffffffffffff167f8c5be1e5ebec7d5bd14f71427d1e84f3dd0314c0f7b2291e5b200ac8c7c3b92560405160405180910390a4505050565b6000600180549050905090565b610d6881611c10565b610dda576040517f08c379a00000000000000000000000000000000000000000000000000000000081526004018080602001828103825260118152602001807f6e6f6e6578697374656e7420746f6b656e00000000000000000000000000000081525060200191505060405180910390fd5b610de43382611cc3565b610e56576040517f08c379a000000000000000000000000000000000000000000000000000000000815260040180806020018281038252600e8152602001807f6e6f7420617574686f72697a656400000000000000000000000000000000000081525060200191505060405180910390fd5b610e61838383611d58565b505050565b6000610e71836110e7565b8210610ee5576040517f08c379a00000000000000000000000000000000000000000000000000000000081526004018080602001828103825260138152602001807f696e646578206f7574206f6620626f756e64730000000000000000000000000081525060200191505060405180910390fd5b610eee836112ee565b8281518110610ef957fe5b6020026020010151905092915050565b610f2483838360405180602001604052806000815250611743565b505050565b60608060056000848152602001908152602001600020805480602002602001604051908101604052809291908181526020018280548015610f8957602002820191906000526020600020905b815481526020019060010190808311610f75575b5050505050905080915050919050565b6000610fa3610d52565b8210611017576040517f08c379a00000000000000000000000000000000000000000000000000000000081526004018080602001828103825260138152602001807f696e646578206f7574206f6620626f756e64730000000000000000000000000081525060200191505060405180910390fd5b819050919050565b6000806002600084815260200190815260200160002060009054906101000a900473ffffffffffffffffffffffffffffffffffffffff169050600073ffffffffffffffffffffffffffffffffffffffff168173ffffffffffffffffffffffffffffffffffffffff1614156110de576040517f08c379a0000000000000000000000000000000000000000000000000000000008152600401808060200182810382526021815260200180612a456021913960400191505060405180910390fd5b80915050919050565b60008073ffffffffffffffffffffffffffffffffffffffff168273ffffffffffffffffffffffffffffffffffffffff16141561116e576040517f08c379a0000000000000000000000000000000000000000000000000000000008152600401808060200182810382526022815260200180612add6022913960400191505060405180910390fd5b600460008373ffffffffffffffffffffffffffffffffffffffff1673ffffffffffffffffffffffffffffffffffffffff168152602001908152602001600020549050919050565b6111bd611501565b61122f576040517f08c379a00000000000000000000000000000000000000000000000000000000081526004018080602001828103825260208152602001807f4f776e61626c653a2063616c6c6572206973206e6f7420746865206f776e657281525060200191505060405180910390fd5b600073ffffffffffffffffffffffffffffffffffffffff166000809054906101000a900473ffffffffffffffffffffffffffffffffffffffff1673ffffffffffffffffffffffffffffffffffffffff167f8be0079c531659141344cd1fd0a4f28419497f9722a3daafe3b4186f6b6457e060405160405180910390a360008060006101000a81548173ffffffffffffffffffffffffffffffffffffffff021916908373ffffffffffffffffffffffffffffffffffffffff160217905550565b6060600073ffffffffffffffffffffffffffffffffffffffff168273ffffffffffffffffffffffffffffffffffffffff161415611393576040517f08c379a00000000000000000000000000000000000000000000000000000000081526004018080602001828103825260208152602001807f546f6b656e20717565727920666f7220746865207a65726f206164647265737381525060200191505060405180910390fd5b600061139e836110e7565b905060008114156113e25760006040519080825280602002602001820160405280156113d95781602001602082028038833980820191505090505b509150506114d3565b6060816040519080825280602002602001820160405280156114135781602001602082028038833980820191505090505b5090506000611420610d52565b9050600080905060008090505b8281116114ca578673ffffffffffffffffffffffffffffffffffffffff166002600083815260200190815260200160002060009054906101000a900473ffffffffffffffffffffffffffffffffffffffff1673ffffffffffffffffffffffffffffffffffffffff1614156114bd57808483815181106114a857fe5b60200260200101818152505081806001019250505b808060010191505061142d565b83955050505050505b919050565b60008060009054906101000a900473ffffffffffffffffffffffffffffffffffffffff16905090565b60008060009054906101000a900473ffffffffffffffffffffffffffffffffffffffff1673ffffffffffffffffffffffffffffffffffffffff163373ffffffffffffffffffffffffffffffffffffffff1614905090565b6040518060400160405280600381526020017f434154000000000000000000000000000000000000000000000000000000000081525081565b3373ffffffffffffffffffffffffffffffffffffffff168273ffffffffffffffffffffffffffffffffffffffff161415611633576040517f08c379a00000000000000000000000000000000000000000000000000000000081526004018080602001828103825260128152602001807f617070726f76616c20746f2063616c6c6572000000000000000000000000000081525060200191505060405180910390fd5b80600660003373ffffffffffffffffffffffffffffffffffffffff1673ffffffffffffffffffffffffffffffffffffffff16815260200190815260200160002060008473ffffffffffffffffffffffffffffffffffffffff1673ffffffffffffffffffffffffffffffffffffffff16815260200190815260200160002060006101000a81548160ff0219169083151502179055508173ffffffffffffffffffffffffffffffffffffffff163373ffffffffffffffffffffffffffffffffffffffff167f17307eab39ab6107e8899845ad3d59bd9653f200f220920489ca2b5937696c3183604051808215151515815260200191505060405180910390a35050565b61173f338383610f09565b5050565b61174c82611c10565b6117be576040517f08c379a00000000000000000000000000000000000000000000000000000000081526004018080602001828103825260118152602001807f6e6f6e6578697374656e7420746f6b656e00000000000000000000000000000081525060200191505060405180910390fd5b6117c83383611cc3565b61183a576040517f08c379a000000000000000000000000000000000000000000000000000000000815260040180806020018281038252600e8152602001807f6e6f7420617574686f72697a656400000000000000000000000000000000000081525060200191505060405180910390fd5b6118468484848461207d565b50505050565b60006118583384611c82565b6118ca576040517f08c379a000000000000000000000000000000000000000000000000000000000815260040180806020018281038252600d8152602001807f4e6f74206f776e206b697474790000000000000000000000000000000000000081525060200191505060405180910390fd5b6118d43383611c82565b611946576040517f08c379a000000000000000000000000000000000000000000000000000000000815260040180806020018281038252600d8152602001807f4e6f74206f776e206b697474790000000000000000000000000000000000000081525060200191505060405180910390fd5b818314156119bc576040517f08c379a00000000000000000000000000000000000000000000000000000000081526004018080602001828103825260108152602001807f4c657473206e6f7420646f20746869730000000000000000000000000000000081525060200191505060405180910390fd5b6000600184815481106119cb57fe5b906000526020600020906002020190506000600184815481106119ea57fe5b906000526020600020906002020190506000611a0e8360000154836000015461210c565b90506000611a5b6001611a4d8660010160109054906101000a900461ffff1661ffff168660010160109054906101000a900461ffff1661ffff1661226c565b61228690919063ffffffff16565b90506000611a6c888884863361230e565b90506005600088815260200190815260200160002081908060018154018082558091505090600182039060005260206000200160009091929091909150555060056000898152602001908152602001600020819080600181540180825580915050906001820390600052602060002001600090919290919091505550809550505050505092915050565b6000600660008473ffffffffffffffffffffffffffffffffffffffff1673ffffffffffffffffffffffffffffffffffffffff16815260200190815260200160002060008373ffffffffffffffffffffffffffffffffffffffff1673ffffffffffffffffffffffffffffffffffffffff16815260200190815260200160002060009054906101000a900460ff16905092915050565b611b92611501565b611c04576040517f08c379a00000000000000000000000000000000000000000000000000000000081526004018080602001828103825260208152602001807f4f776e61626c653a2063616c6c6572206973206e6f7420746865206f776e657281525060200191505060405180910390fd5b611c0d816124e8565b50565b6000806002600084815260200190815260200160002060009054906101000a900473ffffffffffffffffffffffffffffffffffffffff169050600073ffffffffffffffffffffffffffffffffffffffff168173ffffffffffffffffffffffffffffffffffffffff161415915050919050565b60008273ffffffffffffffffffffffffffffffffffffffff16611ca48361101f565b73ffffffffffffffffffffffffffffffffffffffff1614905092915050565b600080611ccf8361101f565b90508073ffffffffffffffffffffffffffffffffffffffff168473ffffffffffffffffffffffffffffffffffffffff161480611d3e57508373ffffffffffffffffffffffffffffffffffffffff16611d2684610af7565b73ffffffffffffffffffffffffffffffffffffffff16145b80611d4f5750611d4e8185611af6565b5b91505092915050565b600073ffffffffffffffffffffffffffffffffffffffff168273ffffffffffffffffffffffffffffffffffffffff161415611dfb576040517f08c379a000000000000000000000000000000000000000000000000000000000815260040180806020018281038252601c8152602001807f7472616e7366657220746f20746865207a65726f20616464726573730000000081525060200191505060405180910390fd5b3073ffffffffffffffffffffffffffffffffffffffff168273ffffffffffffffffffffffffffffffffffffffff161415611e3457600080fd5b611e876001600460008573ffffffffffffffffffffffffffffffffffffffff1673ffffffffffffffffffffffffffffffffffffffff1681526020019081526020016000205461228690919063ffffffff16565b600460008473ffffffffffffffffffffffffffffffffffffffff1673ffffffffffffffffffffffffffffffffffffffff16815260200190815260200160002081905550816002600083815260200190815260200160002060006101000a81548173ffffffffffffffffffffffffffffffffffffffff021916908373ffffffffffffffffffffffffffffffffffffffff160217905550600073ffffffffffffffffffffffffffffffffffffffff168373ffffffffffffffffffffffffffffffffffffffff161461201d57611fa36001600460008673ffffffffffffffffffffffffffffffffffffffff1673ffffffffffffffffffffffffffffffffffffffff1681526020019081526020016000205461262c90919063ffffffff16565b600460008573ffffffffffffffffffffffffffffffffffffffff1673ffffffffffffffffffffffffffffffffffffffff168152602001908152602001600020819055506003600082815260200190815260200160002060006101000a81549073ffffffffffffffffffffffffffffffffffffffff02191690555b808273ffffffffffffffffffffffffffffffffffffffff168473ffffffffffffffffffffffffffffffffffffffff167fddf252ad1be2c89b69c2b068fc378daa952ba7f163c4a11628f55a4df523b3ef60405160405180910390a4505050565b612088848484611d58565b61209484848484612676565b612106576040517f08c379a000000000000000000000000000000000000000000000000000000000815260040180806020018281038252601e8152602001807f7472616e7366657220746f206e6f6e204552433732315265636569766572000081525060200191505060405180910390fd5b50505050565b60006121166129b4565b6000612120612849565b90506000600790506000600190505b608081116121c1576000818460ff16161461216f576064878161214e57fe5b0660ff16848360ff166008811061216157fe5b602002018181525050612196565b6064868161217957fe5b0660ff16848360ff166008811061218c57fe5b6020020181815250505b606487816121a057fe5b049650606486816121ad57fe5b04955060018203915060028102905061212f565b50600060078360ff16816121d157fe5b06905060638360ff16816121e157fe5b0660ff16848260ff16600881106121f457fe5b602002018181525050600080600090505b600881101561225d5761223186826008811061221d57fe5b60200201518361228690919063ffffffff16565b9150600781146122525761224f60648361285b90919063ffffffff16565b91505b600181019050612205565b50809550505050505092915050565b60008183101561227c578161227e565b825b905092915050565b600080828401905083811015612304576040517f08c379a000000000000000000000000000000000000000000000000000000000815260040180806020018281038252601b8152602001807f536166654d6174683a206164646974696f6e206f766572666c6f77000000000081525060200191505060405180910390fd5b8091505092915050565b60006123186129d7565b6040518060a001604052808581526020014267ffffffffffffffff1681526020018863ffffffff1681526020018763ffffffff1681526020018661ffff168152509050600061244960018084908060018154018082558091505090600182039060005260206000209060020201600090919290919091506000820151816000015560208201518160010160006101000a81548167ffffffffffffffff021916908367ffffffffffffffff16021790555060408201518160010160086101000a81548163ffffffff021916908363ffffffff160217905550606082015181600101600c6101000a81548163ffffffff021916908363ffffffff16021790555060808201518160010160106101000a81548161ffff021916908361ffff160217905550505061262c90919063ffffffff16565b90507f0a5311bd2a6608f08a180df2ee7c5946819a649b204b554bb8e39825b2c50ad584828a8a89604051808673ffffffffffffffffffffffffffffffffffffffff1673ffffffffffffffffffffffffffffffffffffffff1681526020018581526020018481526020018381526020018281526020019550505050505060405180910390a16124da60008583611d58565b809250505095945050505050565b600073ffffffffffffffffffffffffffffffffffffffff168173ffffffffffffffffffffffffffffffffffffffff16141561256e576040517f08c379a0000000000000000000000000000000000000000000000000000000008152600401808060200182810382526026815260200180612a966026913960400191505060405180910390fd5b8073ffffffffffffffffffffffffffffffffffffffff166000809054906101000a900473ffffffffffffffffffffffffffffffffffffffff1673ffffffffffffffffffffffffffffffffffffffff167f8be0079c531659141344cd1fd0a4f28419497f9722a3daafe3b4186f6b6457e060405160405180910390a3806000806101000a81548173ffffffffffffffffffffffffffffffffffffffff021916908373ffffffffffffffffffffffffffffffffffffffff16021790555050565b600061266e83836040518060400160405280601e81526020017f536166654d6174683a207375627472616374696f6e206f766572666c6f7700008152506128e1565b905092915050565b6000612681846129a1565b61268e5760019050612841565b60008473ffffffffffffffffffffffffffffffffffffffff1663150b7a02338887876040518563ffffffff1660e01b8152600401808573ffffffffffffffffffffffffffffffffffffffff1673ffffffffffffffffffffffffffffffffffffffff1681526020018473ffffffffffffffffffffffffffffffffffffffff1673ffffffffffffffffffffffffffffffffffffffff16815260200183815260200180602001828103825283818151815260200191508051906020019080838360005b8381101561276957808201518184015260208101905061274e565b50505050905090810190601f1680156127965780820380516001836020036101000a031916815260200191505b5095505050505050602060405180830381600087803b1580156127b857600080fd5b505af11580156127cc573d6000803e3d6000fd5b505050506040513d60208110156127e257600080fd5b8101908080519060200190929190505050905063150b7a0260e01b7bffffffffffffffffffffffffffffffffffffffffffffffffffffffff1916817bffffffffffffffffffffffffffffffffffffffffffffffffffffffff1916149150505b949350505050565b600060ff428161285557fe5b06905090565b60008083141561286e57600090506128db565b600082840290508284828161287f57fe5b04146128d6576040517f08c379a0000000000000000000000000000000000000000000000000000000008152600401808060200182810382526021815260200180612abc6021913960400191505060405180910390fd5b809150505b92915050565b600083831115829061298e576040517f08c379a00000000000000000000000000000000000000000000000000000000081526004018080602001828103825283818151815260200191508051906020019080838360005b83811015612953578082015181840152602081019050612938565b50505050905090810190601f1680156129805780820380516001836020036101000a031916815260200191505b509250505060405180910390fd5b5060008385039050809150509392505050565b600080823b905060008111915050919050565b604051806101000160405280600890602082028038833980820191505090505090565b6040518060a0016040528060008152602001600067ffffffffffffffff168152602001600063ffffffff168152602001600063ffffffff168152602001600061ffff168152509056fe617070726f76656420717565727920666f72206e6f6e6578697374656e74206b697474794f776e657220717565727920666f72206e6f6e6578697374656e74206b69747479617070726f76652063616c6c6572206973206e6f74206f776e6572206e6f7220617070726f76656420666f7220616c6c4f776e61626c653a206e6577206f776e657220697320746865207a65726f2061646472657373536166654d6174683a206d756c7469706c69636174696f6e206f766572666c6f7742616c616e636520717565727920666f7220746865207a65726f2061646472657373a265627a7a72315820431630b569788fa9e8b9cb089b2fdd5199398375a35cfe5830b32fcd415d725a64736f6c63430005100032",
    "source": "pragma solidity 0.5.16;\n\nimport \"./TigerOwnership.sol\";\n\n/**\n * @title The TigerBreeding contract.\n * @author Andrew Ayson\n */\ncontract TigerBreeding is TigerOwnership {\n    /**\n     * @dev Returns a binary between 00000000-11111111\n     */\n    function _getRandom() internal view returns (uint8) {\n        return uint8(now % 255);\n    }\n\n    /**\n     * @dev calculates the max of 2 numbers\n     */\n    function max(uint256 a, uint256 b) internal pure returns (uint256) {\n        return a >= b ? a : b;\n    }\n\n    /**\n     * @dev mix new dna from 2 input dnas\n     */\n    function _mixDna(uint256 _dna1, uint256 _dna2) internal view returns (uint256) {\n      uint256[8] memory _geneArray;\n      uint8 _random = _getRandom();\n      uint8 index = 7;\n\n      // Bitshift: move to next binary bit\n      for (uint256 i = 1; i <= 128; i = i * 2) {\n        // Binary mask with random number\n        // Then add 2 last digits from the dna to the new dna\n        if (_random & i != 0) {\n            _geneArray[index] = uint8(_dna1 % 100);\n        } else {\n            _geneArray[index] = uint8(_dna2 % 100);\n        }\n\n        _dna1 = _dna1 / 100;\n        _dna2 = _dna2 / 100;\n        index = index - 1;\n      }\n\n      // Add a random parameter in a random place\n      uint8 newGeneIndex = _random % 7;\n      _geneArray[newGeneIndex] = _random % 99;\n\n      uint256 newGene;\n\n      for (uint256 i = 0; i < 8; i = i + 1) {\n        newGene = newGene.add(_geneArray[i]);\n\n        if (i != 7) {\n          newGene = newGene.mul(100);\n        }\n      }\n\n      return newGene;\n    }\n\n    /**\n     * @notice Breed a new tiger based on a mom and dad\n     * @param _momId the id of the mom\n     * @param _dadId the id of the dad\n     */\n    function breed(uint256 _momId, uint256 _dadId) public returns (uint256) {\n      require(_owns(msg.sender, _momId), \"Not own tiger\");\n      require(_owns(msg.sender, _dadId), \"Not own tiger\");\n      require(_momId != _dadId, \"Lets not do this\");\n\n      Tiger storage mom = _tigers[_momId];\n      Tiger storage dad = _tigers[_dadId];\n      \n      uint256 _newdna = _mixDna(mom.genes, dad.genes);\n      uint256 _generation = max(mom.generation, dad.generation).add(1);\n\n      uint256 newTigerId = _createTiger(\n        _momId,\n        _dadId,\n        _generation,\n        _newdna,\n        msg.sender\n      );\n\n      _tigerToChildren[_dadId].push(newTigerId);\n      _tigerToChildren[_momId].push(newTigerId);\n\n      return newTigerId;\n    }\n\n    /**\n     * @notice Get all the children of a tigerId\n     * @param _tigerId the id of the mom\n     * @return array of ids of the children\n     */\n    function getChildren(uint _tigerId) view public returns (uint256[] memory) {\n      uint256[] memory children = _tigerToChildren[_tigerId];\n      return children;\n    }\n}\n",
    "sourcePath": "/Users/bananaQ/Documents/own_projects/business/crypto-tigers/eth/contracts/TigerBreeding.sol",
    "compiler": {
        "name": "solc",
        "version": "0.5.16+commit.9c3226ce.Emscripten.clang"
    },
    "schemaVersion": "3.4.3",
    "updatedAt": "2021-12-23T14:23:59.487Z",
    "devdoc": {
        "author": "Andrew Ayson",
        "methods": {
            "approve(address,uint256)": {
                "details": "[ERC721] The zero address indicates there is no approved address Requires - msg.sender is owner or approved opperator - cannot approve owner",
                "params": {
                    "_tigerId": "The tiger id that is approved for",
                    "_to": "The address."
                }
            },
            "balanceOf(address)": {
                "details": "[ERC721] Tigers assigned to the zero address are considered invalid, and this function throws for queries about the zero address",
                "params": {
                    "_owner": "The address to check"
                },
                "return": "The address of the owner of the tiger"
            },
            "breed(uint256,uint256)": {
                "params": {
                    "_dadId": "the id of the dad",
                    "_momId": "the id of the mom"
                }
            },
            "getApproved(uint256)": {
                "details": "[ERC721] Get the approval address of the tiger Requires - _tigerId must exist",
                "params": {
                    "_tigerId": "The tiger id"
                },
                "return": "The approved address for this tiger, or the zero address if there is none"
            },
            "getChildren(uint256)": {
                "params": {
                    "_tigerId": "the id of the mom"
                },
                "return": "array of ids of the children"
            },
            "isApprovedForAll(address,address)": {
                "details": "[ERC721]",
                "params": {
                    "_operator": "The operator",
                    "_owner": "The owner"
                },
                "return": "True if `_operator` is an approved operator for `_owner`, false otherwise"
            },
            "isOwner()": {
                "details": "Returns true if the caller is the current owner."
            },
            "owner()": {
                "details": "Returns the address of the current owner."
            },
            "ownerOf(uint256)": {
                "details": "[ERC721] Tigers assigned to the zero address are considered invalid, and this function throws for queries about the zero address",
                "return": "the address of the onwer of _tigerId"
            },
            "renounceOwnership()": {
                "details": "Leaves the contract without owner. It will not be possible to call `onlyOwner` functions anymore. Can only be called by the current owner.     * NOTE: Renouncing ownership will leave the contract without an owner, thereby removing any functionality that is only available to the owner."
            },
            "safeTransferFrom(address,address,uint256)": {
                "details": "[ERC721] Transfer implementation with a check on caller if it can accept ERC721 Requires - valid token - valid, non-zero _to address (via _transfer) - not to this address to prevent potential misuse (via _transfer) - msg.sender to be the owner, approved, or operator - when the caller is a smart contract, it should accept ERC721 tokens",
                "params": {
                    "_from": "current owner of the tiger",
                    "_tigerId": "uint256 id of the tiger to be transferred",
                    "_to": "address to receive the ownership of the given tiger id"
                }
            },
            "safeTransferFrom(address,address,uint256,bytes)": {
                "details": "[ERC721] This works identically to the other function with an extra data parameter except this function just sets data to \"\"",
                "params": {
                    "_data": "bytes data to send along with a safe transfer check",
                    "_from": "current owner of the tiger",
                    "_tigerId": "The id of the tiger to be transferred",
                    "_to": "address to receive the ownership of the given tiger id"
                }
            },
            "setApprovalForAll(address,bool)": {
                "details": "[ERC721] Emits the ApprovalForAll event. Requires - cannot approve self",
                "params": {
                    "_approved": "The approval status",
                    "_operator": "The tiger id"
                }
            },
            "supportsInterface(bytes4)": {
                "details": "Interface identification is specified in ERC-165. This function uses less than 30,000 gas.",
                "params": {
                    "_interfaceId": "The interface identifier, as specified in ERC-165"
                },
                "return": "true if the contract implements _interfaceId and _interfaceId is not 0xffffffff, false otherwise"
            },
            "tokenByIndex(uint256)": {
                "details": "[ERC721Enumerable] Requires: - _index < totalSupply()",
                "params": {
                    "_index": "A counter less than `totalSupply()`"
                },
                "return": "_index which is the same as the identifier"
            },
            "tokenOfOwnerByIndex(address,uint256)": {
                "details": "Gets the token ID at a given index of the tokens list of the requested owner.Be aware when calling this contract as its quite expensive because it loops through all tigers. Could potentially be optimized if we save all tigers also in an mapping of owners.",
                "params": {
                    "_index": "uint256 representing the index to be accessed of the requested tokens list",
                    "_owner": "address owning the tokens list to be accessed"
                },
                "return": "uint256 token ID at the given index of the tokens list owned by the requested address"
            },
            "tokensOfOwner(address)": {
                "details": "[ERC721Enumerable] Requires - _index < balanceOf(_owner) - _owner is  non-zero addressBe aware when calling this contract as its quite expensive because it loops through all tigers",
                "params": {
                    "_owner": "An address where we are interested in tigers owned by them"
                },
                "return": "The token identifier for the `_index`th tiger assigned to `_owner`,  (sort order not specified)"
            },
            "totalSupply()": {
                "details": "[ERC721Enumerable]",
                "return": "A count of valid tigers tracked by this contract, where each one of them has an assigned and queryable owner not equal to the zero address"
            },
            "transfer(address,uint256)": {
                "params": {
                    "_tigerId": "id of the tiger to be transferred",
                    "_to": "address to receive the ownership of the given tiger id"
                }
            },
            "transferFrom(address,address,uint256)": {
                "details": "[ERC721] Transfers the ownership of a given token id to another address Requires - valid token - valid, non-zero _to address (via _transfer) - not to this address to prevent potential misuse (via _transfer) - msg.sender to be the owner, approved, or operator",
                "params": {
                    "_from": "current owner of the tiger",
                    "_tigerId": "id of the tiger to be transferred",
                    "_to": "address to receive the ownership of the given tiger id"
                }
            },
            "transferOwnership(address)": {
                "details": "Transfers ownership of the contract to a new account (`newOwner`). Can only be called by the current owner."
            }
        },
        "title": "The TigerBreeding contract."
    },
    "userdoc": {
        "methods": {
            "approve(address,uint256)": {
                "notice": "Change or reaffirm the approved address for an tiger"
            },
            "balanceOf(address)": {
                "notice": "Count all Tigers assigned to an owner"
            },
            "breed(uint256,uint256)": {
                "notice": "Breed a new tiger based on a mom and dad"
            },
            "getApproved(uint256)": {
                "notice": "Get the approved address for a single tiger"
            },
            "getChildren(uint256)": {
                "notice": "Get all the children of a tigerId"
            },
            "isApprovedForAll(address,address)": {
                "notice": "Query if an address is an authorized operator for another address"
            },
            "ownerOf(uint256)": {
                "notice": "Find the owner of an Tiger"
            },
            "safeTransferFrom(address,address,uint256)": {
                "notice": "Transfers the ownership of an Tiger from one address to another address"
            },
            "safeTransferFrom(address,address,uint256,bytes)": {
                "notice": "Transfers the ownership of an Tiger from one address to another address"
            },
            "setApprovalForAll(address,bool)": {
                "notice": "Enable or disable approval for a third party (\"operator\") to manage all of `msg.sender`'s assets"
            },
            "supportsInterface(bytes4)": {
                "notice": "Query if a contract implements an interface"
            },
            "tokenByIndex(uint256)": {
                "notice": "Enumerate valid tigers"
            },
            "tokensOfOwner(address)": {
                "notice": "Returns a list of all Tiger IDs assigned to an address."
            },
            "totalSupply()": {
                "notice": "Count tigers tracked by this contract"
            },
            "transfer(address,uint256)": {
                "notice": "Transfers the ownership of an own Tiger to another address"
            },
            "transferFrom(address,address,uint256)": {
                "notice": "Transfer ownership of a Tiger -- THE CALLER IS RESPONSIBLE TO CONFIRM THAT `_to` IS CAPABLE OF RECEIVING TIGERS OR ELSE THEY MAY BE PERMANENTLY LOST"
            }
        }
    }
}