{
    "contractName": "TigerOwnership",
    "abi": [
        {
            "anonymous": false,
            "inputs": [
                {
                    "indexed": true,
                    "internalType": "address",
                    "name": "owner",
                    "type": "address"
                },
                {
                    "indexed": true,
                    "internalType": "address",
                    "name": "approved",
                    "type": "address"
                },
                {
                    "indexed": true,
                    "internalType": "uint256",
                    "name": "tokenId",
                    "type": "uint256"
                }
            ],
            "name": "Approval",
            "type": "event"
        },
        {
            "anonymous": false,
            "inputs": [
                {
                    "indexed": true,
                    "internalType": "address",
                    "name": "owner",
                    "type": "address"
                },
                {
                    "indexed": true,
                    "internalType": "address",
                    "name": "operator",
                    "type": "address"
                },
                {
                    "indexed": false,
                    "internalType": "bool",
                    "name": "approved",
                    "type": "bool"
                }
            ],
            "name": "ApprovalForAll",
            "type": "event"
        },
        {
            "anonymous": false,
            "inputs": [
                {
                    "indexed": false,
                    "internalType": "address",
                    "name": "owner",
                    "type": "address"
                },
                {
                    "indexed": false,
                    "internalType": "uint256",
                    "name": "tigerId",
                    "type": "uint256"
                },
                {
                    "indexed": false,
                    "internalType": "uint256",
                    "name": "momId",
                    "type": "uint256"
                },
                {
                    "indexed": false,
                    "internalType": "uint256",
                    "name": "dadId",
                    "type": "uint256"
                },
                {
                    "indexed": false,
                    "internalType": "uint256",
                    "name": "genes",
                    "type": "uint256"
                }
            ],
            "name": "Birth",
            "type": "event"
        },
        {
            "anonymous": false,
            "inputs": [
                {
                    "indexed": true,
                    "internalType": "address",
                    "name": "previousOwner",
                    "type": "address"
                },
                {
                    "indexed": true,
                    "internalType": "address",
                    "name": "newOwner",
                    "type": "address"
                }
            ],
            "name": "OwnershipTransferred",
            "type": "event"
        },
        {
            "anonymous": false,
            "inputs": [
                {
                    "indexed": true,
                    "internalType": "address",
                    "name": "from",
                    "type": "address"
                },
                {
                    "indexed": true,
                    "internalType": "address",
                    "name": "to",
                    "type": "address"
                },
                {
                    "indexed": true,
                    "internalType": "uint256",
                    "name": "tokenId",
                    "type": "uint256"
                }
            ],
            "name": "Transfer",
            "type": "event"
        },
        {
            "constant": true,
            "inputs": [],
            "name": "isOwner",
            "outputs": [
                {
                    "internalType": "bool",
                    "name": "",
                    "type": "bool"
                }
            ],
            "payable": false,
            "stateMutability": "view",
            "type": "function"
        },
        {
            "constant": true,
            "inputs": [],
            "name": "name",
            "outputs": [
                {
                    "internalType": "string",
                    "name": "",
                    "type": "string"
                }
            ],
            "payable": false,
            "stateMutability": "view",
            "type": "function"
        },
        {
            "constant": true,
            "inputs": [],
            "name": "owner",
            "outputs": [
                {
                    "internalType": "address",
                    "name": "",
                    "type": "address"
                }
            ],
            "payable": false,
            "stateMutability": "view",
            "type": "function"
        },
        {
            "constant": false,
            "inputs": [],
            "name": "renounceOwnership",
            "outputs": [],
            "payable": false,
            "stateMutability": "nonpayable",
            "type": "function"
        },
        {
            "constant": true,
            "inputs": [],
            "name": "symbol",
            "outputs": [
                {
                    "internalType": "string",
                    "name": "",
                    "type": "string"
                }
            ],
            "payable": false,
            "stateMutability": "view",
            "type": "function"
        },
        {
            "constant": false,
            "inputs": [
                {
                    "internalType": "address",
                    "name": "newOwner",
                    "type": "address"
                }
            ],
            "name": "transferOwnership",
            "outputs": [],
            "payable": false,
            "stateMutability": "nonpayable",
            "type": "function"
        },
        {
            "constant": true,
            "inputs": [
                {
                    "internalType": "bytes4",
                    "name": "_interfaceId",
                    "type": "bytes4"
                }
            ],
            "name": "supportsInterface",
            "outputs": [
                {
                    "internalType": "bool",
                    "name": "",
                    "type": "bool"
                }
            ],
            "payable": false,
            "stateMutability": "view",
            "type": "function"
        },
        {
            "constant": true,
            "inputs": [
                {
                    "internalType": "address",
                    "name": "_owner",
                    "type": "address"
                }
            ],
            "name": "balanceOf",
            "outputs": [
                {
                    "internalType": "uint256",
                    "name": "",
                    "type": "uint256"
                }
            ],
            "payable": false,
            "stateMutability": "view",
            "type": "function"
        },
        {
            "constant": true,
            "inputs": [
                {
                    "internalType": "uint256",
                    "name": "_tigerId",
                    "type": "uint256"
                }
            ],
            "name": "ownerOf",
            "outputs": [
                {
                    "internalType": "address",
                    "name": "",
                    "type": "address"
                }
            ],
            "payable": false,
            "stateMutability": "view",
            "type": "function"
        },
        {
            "constant": false,
            "inputs": [
                {
                    "internalType": "address",
                    "name": "_from",
                    "type": "address"
                },
                {
                    "internalType": "address",
                    "name": "_to",
                    "type": "address"
                },
                {
                    "internalType": "uint256",
                    "name": "_tigerId",
                    "type": "uint256"
                }
            ],
            "name": "safeTransferFrom",
            "outputs": [],
            "payable": false,
            "stateMutability": "nonpayable",
            "type": "function"
        },
        {
            "constant": false,
            "inputs": [
                {
                    "internalType": "address",
                    "name": "_from",
                    "type": "address"
                },
                {
                    "internalType": "address",
                    "name": "_to",
                    "type": "address"
                },
                {
                    "internalType": "uint256",
                    "name": "_tigerId",
                    "type": "uint256"
                },
                {
                    "internalType": "bytes",
                    "name": "_data",
                    "type": "bytes"
                }
            ],
            "name": "safeTransferFrom",
            "outputs": [],
            "payable": false,
            "stateMutability": "nonpayable",
            "type": "function"
        },
        {
            "constant": false,
            "inputs": [
                {
                    "internalType": "address",
                    "name": "_from",
                    "type": "address"
                },
                {
                    "internalType": "address",
                    "name": "_to",
                    "type": "address"
                },
                {
                    "internalType": "uint256",
                    "name": "_tigerId",
                    "type": "uint256"
                }
            ],
            "name": "transferFrom",
            "outputs": [],
            "payable": false,
            "stateMutability": "nonpayable",
            "type": "function"
        },
        {
            "constant": false,
            "inputs": [
                {
                    "internalType": "address",
                    "name": "_to",
                    "type": "address"
                },
                {
                    "internalType": "uint256",
                    "name": "_tigerId",
                    "type": "uint256"
                }
            ],
            "name": "transfer",
            "outputs": [],
            "payable": false,
            "stateMutability": "nonpayable",
            "type": "function"
        },
        {
            "constant": false,
            "inputs": [
                {
                    "internalType": "address",
                    "name": "_to",
                    "type": "address"
                },
                {
                    "internalType": "uint256",
                    "name": "_tigerId",
                    "type": "uint256"
                }
            ],
            "name": "approve",
            "outputs": [],
            "payable": false,
            "stateMutability": "nonpayable",
            "type": "function"
        },
        {
            "constant": false,
            "inputs": [
                {
                    "internalType": "address",
                    "name": "_operator",
                    "type": "address"
                },
                {
                    "internalType": "bool",
                    "name": "_approved",
                    "type": "bool"
                }
            ],
            "name": "setApprovalForAll",
            "outputs": [],
            "payable": false,
            "stateMutability": "nonpayable",
            "type": "function"
        },
        {
            "constant": true,
            "inputs": [
                {
                    "internalType": "uint256",
                    "name": "_tigerId",
                    "type": "uint256"
                }
            ],
            "name": "getApproved",
            "outputs": [
                {
                    "internalType": "address",
                    "name": "",
                    "type": "address"
                }
            ],
            "payable": false,
            "stateMutability": "view",
            "type": "function"
        },
        {
            "constant": true,
            "inputs": [
                {
                    "internalType": "address",
                    "name": "_owner",
                    "type": "address"
                },
                {
                    "internalType": "address",
                    "name": "_operator",
                    "type": "address"
                }
            ],
            "name": "isApprovedForAll",
            "outputs": [
                {
                    "internalType": "bool",
                    "name": "",
                    "type": "bool"
                }
            ],
            "payable": false,
            "stateMutability": "view",
            "type": "function"
        },
        {
            "constant": true,
            "inputs": [],
            "name": "totalSupply",
            "outputs": [
                {
                    "internalType": "uint256",
                    "name": "",
                    "type": "uint256"
                }
            ],
            "payable": false,
            "stateMutability": "view",
            "type": "function"
        },
        {
            "constant": true,
            "inputs": [
                {
                    "internalType": "uint256",
                    "name": "_index",
                    "type": "uint256"
                }
            ],
            "name": "tokenByIndex",
            "outputs": [
                {
                    "internalType": "uint256",
                    "name": "",
                    "type": "uint256"
                }
            ],
            "payable": false,
            "stateMutability": "view",
            "type": "function"
        },
        {
            "constant": true,
            "inputs": [
                {
                    "internalType": "address",
                    "name": "_owner",
                    "type": "address"
                }
            ],
            "name": "tokensOfOwner",
            "outputs": [
                {
                    "internalType": "uint256[]",
                    "name": "",
                    "type": "uint256[]"
                }
            ],
            "payable": false,
            "stateMutability": "view",
            "type": "function"
        },
        {
            "constant": true,
            "inputs": [
                {
                    "internalType": "address",
                    "name": "_owner",
                    "type": "address"
                },
                {
                    "internalType": "uint256",
                    "name": "_index",
                    "type": "uint256"
                }
            ],
            "name": "tokenOfOwnerByIndex",
            "outputs": [
                {
                    "internalType": "uint256",
                    "name": "",
                    "type": "uint256"
                }
            ],
            "payable": false,
            "stateMutability": "view",
            "type": "function"
        }
    ],
    "bytecode": "0x6080604052336000806101000a81548173ffffffffffffffffffffffffffffffffffffffff021916908373ffffffffffffffffffffffffffffffffffffffff1602179055503373ffffffffffffffffffffffffffffffffffffffff16600073ffffffffffffffffffffffffffffffffffffffff167f8be0079c531659141344cd1fd0a4f28419497f9722a3daafe3b4186f6b6457e060405160405180910390a36122bb806100ae6000396000f3fe608060405234801561001057600080fd5b50600436106101375760003560e01c806370a08231116100b857806395d89b411161007c57806395d89b4114610653578063a22cb465146106d6578063a9059cbb14610726578063b88d4fde14610774578063e985e9c514610879578063f2fde38b146108f557610137565b806370a08231146104ec578063715018a6146105445780638462151c1461054e5780638da5cb5b146105e75780638f32d59b1461063157610137565b806323b872dd116100ff57806323b872dd146102fe5780632f745c591461036c57806342842e0e146103ce5780634f6ccce71461043c5780636352211e1461047e57610137565b806301ffc9a71461013c57806306fdde03146101a1578063081812fc14610224578063095ea7b31461029257806318160ddd146102e0575b600080fd5b6101876004803603602081101561015257600080fd5b8101908080357bffffffffffffffffffffffffffffffffffffffffffffffffffffffff19169060200190929190505050610939565b604051808215151515815260200191505060405180910390f35b6101a96109d9565b6040518080602001828103825283818151815260200191508051906020019080838360005b838110156101e95780820151818401526020810190506101ce565b50505050905090810190601f1680156102165780820380516001836020036101000a031916815260200191505b509250505060405180910390f35b6102506004803603602081101561023a57600080fd5b8101908080359060200190929190505050610a12565b604051808273ffffffffffffffffffffffffffffffffffffffff1673ffffffffffffffffffffffffffffffffffffffff16815260200191505060405180910390f35b6102de600480360360408110156102a857600080fd5b81019080803573ffffffffffffffffffffffffffffffffffffffff16906020019092919080359060200190929190505050610aad565b005b6102e8610c6d565b6040518082815260200191505060405180910390f35b61036a6004803603606081101561031457600080fd5b81019080803573ffffffffffffffffffffffffffffffffffffffff169060200190929190803573ffffffffffffffffffffffffffffffffffffffff16906020019092919080359060200190929190505050610c7a565b005b6103b86004803603604081101561038257600080fd5b81019080803573ffffffffffffffffffffffffffffffffffffffff16906020019092919080359060200190929190505050610d81565b6040518082815260200191505060405180910390f35b61043a600480360360608110156103e457600080fd5b81019080803573ffffffffffffffffffffffffffffffffffffffff169060200190929190803573ffffffffffffffffffffffffffffffffffffffff16906020019092919080359060200190929190505050610e24565b005b6104686004803603602081101561045257600080fd5b8101908080359060200190929190505050610e44565b6040518082815260200191505060405180910390f35b6104aa6004803603602081101561049457600080fd5b8101908080359060200190929190505050610eca565b604051808273ffffffffffffffffffffffffffffffffffffffff1673ffffffffffffffffffffffffffffffffffffffff16815260200191505060405180910390f35b61052e6004803603602081101561050257600080fd5b81019080803573ffffffffffffffffffffffffffffffffffffffff169060200190929190505050610f92565b6040518082815260200191505060405180910390f35b61054c611060565b005b6105906004803603602081101561056457600080fd5b81019080803573ffffffffffffffffffffffffffffffffffffffff169060200190929190505050611199565b6040518080602001828103825283818151815260200191508051906020019060200280838360005b838110156105d35780820151818401526020810190506105b8565b505050509050019250505060405180910390f35b6105ef611383565b604051808273ffffffffffffffffffffffffffffffffffffffff1673ffffffffffffffffffffffffffffffffffffffff16815260200191505060405180910390f35b6106396113ac565b604051808215151515815260200191505060405180910390f35b61065b611403565b6040518080602001828103825283818151815260200191508051906020019080838360005b8381101561069b578082015181840152602081019050610680565b50505050905090810190601f1680156106c85780820380516001836020036101000a031916815260200191505b509250505060405180910390f35b610724600480360360408110156106ec57600080fd5b81019080803573ffffffffffffffffffffffffffffffffffffffff16906020019092919080351515906020019092919050505061143c565b005b6107726004803603604081101561073c57600080fd5b81019080803573ffffffffffffffffffffffffffffffffffffffff169060200190929190803590602001909291905050506115df565b005b6108776004803603608081101561078a57600080fd5b81019080803573ffffffffffffffffffffffffffffffffffffffff169060200190929190803573ffffffffffffffffffffffffffffffffffffffff16906020019092919080359060200190929190803590602001906401000000008111156107f157600080fd5b82018360208201111561080357600080fd5b8035906020019184600183028401116401000000008311171561082557600080fd5b91908080601f016020809104026020016040519081016040528093929190818152602001838380828437600081840152601f19601f8201169050808301925050505050505091929192905050506115ee565b005b6108db6004803603604081101561088f57600080fd5b81019080803573ffffffffffffffffffffffffffffffffffffffff169060200190929190803573ffffffffffffffffffffffffffffffffffffffff1690602001909291905050506116f7565b604051808215151515815260200191505060405180910390f35b6109376004803603602081101561090b57600080fd5b81019080803573ffffffffffffffffffffffffffffffffffffffff16906020019092919050505061178b565b005b60006380ac58cd60e01b7bffffffffffffffffffffffffffffffffffffffffffffffffffffffff1916827bffffffffffffffffffffffffffffffffffffffffffffffffffffffff191614806109d257506301ffc9a760e01b7bffffffffffffffffffffffffffffffffffffffffffffffffffffffff1916827bffffffffffffffffffffffffffffffffffffffffffffffffffffffff1916145b9050919050565b6040518060400160405280600d81526020017f43727970746f4b6974746965730000000000000000000000000000000000000081525081565b6000610a1d82611811565b610a72576040517f08c379a00000000000000000000000000000000000000000000000000000000081526004018080602001828103825260248152602001806121ca6024913960400191505060405180910390fd5b6003600083815260200190815260200160002060009054906101000a900473ffffffffffffffffffffffffffffffffffffffff169050919050565b6000610ab882610eca565b90508073ffffffffffffffffffffffffffffffffffffffff168373ffffffffffffffffffffffffffffffffffffffff161415610b5c576040517f08c379a00000000000000000000000000000000000000000000000000000000081526004018080602001828103825260198152602001807f617070726f76616c20746f2063757272656e74206f776e65720000000000000081525060200191505060405180910390fd5b610b663383611883565b610bbb576040517f08c379a000000000000000000000000000000000000000000000000000000000815260040180806020018281038252603081526020018061220f6030913960400191505060405180910390fd5b826003600084815260200190815260200160002060006101000a81548173ffffffffffffffffffffffffffffffffffffffff021916908373ffffffffffffffffffffffffffffffffffffffff160217905550818373ffffffffffffffffffffffffffffffffffffffff168273ffffffffffffffffffffffffffffffffffffffff167f8c5be1e5ebec7d5bd14f71427d1e84f3dd0314c0f7b2291e5b200ac8c7c3b92560405160405180910390a4505050565b6000600180549050905090565b610c8381611811565b610cf5576040517f08c379a00000000000000000000000000000000000000000000000000000000081526004018080602001828103825260118152602001807f6e6f6e6578697374656e7420746f6b656e00000000000000000000000000000081525060200191505060405180910390fd5b610cff33826118c4565b610d71576040517f08c379a000000000000000000000000000000000000000000000000000000000815260040180806020018281038252600e8152602001807f6e6f7420617574686f72697a656400000000000000000000000000000000000081525060200191505060405180910390fd5b610d7c838383611959565b505050565b6000610d8c83610f92565b8210610e00576040517f08c379a00000000000000000000000000000000000000000000000000000000081526004018080602001828103825260138152602001807f696e646578206f7574206f6620626f756e64730000000000000000000000000081525060200191505060405180910390fd5b610e0983611199565b8281518110610e1457fe5b6020026020010151905092915050565b610e3f838383604051806020016040528060008152506115ee565b505050565b6000610e4e610c6d565b8210610ec2576040517f08c379a00000000000000000000000000000000000000000000000000000000081526004018080602001828103825260138152602001807f696e646578206f7574206f6620626f756e64730000000000000000000000000081525060200191505060405180910390fd5b819050919050565b6000806002600084815260200190815260200160002060009054906101000a900473ffffffffffffffffffffffffffffffffffffffff169050600073ffffffffffffffffffffffffffffffffffffffff168173ffffffffffffffffffffffffffffffffffffffff161415610f89576040517f08c379a00000000000000000000000000000000000000000000000000000000081526004018080602001828103825260218152602001806121ee6021913960400191505060405180910390fd5b80915050919050565b60008073ffffffffffffffffffffffffffffffffffffffff168273ffffffffffffffffffffffffffffffffffffffff161415611019576040517f08c379a00000000000000000000000000000000000000000000000000000000081526004018080602001828103825260228152602001806122656022913960400191505060405180910390fd5b600460008373ffffffffffffffffffffffffffffffffffffffff1673ffffffffffffffffffffffffffffffffffffffff168152602001908152602001600020549050919050565b6110686113ac565b6110da576040517f08c379a00000000000000000000000000000000000000000000000000000000081526004018080602001828103825260208152602001807f4f776e61626c653a2063616c6c6572206973206e6f7420746865206f776e657281525060200191505060405180910390fd5b600073ffffffffffffffffffffffffffffffffffffffff166000809054906101000a900473ffffffffffffffffffffffffffffffffffffffff1673ffffffffffffffffffffffffffffffffffffffff167f8be0079c531659141344cd1fd0a4f28419497f9722a3daafe3b4186f6b6457e060405160405180910390a360008060006101000a81548173ffffffffffffffffffffffffffffffffffffffff021916908373ffffffffffffffffffffffffffffffffffffffff160217905550565b6060600073ffffffffffffffffffffffffffffffffffffffff168273ffffffffffffffffffffffffffffffffffffffff16141561123e576040517f08c379a00000000000000000000000000000000000000000000000000000000081526004018080602001828103825260208152602001807f546f6b656e20717565727920666f7220746865207a65726f206164647265737381525060200191505060405180910390fd5b600061124983610f92565b9050600081141561128d5760006040519080825280602002602001820160405280156112845781602001602082028038833980820191505090505b5091505061137e565b6060816040519080825280602002602001820160405280156112be5781602001602082028038833980820191505090505b50905060006112cb610c6d565b9050600080905060008090505b828111611375578673ffffffffffffffffffffffffffffffffffffffff166002600083815260200190815260200160002060009054906101000a900473ffffffffffffffffffffffffffffffffffffffff1673ffffffffffffffffffffffffffffffffffffffff161415611368578084838151811061135357fe5b60200260200101818152505081806001019250505b80806001019150506112d8565b83955050505050505b919050565b60008060009054906101000a900473ffffffffffffffffffffffffffffffffffffffff16905090565b60008060009054906101000a900473ffffffffffffffffffffffffffffffffffffffff1673ffffffffffffffffffffffffffffffffffffffff163373ffffffffffffffffffffffffffffffffffffffff1614905090565b6040518060400160405280600381526020017f434154000000000000000000000000000000000000000000000000000000000081525081565b3373ffffffffffffffffffffffffffffffffffffffff168273ffffffffffffffffffffffffffffffffffffffff1614156114de576040517f08c379a00000000000000000000000000000000000000000000000000000000081526004018080602001828103825260128152602001807f617070726f76616c20746f2063616c6c6572000000000000000000000000000081525060200191505060405180910390fd5b80600660003373ffffffffffffffffffffffffffffffffffffffff1673ffffffffffffffffffffffffffffffffffffffff16815260200190815260200160002060008473ffffffffffffffffffffffffffffffffffffffff1673ffffffffffffffffffffffffffffffffffffffff16815260200190815260200160002060006101000a81548160ff0219169083151502179055508173ffffffffffffffffffffffffffffffffffffffff163373ffffffffffffffffffffffffffffffffffffffff167f17307eab39ab6107e8899845ad3d59bd9653f200f220920489ca2b5937696c3183604051808215151515815260200191505060405180910390a35050565b6115ea338383610e24565b5050565b6115f782611811565b611669576040517f08c379a00000000000000000000000000000000000000000000000000000000081526004018080602001828103825260118152602001807f6e6f6e6578697374656e7420746f6b656e00000000000000000000000000000081525060200191505060405180910390fd5b61167333836118c4565b6116e5576040517f08c379a000000000000000000000000000000000000000000000000000000000815260040180806020018281038252600e8152602001807f6e6f7420617574686f72697a656400000000000000000000000000000000000081525060200191505060405180910390fd5b6116f184848484611c7e565b50505050565b6000600660008473ffffffffffffffffffffffffffffffffffffffff1673ffffffffffffffffffffffffffffffffffffffff16815260200190815260200160002060008373ffffffffffffffffffffffffffffffffffffffff1673ffffffffffffffffffffffffffffffffffffffff16815260200190815260200160002060009054906101000a900460ff16905092915050565b6117936113ac565b611805576040517f08c379a00000000000000000000000000000000000000000000000000000000081526004018080602001828103825260208152602001807f4f776e61626c653a2063616c6c6572206973206e6f7420746865206f776e657281525060200191505060405180910390fd5b61180e81611d0d565b50565b6000806002600084815260200190815260200160002060009054906101000a900473ffffffffffffffffffffffffffffffffffffffff169050600073ffffffffffffffffffffffffffffffffffffffff168173ffffffffffffffffffffffffffffffffffffffff161415915050919050565b60008273ffffffffffffffffffffffffffffffffffffffff166118a583610eca565b73ffffffffffffffffffffffffffffffffffffffff1614905092915050565b6000806118d083610eca565b90508073ffffffffffffffffffffffffffffffffffffffff168473ffffffffffffffffffffffffffffffffffffffff16148061193f57508373ffffffffffffffffffffffffffffffffffffffff1661192784610a12565b73ffffffffffffffffffffffffffffffffffffffff16145b80611950575061194f81856116f7565b5b91505092915050565b600073ffffffffffffffffffffffffffffffffffffffff168273ffffffffffffffffffffffffffffffffffffffff1614156119fc576040517f08c379a000000000000000000000000000000000000000000000000000000000815260040180806020018281038252601c8152602001807f7472616e7366657220746f20746865207a65726f20616464726573730000000081525060200191505060405180910390fd5b3073ffffffffffffffffffffffffffffffffffffffff168273ffffffffffffffffffffffffffffffffffffffff161415611a3557600080fd5b611a886001600460008573ffffffffffffffffffffffffffffffffffffffff1673ffffffffffffffffffffffffffffffffffffffff16815260200190815260200160002054611e5190919063ffffffff16565b600460008473ffffffffffffffffffffffffffffffffffffffff1673ffffffffffffffffffffffffffffffffffffffff16815260200190815260200160002081905550816002600083815260200190815260200160002060006101000a81548173ffffffffffffffffffffffffffffffffffffffff021916908373ffffffffffffffffffffffffffffffffffffffff160217905550600073ffffffffffffffffffffffffffffffffffffffff168373ffffffffffffffffffffffffffffffffffffffff1614611c1e57611ba46001600460008673ffffffffffffffffffffffffffffffffffffffff1673ffffffffffffffffffffffffffffffffffffffff16815260200190815260200160002054611ed990919063ffffffff16565b600460008573ffffffffffffffffffffffffffffffffffffffff1673ffffffffffffffffffffffffffffffffffffffff168152602001908152602001600020819055506003600082815260200190815260200160002060006101000a81549073ffffffffffffffffffffffffffffffffffffffff02191690555b808273ffffffffffffffffffffffffffffffffffffffff168473ffffffffffffffffffffffffffffffffffffffff167fddf252ad1be2c89b69c2b068fc378daa952ba7f163c4a11628f55a4df523b3ef60405160405180910390a4505050565b611c89848484611959565b611c9584848484611f23565b611d07576040517f08c379a000000000000000000000000000000000000000000000000000000000815260040180806020018281038252601e8152602001807f7472616e7366657220746f206e6f6e204552433732315265636569766572000081525060200191505060405180910390fd5b50505050565b600073ffffffffffffffffffffffffffffffffffffffff168173ffffffffffffffffffffffffffffffffffffffff161415611d93576040517f08c379a000000000000000000000000000000000000000000000000000000000815260040180806020018281038252602681526020018061223f6026913960400191505060405180910390fd5b8073ffffffffffffffffffffffffffffffffffffffff166000809054906101000a900473ffffffffffffffffffffffffffffffffffffffff1673ffffffffffffffffffffffffffffffffffffffff167f8be0079c531659141344cd1fd0a4f28419497f9722a3daafe3b4186f6b6457e060405160405180910390a3806000806101000a81548173ffffffffffffffffffffffffffffffffffffffff021916908373ffffffffffffffffffffffffffffffffffffffff16021790555050565b600080828401905083811015611ecf576040517f08c379a000000000000000000000000000000000000000000000000000000000815260040180806020018281038252601b8152602001807f536166654d6174683a206164646974696f6e206f766572666c6f77000000000081525060200191505060405180910390fd5b8091505092915050565b6000611f1b83836040518060400160405280601e81526020017f536166654d6174683a207375627472616374696f6e206f766572666c6f7700008152506120f6565b905092915050565b6000611f2e846121b6565b611f3b57600190506120ee565b60008473ffffffffffffffffffffffffffffffffffffffff1663150b7a02338887876040518563ffffffff1660e01b8152600401808573ffffffffffffffffffffffffffffffffffffffff1673ffffffffffffffffffffffffffffffffffffffff1681526020018473ffffffffffffffffffffffffffffffffffffffff1673ffffffffffffffffffffffffffffffffffffffff16815260200183815260200180602001828103825283818151815260200191508051906020019080838360005b83811015612016578082015181840152602081019050611ffb565b50505050905090810190601f1680156120435780820380516001836020036101000a031916815260200191505b5095505050505050602060405180830381600087803b15801561206557600080fd5b505af1158015612079573d6000803e3d6000fd5b505050506040513d602081101561208f57600080fd5b8101908080519060200190929190505050905063150b7a0260e01b7bffffffffffffffffffffffffffffffffffffffffffffffffffffffff1916817bffffffffffffffffffffffffffffffffffffffffffffffffffffffff1916149150505b949350505050565b60008383111582906121a3576040517f08c379a00000000000000000000000000000000000000000000000000000000081526004018080602001828103825283818151815260200191508051906020019080838360005b8381101561216857808201518184015260208101905061214d565b50505050905090810190601f1680156121955780820380516001836020036101000a031916815260200191505b509250505060405180910390fd5b5060008385039050809150509392505050565b600080823b90506000811191505091905056fe617070726f76656420717565727920666f72206e6f6e6578697374656e74206b697474794f776e657220717565727920666f72206e6f6e6578697374656e74206b69747479617070726f76652063616c6c6572206973206e6f74206f776e6572206e6f7220617070726f76656420666f7220616c6c4f776e61626c653a206e6577206f776e657220697320746865207a65726f206164647265737342616c616e636520717565727920666f7220746865207a65726f2061646472657373a265627a7a723158202cf0b6e153cb9bcd09f89e6fe391e6d7e80571d05bf609b94a1552d28311f80c64736f6c63430005100032",
    "source": "pragma solidity 0.5.16;\n\nimport \"./TigerBase.sol\";\nimport \"./interfaces/IERC721.sol\";\nimport \"./interfaces/IERC721Receiver.sol\";\n\n/**\n * @title The contract that handles ownership, Fully ERC721 (and ERC165) compliant, and\n * compliance withERC721Metadata and ERC721Enumerable\n * @author Andrew Ayson\n */\ncontract TigerOwnership is TigerBase, IERC721 {\n    string public constant name = \"CryptoTigers\";\n    string public constant symbol = \"CAT\";\n\n    /**\n     * @dev Equals to `bytes4(keccak256(\"onERC721Received(address,address,uint256,bytes)\"))`\n     *which can be also obtained as `IERC721Receiver(0).onERC721Received.selector`\n     */\n    bytes4 private constant _ERC721_RECEIVED = 0x150b7a02;\n\n    /**\n     * @dev Interface id's to provide via supportsInterface\n     */\n    bytes4 private constant _INTERFACE_ID_ERC721 = 0x80ac58cd;\n    bytes4 private constant _INTERFACE_ID_ERC165 = 0x01ffc9a7;\n\n    /**\n     * @notice Query if a contract implements an interface\n     * @param _interfaceId The interface identifier, as specified in ERC-165\n     * @dev Interface identification is specified in ERC-165. This function\n     *  uses less than 30,000 gas.\n     * @return true if the contract implements _interfaceId and\n     *  _interfaceId is not 0xffffffff, false otherwise\n     */\n    function supportsInterface(bytes4 _interfaceId)\n        external\n        view\n        returns (bool)\n    {\n        return (_interfaceId == _INTERFACE_ID_ERC721 ||\n            _interfaceId == _INTERFACE_ID_ERC165);\n    }\n\n    /**\n     * @notice Count all Tigers assigned to an owner\n     * @dev [ERC721] Tigers assigned to the zero address are considered invalid, and this\n     * function throws for queries about the zero address\n     * @param _owner The address to check\n     * @return The address of the owner of the tiger\n     */\n    function balanceOf(address _owner) public view returns (uint256) {\n        require(_owner != address(0), \"Balance query for the zero address\");\n\n        return _ownedTigersCount[_owner];\n    }\n\n    /**\n     * @notice Find the owner of an Tiger\n     * @dev [ERC721] Tigers assigned to the zero address are considered invalid, and this\n     * function throws for queries about the zero address\n     * @return the address of the onwer of _tigerId\n     */\n    function ownerOf(uint256 _tigerId) public view returns (address) {\n        address owner = _tigerIdToOwner[_tigerId];\n        require(owner != address(0), \"Owner query for nonexistent tiger\");\n\n        return owner;\n    }\n\n    /**\n     * @dev Util function to checks if _tigerId is owned by _address\n     * @param _address The address we are validating against.\n     * @param _tigerId The tiger id to check\n     * @return true when _tigerId is owned by _address, false otherwise\n     */\n    function _owns(address _address, uint256 _tigerId)\n        internal\n        view\n        returns (bool)\n    {\n        return ownerOf(_tigerId) == _address;\n    }\n\n    /**\n     * @dev Util function to checks if _tigerId exists, ie. the owner is not a 0 address\n     * @param _tigerId The tiger id to check\n     * @return true when _tigerId is a registered token, false otherwise\n     */\n    function _exists(uint256 _tigerId) internal view returns (bool) {\n        address owner = _tigerIdToOwner[_tigerId];\n        return owner != address(0);\n    }\n\n    /**\n     * @dev Util function to checks if address is a contract.\n     * @dev WARNING: This method relies in extcodesize, which returns 0 for contracts in\n     * construction, since the code is only stored at the end of the\n     * constructor execution\n     * @param _account The address to check.\n     * @return true when _account is a contract, false otherwise\n     */\n    function _isContract(address _account) internal view returns (bool) {\n        uint256 size;\n        // solhint-disable-next-line\n        assembly {\n            size := extcodesize(_account)\n        }\n        return size > 0;\n    }\n\n    /**\n     * @dev Checks if the address is authorized to do the tranfsfer. This is\n     * is the current owner, an authorized operator, or the approved address for this Tiger.\n     * @param _address address to check\n     * @param _tigerId tiger id to check\n     * @return true when _address is authorized to transfer, false otherwise\n     */\n    function _isAuthorized(address _address, uint256 _tigerId)\n        internal\n        view\n        returns (bool)\n    {\n        address _owner = ownerOf(_tigerId);\n        return (_address == _owner ||\n            getApproved(_tigerId) == _address ||\n            isApprovedForAll(_owner, _address));\n    }\n\n    /**\n     * @dev Internal function to invoke {IERC721Receiver-onERC721Received} on a target address.\n     * The call is not executed if the target address is not a contract.\n     * @param _from address representing the previous owner of the given tiger id\n     * @param _to target address that will receive the tokens\n     * @param _tigerId The id of the tiger to be transferred\n     * @param _data bytes optional data to send along with the call\n     * @return True if _to is a valid address, false otherwise\n     */\n    function _checkOnERC721Received(\n        address _from,\n        address _to,\n        uint256 _tigerId,\n        bytes memory _data\n    ) internal returns (bool) {\n        if (!_isContract(_to)) {\n            return true;\n        }\n\n        bytes4 returndata = IERC721Receiver(_to).onERC721Received(\n            msg.sender,\n            _from,\n            _tigerId,\n            _data\n        );\n\n        return (returndata == _ERC721_RECEIVED);\n    }\n\n    /**\n     * @dev Safely transfers `tokenId` token from `from` to `to`,\n     * checking first that contract recipients\n     * are aware of the ERC721 protocol to prevent tokens from being forever locked.\n     * @param _from current owner of the tiger\n     * @param _to address to receive the ownership of the given tiger id\n     * @param _tigerId uint256 id of the tiger to be transferred\n     * @param _data bytes data to send along with a safe transfer check\n     */\n    function _safeTransfer(\n        address _from,\n        address _to,\n        uint256 _tigerId,\n        bytes memory _data\n    ) internal {\n        _transfer(_from, _to, _tigerId);\n        require(\n            _checkOnERC721Received(_from, _to, _tigerId, _data),\n            \"transfer to non ERC721Receiver\"\n        );\n    }\n\n    /**\n     * @notice Transfers the ownership of an Tiger from one address to another address\n     * @dev [ERC721] Transfer implementation with a check on caller if it can accept ERC721\n     * Requires\n     * - valid token\n     * - valid, non-zero _to address (via _transfer)\n     * - not to this address to prevent potential misuse (via _transfer)\n     * - msg.sender to be the owner, approved, or operator\n     * - when the caller is a smart contract, it should accept ERC721 tokens\n     * @param _from current owner of the tiger\n     * @param _to address to receive the ownership of the given tiger id\n     * @param _tigerId uint256 id of the tiger to be transferred\n     */\n    function safeTransferFrom(\n        address _from,\n        address _to,\n        uint256 _tigerId\n    ) public {\n        safeTransferFrom(_from, _to, _tigerId, \"\");\n    }\n\n    /**\n     * @notice Transfers the ownership of an Tiger from one address to another address\n     * @dev [ERC721] This works identically to the other function with an extra data parameter\n     * except this function just sets data to \"\"\n     * @param _from current owner of the tiger\n     * @param _to address to receive the ownership of the given tiger id\n     * @param _tigerId The id of the tiger to be transferred\n     * @param _data bytes data to send along with a safe transfer check\n     */\n    function safeTransferFrom(\n        address _from,\n        address _to,\n        uint256 _tigerId,\n        bytes memory _data\n    ) public {\n        require(_exists(_tigerId), \"nonexistent token\");\n        require(_isAuthorized(msg.sender, _tigerId), \"not authorized\");\n\n        _safeTransfer(_from, _to, _tigerId, _data);\n    }\n\n    /**\n     * @notice Transfer ownership of a Tiger -- THE CALLER IS RESPONSIBLE\n     *  TO CONFIRM THAT `_to` IS CAPABLE OF RECEIVING TIGERS OR ELSE\n     *  THEY MAY BE PERMANENTLY LOST\n     * @dev [ERC721] Transfers the ownership of a given token id to another address\n     * Requires\n     * - valid token\n     * - valid, non-zero _to address (via _transfer)\n     * - not to this address to prevent potential misuse (via _transfer)\n     * - msg.sender to be the owner, approved, or operator\n     * @param _from current owner of the tiger\n     * @param _to address to receive the ownership of the given tiger id\n     * @param _tigerId id of the tiger to be transferred\n     */\n    function transferFrom(\n        address _from,\n        address _to,\n        uint256 _tigerId\n    ) public {\n        require(_exists(_tigerId), \"nonexistent token\");\n        require(_isAuthorized(msg.sender, _tigerId), \"not authorized\");\n\n        _transfer(_from, _to, _tigerId);\n    }\n\n    /**\n     * @notice Transfers the ownership of an own Tiger to another address\n     * @param _to address to receive the ownership of the given tiger id\n     * @param _tigerId id of the tiger to be transferred\n     */\n    function transfer(address _to, uint256 _tigerId) external {\n        safeTransferFrom(msg.sender, _to, _tigerId);\n    }\n\n    /**\n     * @notice Change or reaffirm the approved address for an tiger\n     * @dev [ERC721] The zero address indicates there is no approved address\n     * Requires\n     * - msg.sender is owner or approved opperator\n     * - cannot approve owner\n     * @param _to The address.\n     * @param _tigerId The tiger id that is approved for\n     */\n    function approve(address _to, uint256 _tigerId) public {\n        address _owner = ownerOf(_tigerId);\n        require(_to != _owner, \"approval to current owner\");\n        require(\n            _owns(msg.sender, _tigerId),\n            \"approve caller is not owner nor approved for all\"\n        );\n\n        _tigerIdToApproved[_tigerId] = _to;\n        emit Approval(_owner, _to, _tigerId);\n    }\n\n    /**\n     * @notice Enable or disable approval for a third party (\"operator\") to manage\n     * all of `msg.sender`'s assets\n     * @dev [ERC721] Emits the ApprovalForAll event.\n     * Requires\n     * - cannot approve self\n     * @param _operator The tiger id\n     * @param _approved The approval status\n     */\n    function setApprovalForAll(address _operator, bool _approved) public {\n        require(_operator != msg.sender, \"approval to caller\");\n\n        _operatorApprovals[msg.sender][_operator] = _approved;\n        emit ApprovalForAll(msg.sender, _operator, _approved);\n    }\n\n    /**\n     * @notice Get the approved address for a single tiger\n     * @dev [ERC721] Get the approval address of the tiger\n     * Requires\n     * - _tigerId must exist\n     * @param _tigerId The tiger id\n     * @return The approved address for this tiger, or the zero address if there is none\n     */\n    function getApproved(uint256 _tigerId) public view returns (address) {\n        require(_exists(_tigerId), \"approved query for nonexistent tiger\");\n\n        return _tigerIdToApproved[_tigerId];\n    }\n\n    /**\n     * @notice Query if an address is an authorized operator for another address\n     * @dev [ERC721]\n     * @param _owner The owner\n     * @param _operator The operator\n     * @return True if `_operator` is an approved operator for `_owner`, false otherwise\n     */\n    function isApprovedForAll(address _owner, address _operator)\n        public\n        view\n        returns (bool)\n    {\n        return _operatorApprovals[_owner][_operator];\n    }\n\n    /**\n     * @notice Count tigers tracked by this contract\n     * @dev [ERC721Enumerable]\n     * @return A count of valid tigers tracked by this contract, where each one of\n     *  them has an assigned and queryable owner not equal to the zero address\n     */\n    function totalSupply() public view returns (uint256) {\n        return _tigers.length;\n    }\n\n    /**\n     * @notice Enumerate valid tigers\n     * @dev [ERC721Enumerable]\n     * Requires:\n     *  - _index < totalSupply()\n     * @param _index A counter less than `totalSupply()`\n     * @return _index which is the same as the identifier\n     */\n    function tokenByIndex(uint256 _index) external view returns (uint256) {\n        require(_index < totalSupply(), \"index out of bounds\");\n        return _index;\n    }\n\n    /**\n     * @notice Returns a list of all Tiger IDs assigned to an address.\n     * @dev [ERC721Enumerable]\n     * Requires\n     *  - _index < balanceOf(_owner)\n     *  - _owner is  non-zero address\n     * @dev Be aware when calling this contract as its quite expensive because it\n     * loops through all tigers\n     * @param _owner An address where we are interested in tigers owned by them\n     * @return The token identifier for the `_index`th tiger assigned to `_owner`,\n     *   (sort order not specified)\n     */\n    function tokensOfOwner(address _owner)\n        public\n        view\n        returns (uint256[] memory)\n    {\n        require(_owner != address(0), \"Token query for the zero address\");\n\n        uint256 tokenCount = balanceOf(_owner);\n\n        if (tokenCount == 0) {\n            // Return an empty array\n            return new uint256[](0);\n        }\n\n        uint256[] memory result = new uint256[](tokenCount);\n        uint256 totalTigers = totalSupply();\n        uint256 resultIndex = 0;\n\n        uint256 tigerId;\n\n        for (tigerId = 0; tigerId <= totalTigers; tigerId++) {\n            if (_tigerIdToOwner[tigerId] == _owner) {\n                result[resultIndex] = tigerId;\n                resultIndex++;\n            }\n        }\n\n        return result;\n    }\n\n    /**\n     * @dev Gets the token ID at a given index of the tokens list of the requested owner.\n     * @dev Be aware when calling this contract as its quite expensive because it\n     * loops through all tigers. Could potentially be optimized if we save all tigers also\n     * in an mapping of owners.\n     * @param _owner address owning the tokens list to be accessed\n     * @param _index uint256 representing the index to be accessed of the requested tokens list\n     * @return uint256 token ID at the given index of the tokens list owned by the requested address\n     */\n    function tokenOfOwnerByIndex(address _owner, uint256 _index)\n        public\n        view\n        returns (uint256)\n    {\n        require(_index < balanceOf(_owner), \"index out of bounds\");\n        return tokensOfOwner(_owner)[_index];\n    }\n}\n",
    "sourcePath": "/Users/bananaQ/Documents/own_projects/business/crypto-tigers/eth/contracts/TigerOwnership.sol",
    "compiler": {
        "name": "solc",
        "version": "0.5.16+commit.9c3226ce.Emscripten.clang"
    },
    "schemaVersion": "3.4.3",
    "updatedAt": "2021-12-23T14:23:59.503Z",
    "devdoc": {
        "author": "Andrew Ayson",
        "methods": {
            "approve(address,uint256)": {
                "details": "[ERC721] The zero address indicates there is no approved address Requires - msg.sender is owner or approved opperator - cannot approve owner",
                "params": {
                    "_tigerId": "The tiger id that is approved for",
                    "_to": "The address."
                }
            },
            "balanceOf(address)": {
                "details": "[ERC721] Tigers assigned to the zero address are considered invalid, and this function throws for queries about the zero address",
                "params": {
                    "_owner": "The address to check"
                },
                "return": "The address of the owner of the tiger"
            },
            "getApproved(uint256)": {
                "details": "[ERC721] Get the approval address of the tiger Requires - _tigerId must exist",
                "params": {
                    "_tigerId": "The tiger id"
                },
                "return": "The approved address for this tiger, or the zero address if there is none"
            },
            "isApprovedForAll(address,address)": {
                "details": "[ERC721]",
                "params": {
                    "_operator": "The operator",
                    "_owner": "The owner"
                },
                "return": "True if `_operator` is an approved operator for `_owner`, false otherwise"
            },
            "isOwner()": {
                "details": "Returns true if the caller is the current owner."
            },
            "owner()": {
                "details": "Returns the address of the current owner."
            },
            "ownerOf(uint256)": {
                "details": "[ERC721] Tigers assigned to the zero address are considered invalid, and this function throws for queries about the zero address",
                "return": "the address of the onwer of _tigerId"
            },
            "renounceOwnership()": {
                "details": "Leaves the contract without owner. It will not be possible to call `onlyOwner` functions anymore. Can only be called by the current owner.     * NOTE: Renouncing ownership will leave the contract without an owner, thereby removing any functionality that is only available to the owner."
            },
            "safeTransferFrom(address,address,uint256)": {
                "details": "[ERC721] Transfer implementation with a check on caller if it can accept ERC721 Requires - valid token - valid, non-zero _to address (via _transfer) - not to this address to prevent potential misuse (via _transfer) - msg.sender to be the owner, approved, or operator - when the caller is a smart contract, it should accept ERC721 tokens",
                "params": {
                    "_from": "current owner of the tiger",
                    "_tigerId": "uint256 id of the tiger to be transferred",
                    "_to": "address to receive the ownership of the given tiger id"
                }
            },
            "safeTransferFrom(address,address,uint256,bytes)": {
                "details": "[ERC721] This works identically to the other function with an extra data parameter except this function just sets data to \"\"",
                "params": {
                    "_data": "bytes data to send along with a safe transfer check",
                    "_from": "current owner of the tiger",
                    "_tigerId": "The id of the tiger to be transferred",
                    "_to": "address to receive the ownership of the given tiger id"
                }
            },
            "setApprovalForAll(address,bool)": {
                "details": "[ERC721] Emits the ApprovalForAll event. Requires - cannot approve self",
                "params": {
                    "_approved": "The approval status",
                    "_operator": "The tiger id"
                }
            },
            "supportsInterface(bytes4)": {
                "details": "Interface identification is specified in ERC-165. This function uses less than 30,000 gas.",
                "params": {
                    "_interfaceId": "The interface identifier, as specified in ERC-165"
                },
                "return": "true if the contract implements _interfaceId and _interfaceId is not 0xffffffff, false otherwise"
            },
            "tokenByIndex(uint256)": {
                "details": "[ERC721Enumerable] Requires: - _index < totalSupply()",
                "params": {
                    "_index": "A counter less than `totalSupply()`"
                },
                "return": "_index which is the same as the identifier"
            },
            "tokenOfOwnerByIndex(address,uint256)": {
                "details": "Gets the token ID at a given index of the tokens list of the requested owner.Be aware when calling this contract as its quite expensive because it loops through all tigers. Could potentially be optimized if we save all tigers also in an mapping of owners.",
                "params": {
                    "_index": "uint256 representing the index to be accessed of the requested tokens list",
                    "_owner": "address owning the tokens list to be accessed"
                },
                "return": "uint256 token ID at the given index of the tokens list owned by the requested address"
            },
            "tokensOfOwner(address)": {
                "details": "[ERC721Enumerable] Requires - _index < balanceOf(_owner) - _owner is  non-zero addressBe aware when calling this contract as its quite expensive because it loops through all tigers",
                "params": {
                    "_owner": "An address where we are interested in tigers owned by them"
                },
                "return": "The token identifier for the `_index`th tiger assigned to `_owner`,  (sort order not specified)"
            },
            "totalSupply()": {
                "details": "[ERC721Enumerable]",
                "return": "A count of valid tigers tracked by this contract, where each one of them has an assigned and queryable owner not equal to the zero address"
            },
            "transfer(address,uint256)": {
                "params": {
                    "_tigerId": "id of the tiger to be transferred",
                    "_to": "address to receive the ownership of the given tiger id"
                }
            },
            "transferFrom(address,address,uint256)": {
                "details": "[ERC721] Transfers the ownership of a given token id to another address Requires - valid token - valid, non-zero _to address (via _transfer) - not to this address to prevent potential misuse (via _transfer) - msg.sender to be the owner, approved, or operator",
                "params": {
                    "_from": "current owner of the tiger",
                    "_tigerId": "id of the tiger to be transferred",
                    "_to": "address to receive the ownership of the given tiger id"
                }
            },
            "transferOwnership(address)": {
                "details": "Transfers ownership of the contract to a new account (`newOwner`). Can only be called by the current owner."
            }
        },
        "title": "The contract that handles ownership, Fully ERC721 (and ERC165) compliant, and compliance withERC721Metadata and ERC721Enumerable"
    },
    "userdoc": {
        "methods": {
            "approve(address,uint256)": {
                "notice": "Change or reaffirm the approved address for an tiger"
            },
            "balanceOf(address)": {
                "notice": "Count all Tigers assigned to an owner"
            },
            "getApproved(uint256)": {
                "notice": "Get the approved address for a single tiger"
            },
            "isApprovedForAll(address,address)": {
                "notice": "Query if an address is an authorized operator for another address"
            },
            "ownerOf(uint256)": {
                "notice": "Find the owner of an Tiger"
            },
            "safeTransferFrom(address,address,uint256)": {
                "notice": "Transfers the ownership of an Tiger from one address to another address"
            },
            "safeTransferFrom(address,address,uint256,bytes)": {
                "notice": "Transfers the ownership of an Tiger from one address to another address"
            },
            "setApprovalForAll(address,bool)": {
                "notice": "Enable or disable approval for a third party (\"operator\") to manage all of `msg.sender`'s assets"
            },
            "supportsInterface(bytes4)": {
                "notice": "Query if a contract implements an interface"
            },
            "tokenByIndex(uint256)": {
                "notice": "Enumerate valid tigers"
            },
            "tokensOfOwner(address)": {
                "notice": "Returns a list of all Tiger IDs assigned to an address."
            },
            "totalSupply()": {
                "notice": "Count tigers tracked by this contract"
            },
            "transfer(address,uint256)": {
                "notice": "Transfers the ownership of an own Tiger to another address"
            },
            "transferFrom(address,address,uint256)": {
                "notice": "Transfer ownership of a Tiger -- THE CALLER IS RESPONSIBLE TO CONFIRM THAT `_to` IS CAPABLE OF RECEIVING TIGERS OR ELSE THEY MAY BE PERMANENTLY LOST"
            }
        }
    }
}