{
    "contractName": "TigerMinting",
    "abi": [
        {
            "anonymous": false,
            "inputs": [
                {
                    "indexed": true,
                    "internalType": "address",
                    "name": "owner",
                    "type": "address"
                },
                {
                    "indexed": true,
                    "internalType": "address",
                    "name": "approved",
                    "type": "address"
                },
                {
                    "indexed": true,
                    "internalType": "uint256",
                    "name": "tokenId",
                    "type": "uint256"
                }
            ],
            "name": "Approval",
            "type": "event"
        },
        {
            "anonymous": false,
            "inputs": [
                {
                    "indexed": true,
                    "internalType": "address",
                    "name": "owner",
                    "type": "address"
                },
                {
                    "indexed": true,
                    "internalType": "address",
                    "name": "operator",
                    "type": "address"
                },
                {
                    "indexed": false,
                    "internalType": "bool",
                    "name": "approved",
                    "type": "bool"
                }
            ],
            "name": "ApprovalForAll",
            "type": "event"
        },
        {
            "anonymous": false,
            "inputs": [
                {
                    "indexed": false,
                    "internalType": "address",
                    "name": "owner",
                    "type": "address"
                },
                {
                    "indexed": false,
                    "internalType": "uint256",
                    "name": "tigerId",
                    "type": "uint256"
                },
                {
                    "indexed": false,
                    "internalType": "uint256",
                    "name": "momId",
                    "type": "uint256"
                },
                {
                    "indexed": false,
                    "internalType": "uint256",
                    "name": "dadId",
                    "type": "uint256"
                },
                {
                    "indexed": false,
                    "internalType": "uint256",
                    "name": "genes",
                    "type": "uint256"
                }
            ],
            "name": "Birth",
            "type": "event"
        },
        {
            "anonymous": false,
            "inputs": [
                {
                    "indexed": true,
                    "internalType": "address",
                    "name": "previousOwner",
                    "type": "address"
                },
                {
                    "indexed": true,
                    "internalType": "address",
                    "name": "newOwner",
                    "type": "address"
                }
            ],
            "name": "OwnershipTransferred",
            "type": "event"
        },
        {
            "anonymous": false,
            "inputs": [
                {
                    "indexed": true,
                    "internalType": "address",
                    "name": "from",
                    "type": "address"
                },
                {
                    "indexed": true,
                    "internalType": "address",
                    "name": "to",
                    "type": "address"
                },
                {
                    "indexed": true,
                    "internalType": "uint256",
                    "name": "tokenId",
                    "type": "uint256"
                }
            ],
            "name": "Transfer",
            "type": "event"
        },
        {
            "constant": true,
            "inputs": [],
            "name": "CREATION_LIMIT_GEN0",
            "outputs": [
                {
                    "internalType": "uint256",
                    "name": "",
                    "type": "uint256"
                }
            ],
            "payable": false,
            "stateMutability": "view",
            "type": "function"
        },
        {
            "constant": false,
            "inputs": [
                {
                    "internalType": "address",
                    "name": "_to",
                    "type": "address"
                },
                {
                    "internalType": "uint256",
                    "name": "_tigerId",
                    "type": "uint256"
                }
            ],
            "name": "approve",
            "outputs": [],
            "payable": false,
            "stateMutability": "nonpayable",
            "type": "function"
        },
        {
            "constant": true,
            "inputs": [
                {
                    "internalType": "address",
                    "name": "_owner",
                    "type": "address"
                }
            ],
            "name": "balanceOf",
            "outputs": [
                {
                    "internalType": "uint256",
                    "name": "",
                    "type": "uint256"
                }
            ],
            "payable": false,
            "stateMutability": "view",
            "type": "function"
        },
        {
            "constant": false,
            "inputs": [
                {
                    "internalType": "uint256",
                    "name": "_momId",
                    "type": "uint256"
                },
                {
                    "internalType": "uint256",
                    "name": "_dadId",
                    "type": "uint256"
                }
            ],
            "name": "breed",
            "outputs": [
                {
                    "internalType": "uint256",
                    "name": "",
                    "type": "uint256"
                }
            ],
            "payable": false,
            "stateMutability": "nonpayable",
            "type": "function"
        },
        {
            "constant": true,
            "inputs": [],
            "name": "gen0Count",
            "outputs": [
                {
                    "internalType": "uint256",
                    "name": "",
                    "type": "uint256"
                }
            ],
            "payable": false,
            "stateMutability": "view",
            "type": "function"
        },
        {
            "constant": true,
            "inputs": [
                {
                    "internalType": "uint256",
                    "name": "_tigerId",
                    "type": "uint256"
                }
            ],
            "name": "getApproved",
            "outputs": [
                {
                    "internalType": "address",
                    "name": "",
                    "type": "address"
                }
            ],
            "payable": false,
            "stateMutability": "view",
            "type": "function"
        },
        {
            "constant": true,
            "inputs": [
                {
                    "internalType": "uint256",
                    "name": "_tigerId",
                    "type": "uint256"
                }
            ],
            "name": "getChildren",
            "outputs": [
                {
                    "internalType": "uint256[]",
                    "name": "",
                    "type": "uint256[]"
                }
            ],
            "payable": false,
            "stateMutability": "view",
            "type": "function"
        },
        {
            "constant": true,
            "inputs": [
                {
                    "internalType": "address",
                    "name": "_owner",
                    "type": "address"
                },
                {
                    "internalType": "address",
                    "name": "_operator",
                    "type": "address"
                }
            ],
            "name": "isApprovedForAll",
            "outputs": [
                {
                    "internalType": "bool",
                    "name": "",
                    "type": "bool"
                }
            ],
            "payable": false,
            "stateMutability": "view",
            "type": "function"
        },
        {
            "constant": true,
            "inputs": [],
            "name": "isOwner",
            "outputs": [
                {
                    "internalType": "bool",
                    "name": "",
                    "type": "bool"
                }
            ],
            "payable": false,
            "stateMutability": "view",
            "type": "function"
        },
        {
            "constant": true,
            "inputs": [],
            "name": "name",
            "outputs": [
                {
                    "internalType": "string",
                    "name": "",
                    "type": "string"
                }
            ],
            "payable": false,
            "stateMutability": "view",
            "type": "function"
        },
        {
            "constant": true,
            "inputs": [],
            "name": "owner",
            "outputs": [
                {
                    "internalType": "address",
                    "name": "",
                    "type": "address"
                }
            ],
            "payable": false,
            "stateMutability": "view",
            "type": "function"
        },
        {
            "constant": true,
            "inputs": [
                {
                    "internalType": "uint256",
                    "name": "_tigerId",
                    "type": "uint256"
                }
            ],
            "name": "ownerOf",
            "outputs": [
                {
                    "internalType": "address",
                    "name": "",
                    "type": "address"
                }
            ],
            "payable": false,
            "stateMutability": "view",
            "type": "function"
        },
        {
            "constant": false,
            "inputs": [],
            "name": "renounceOwnership",
            "outputs": [],
            "payable": false,
            "stateMutability": "nonpayable",
            "type": "function"
        },
        {
            "constant": false,
            "inputs": [
                {
                    "internalType": "address",
                    "name": "_from",
                    "type": "address"
                },
                {
                    "internalType": "address",
                    "name": "_to",
                    "type": "address"
                },
                {
                    "internalType": "uint256",
                    "name": "_tigerId",
                    "type": "uint256"
                }
            ],
            "name": "safeTransferFrom",
            "outputs": [],
            "payable": false,
            "stateMutability": "nonpayable",
            "type": "function"
        },
        {
            "constant": false,
            "inputs": [
                {
                    "internalType": "address",
                    "name": "_from",
                    "type": "address"
                },
                {
                    "internalType": "address",
                    "name": "_to",
                    "type": "address"
                },
                {
                    "internalType": "uint256",
                    "name": "_tigerId",
                    "type": "uint256"
                },
                {
                    "internalType": "bytes",
                    "name": "_data",
                    "type": "bytes"
                }
            ],
            "name": "safeTransferFrom",
            "outputs": [],
            "payable": false,
            "stateMutability": "nonpayable",
            "type": "function"
        },
        {
            "constant": false,
            "inputs": [
                {
                    "internalType": "address",
                    "name": "_operator",
                    "type": "address"
                },
                {
                    "internalType": "bool",
                    "name": "_approved",
                    "type": "bool"
                }
            ],
            "name": "setApprovalForAll",
            "outputs": [],
            "payable": false,
            "stateMutability": "nonpayable",
            "type": "function"
        },
        {
            "constant": true,
            "inputs": [
                {
                    "internalType": "bytes4",
                    "name": "_interfaceId",
                    "type": "bytes4"
                }
            ],
            "name": "supportsInterface",
            "outputs": [
                {
                    "internalType": "bool",
                    "name": "",
                    "type": "bool"
                }
            ],
            "payable": false,
            "stateMutability": "view",
            "type": "function"
        },
        {
            "constant": true,
            "inputs": [],
            "name": "symbol",
            "outputs": [
                {
                    "internalType": "string",
                    "name": "",
                    "type": "string"
                }
            ],
            "payable": false,
            "stateMutability": "view",
            "type": "function"
        },
        {
            "constant": true,
            "inputs": [
                {
                    "internalType": "uint256",
                    "name": "_index",
                    "type": "uint256"
                }
            ],
            "name": "tokenByIndex",
            "outputs": [
                {
                    "internalType": "uint256",
                    "name": "",
                    "type": "uint256"
                }
            ],
            "payable": false,
            "stateMutability": "view",
            "type": "function"
        },
        {
            "constant": true,
            "inputs": [
                {
                    "internalType": "address",
                    "name": "_owner",
                    "type": "address"
                },
                {
                    "internalType": "uint256",
                    "name": "_index",
                    "type": "uint256"
                }
            ],
            "name": "tokenOfOwnerByIndex",
            "outputs": [
                {
                    "internalType": "uint256",
                    "name": "",
                    "type": "uint256"
                }
            ],
            "payable": false,
            "stateMutability": "view",
            "type": "function"
        },
        {
            "constant": true,
            "inputs": [
                {
                    "internalType": "address",
                    "name": "_owner",
                    "type": "address"
                }
            ],
            "name": "tokensOfOwner",
            "outputs": [
                {
                    "internalType": "uint256[]",
                    "name": "",
                    "type": "uint256[]"
                }
            ],
            "payable": false,
            "stateMutability": "view",
            "type": "function"
        },
        {
            "constant": true,
            "inputs": [],
            "name": "totalSupply",
            "outputs": [
                {
                    "internalType": "uint256",
                    "name": "",
                    "type": "uint256"
                }
            ],
            "payable": false,
            "stateMutability": "view",
            "type": "function"
        },
        {
            "constant": false,
            "inputs": [
                {
                    "internalType": "address",
                    "name": "_to",
                    "type": "address"
                },
                {
                    "internalType": "uint256",
                    "name": "_tigerId",
                    "type": "uint256"
                }
            ],
            "name": "transfer",
            "outputs": [],
            "payable": false,
            "stateMutability": "nonpayable",
            "type": "function"
        },
        {
            "constant": false,
            "inputs": [
                {
                    "internalType": "address",
                    "name": "_from",
                    "type": "address"
                },
                {
                    "internalType": "address",
                    "name": "_to",
                    "type": "address"
                },
                {
                    "internalType": "uint256",
                    "name": "_tigerId",
                    "type": "uint256"
                }
            ],
            "name": "transferFrom",
            "outputs": [],
            "payable": false,
            "stateMutability": "nonpayable",
            "type": "function"
        },
        {
            "constant": false,
            "inputs": [
                {
                    "internalType": "address",
                    "name": "newOwner",
                    "type": "address"
                }
            ],
            "name": "transferOwnership",
            "outputs": [],
            "payable": false,
            "stateMutability": "nonpayable",
            "type": "function"
        },
        {
            "constant": false,
            "inputs": [
                {
                    "internalType": "uint256",
                    "name": "_genes",
                    "type": "uint256"
                }
            ],
            "name": "createGen0Tiger",
            "outputs": [
                {
                    "internalType": "uint256",
                    "name": "",
                    "type": "uint256"
                }
            ],
            "payable": false,
            "stateMutability": "nonpayable",
            "type": "function"
        }
    ],
    "bytecode": "0x6080604052336000806101000a81548173ffffffffffffffffffffffffffffffffffffffff021916908373ffffffffffffffffffffffffffffffffffffffff1602179055503373ffffffffffffffffffffffffffffffffffffffff16600073ffffffffffffffffffffffffffffffffffffffff167f8be0079c531659141344cd1fd0a4f28419497f9722a3daafe3b4186f6b6457e060405160405180910390a3612d23806100ae6000396000f3fe608060405234801561001057600080fd5b506004361061018e5760003560e01c8063715018a6116100de578063a9059cbb11610097578063b88d4fde11610071578063b88d4fde146108cc578063d9ecad7b146109d1578063e985e9c514610a1d578063f2fde38b14610a995761018e565b8063a9059cbb14610842578063b30387a414610890578063b4834330146108ae5761018e565b8063715018a6146106605780638462151c1461066a5780638da5cb5b146107035780638f32d59b1461074d57806395d89b411461076f578063a22cb465146107f25761018e565b80632f745c591161014b5780634bdb8ab5116101255780634bdb8ab5146105165780634f6ccce7146105585780636352211e1461059a57806370a08231146106085761018e565b80632f745c59146103c357806342842e0e1461042557806349ae8dc3146104935761018e565b806301ffc9a71461019357806306fdde03146101f8578063081812fc1461027b578063095ea7b3146102e957806318160ddd1461033757806323b872dd14610355575b600080fd5b6101de600480360360208110156101a957600080fd5b8101908080357bffffffffffffffffffffffffffffffffffffffffffffffffffffffff19169060200190929190505050610add565b604051808215151515815260200191505060405180910390f35b610200610b7d565b6040518080602001828103825283818151815260200191508051906020019080838360005b83811015610240578082015181840152602081019050610225565b50505050905090810190601f16801561026d5780820380516001836020036101000a031916815260200191505b509250505060405180910390f35b6102a76004803603602081101561029157600080fd5b8101908080359060200190929190505050610bb6565b604051808273ffffffffffffffffffffffffffffffffffffffff1673ffffffffffffffffffffffffffffffffffffffff16815260200191505060405180910390f35b610335600480360360408110156102ff57600080fd5b81019080803573ffffffffffffffffffffffffffffffffffffffff16906020019092919080359060200190929190505050610c51565b005b61033f610e11565b6040518082815260200191505060405180910390f35b6103c16004803603606081101561036b57600080fd5b81019080803573ffffffffffffffffffffffffffffffffffffffff169060200190929190803573ffffffffffffffffffffffffffffffffffffffff16906020019092919080359060200190929190505050610e1e565b005b61040f600480360360408110156103d957600080fd5b81019080803573ffffffffffffffffffffffffffffffffffffffff16906020019092919080359060200190929190505050610f25565b6040518082815260200191505060405180910390f35b6104916004803603606081101561043b57600080fd5b81019080803573ffffffffffffffffffffffffffffffffffffffff169060200190929190803573ffffffffffffffffffffffffffffffffffffffff16906020019092919080359060200190929190505050610fc8565b005b6104bf600480360360208110156104a957600080fd5b8101908080359060200190929190505050610fe8565b6040518080602001828103825283818151815260200191508051906020019060200280838360005b838110156105025780820151818401526020810190506104e7565b505050509050019250505060405180910390f35b6105426004803603602081101561052c57600080fd5b8101908080359060200190929190505050611058565b6040518082815260200191505060405180910390f35b6105846004803603602081101561056e57600080fd5b810190808035906020019092919050505061117e565b6040518082815260200191505060405180910390f35b6105c6600480360360208110156105b057600080fd5b8101908080359060200190929190505050611204565b604051808273ffffffffffffffffffffffffffffffffffffffff1673ffffffffffffffffffffffffffffffffffffffff16815260200191505060405180910390f35b61064a6004803603602081101561061e57600080fd5b81019080803573ffffffffffffffffffffffffffffffffffffffff1690602001909291905050506112cc565b6040518082815260200191505060405180910390f35b61066861139a565b005b6106ac6004803603602081101561068057600080fd5b81019080803573ffffffffffffffffffffffffffffffffffffffff1690602001909291905050506114d3565b6040518080602001828103825283818151815260200191508051906020019060200280838360005b838110156106ef5780820151818401526020810190506106d4565b505050509050019250505060405180910390f35b61070b6116bd565b604051808273ffffffffffffffffffffffffffffffffffffffff1673ffffffffffffffffffffffffffffffffffffffff16815260200191505060405180910390f35b6107556116e6565b604051808215151515815260200191505060405180910390f35b61077761173d565b6040518080602001828103825283818151815260200191508051906020019080838360005b838110156107b757808201518184015260208101905061079c565b50505050905090810190601f1680156107e45780820380516001836020036101000a031916815260200191505b509250505060405180910390f35b6108406004803603604081101561080857600080fd5b81019080803573ffffffffffffffffffffffffffffffffffffffff169060200190929190803515159060200190929190505050611776565b005b61088e6004803603604081101561085857600080fd5b81019080803573ffffffffffffffffffffffffffffffffffffffff16906020019092919080359060200190929190505050611919565b005b610898611928565b6040518082815260200191505060405180910390f35b6108b661192e565b6040518082815260200191505060405180910390f35b6109cf600480360360808110156108e257600080fd5b81019080803573ffffffffffffffffffffffffffffffffffffffff169060200190929190803573ffffffffffffffffffffffffffffffffffffffff169060200190929190803590602001909291908035906020019064010000000081111561094957600080fd5b82018360208201111561095b57600080fd5b8035906020019184600183028401116401000000008311171561097d57600080fd5b91908080601f016020809104026020016040519081016040528093929190818152602001838380828437600081840152601f19601f820116905080830192505050505050509192919290505050611933565b005b610a07600480360360408110156109e757600080fd5b810190808035906020019092919080359060200190929190505050611a3c565b6040518082815260200191505060405180910390f35b610a7f60048036036040811015610a3357600080fd5b81019080803573ffffffffffffffffffffffffffffffffffffffff169060200190929190803573ffffffffffffffffffffffffffffffffffffffff169060200190929190505050611ce6565b604051808215151515815260200191505060405180910390f35b610adb60048036036020811015610aaf57600080fd5b81019080803573ffffffffffffffffffffffffffffffffffffffff169060200190929190505050611d7a565b005b60006380ac58cd60e01b7bffffffffffffffffffffffffffffffffffffffffffffffffffffffff1916827bffffffffffffffffffffffffffffffffffffffffffffffffffffffff19161480610b7657506301ffc9a760e01b7bffffffffffffffffffffffffffffffffffffffffffffffffffffffff1916827bffffffffffffffffffffffffffffffffffffffffffffffffffffffff1916145b9050919050565b6040518060400160405280600d81526020017f43727970746f4b6974746965730000000000000000000000000000000000000081525081565b6000610bc182611e00565b610c16576040517f08c379a0000000000000000000000000000000000000000000000000000000008152600401808060200182810382526024815260200180612c116024913960400191505060405180910390fd5b6003600083815260200190815260200160002060009054906101000a900473ffffffffffffffffffffffffffffffffffffffff169050919050565b6000610c5c82611204565b90508073ffffffffffffffffffffffffffffffffffffffff168373ffffffffffffffffffffffffffffffffffffffff161415610d00576040517f08c379a00000000000000000000000000000000000000000000000000000000081526004018080602001828103825260198152602001807f617070726f76616c20746f2063757272656e74206f776e65720000000000000081525060200191505060405180910390fd5b610d0a3383611e72565b610d5f576040517f08c379a0000000000000000000000000000000000000000000000000000000008152600401808060200182810382526030815260200180612c566030913960400191505060405180910390fd5b826003600084815260200190815260200160002060006101000a81548173ffffffffffffffffffffffffffffffffffffffff021916908373ffffffffffffffffffffffffffffffffffffffff160217905550818373ffffffffffffffffffffffffffffffffffffffff168273ffffffffffffffffffffffffffffffffffffffff167f8c5be1e5ebec7d5bd14f71427d1e84f3dd0314c0f7b2291e5b200ac8c7c3b92560405160405180910390a4505050565b6000600180549050905090565b610e2781611e00565b610e99576040517f08c379a00000000000000000000000000000000000000000000000000000000081526004018080602001828103825260118152602001807f6e6f6e6578697374656e7420746f6b656e00000000000000000000000000000081525060200191505060405180910390fd5b610ea33382611eb3565b610f15576040517f08c379a000000000000000000000000000000000000000000000000000000000815260040180806020018281038252600e8152602001807f6e6f7420617574686f72697a656400000000000000000000000000000000000081525060200191505060405180910390fd5b610f20838383611f48565b505050565b6000610f30836112cc565b8210610fa4576040517f08c379a00000000000000000000000000000000000000000000000000000000081526004018080602001828103825260138152602001807f696e646578206f7574206f6620626f756e64730000000000000000000000000081525060200191505060405180910390fd5b610fad836114d3565b8281518110610fb857fe5b6020026020010151905092915050565b610fe383838360405180602001604052806000815250611933565b505050565b6060806005600084815260200190815260200160002080548060200260200160405190810160405280929190818152602001828054801561104857602002820191906000526020600020905b815481526020019060010190808311611034575b5050505050905080915050919050565b60006110626116e6565b6110d4576040517f08c379a00000000000000000000000000000000000000000000000000000000081526004018080602001828103825260208152602001807f4f776e61626c653a2063616c6c6572206973206e6f7420746865206f776e657281525060200191505060405180910390fd5b60646007541061114c576040517f08c379a00000000000000000000000000000000000000000000000000000000081526004018080602001828103825260128152602001807f4c696d69742067656e302072656163686564000000000000000000000000000081525060200191505060405180910390fd5b611162600160075461226d90919063ffffffff16565b600781905550611177600080600085336122f5565b9050919050565b6000611188610e11565b82106111fc576040517f08c379a00000000000000000000000000000000000000000000000000000000081526004018080602001828103825260138152602001807f696e646578206f7574206f6620626f756e64730000000000000000000000000081525060200191505060405180910390fd5b819050919050565b6000806002600084815260200190815260200160002060009054906101000a900473ffffffffffffffffffffffffffffffffffffffff169050600073ffffffffffffffffffffffffffffffffffffffff168173ffffffffffffffffffffffffffffffffffffffff1614156112c3576040517f08c379a0000000000000000000000000000000000000000000000000000000008152600401808060200182810382526021815260200180612c356021913960400191505060405180910390fd5b80915050919050565b60008073ffffffffffffffffffffffffffffffffffffffff168273ffffffffffffffffffffffffffffffffffffffff161415611353576040517f08c379a0000000000000000000000000000000000000000000000000000000008152600401808060200182810382526022815260200180612ccd6022913960400191505060405180910390fd5b600460008373ffffffffffffffffffffffffffffffffffffffff1673ffffffffffffffffffffffffffffffffffffffff168152602001908152602001600020549050919050565b6113a26116e6565b611414576040517f08c379a00000000000000000000000000000000000000000000000000000000081526004018080602001828103825260208152602001807f4f776e61626c653a2063616c6c6572206973206e6f7420746865206f776e657281525060200191505060405180910390fd5b600073ffffffffffffffffffffffffffffffffffffffff166000809054906101000a900473ffffffffffffffffffffffffffffffffffffffff1673ffffffffffffffffffffffffffffffffffffffff167f8be0079c531659141344cd1fd0a4f28419497f9722a3daafe3b4186f6b6457e060405160405180910390a360008060006101000a81548173ffffffffffffffffffffffffffffffffffffffff021916908373ffffffffffffffffffffffffffffffffffffffff160217905550565b6060600073ffffffffffffffffffffffffffffffffffffffff168273ffffffffffffffffffffffffffffffffffffffff161415611578576040517f08c379a00000000000000000000000000000000000000000000000000000000081526004018080602001828103825260208152602001807f546f6b656e20717565727920666f7220746865207a65726f206164647265737381525060200191505060405180910390fd5b6000611583836112cc565b905060008114156115c75760006040519080825280602002602001820160405280156115be5781602001602082028038833980820191505090505b509150506116b8565b6060816040519080825280602002602001820160405280156115f85781602001602082028038833980820191505090505b5090506000611605610e11565b9050600080905060008090505b8281116116af578673ffffffffffffffffffffffffffffffffffffffff166002600083815260200190815260200160002060009054906101000a900473ffffffffffffffffffffffffffffffffffffffff1673ffffffffffffffffffffffffffffffffffffffff1614156116a2578084838151811061168d57fe5b60200260200101818152505081806001019250505b8080600101915050611612565b83955050505050505b919050565b60008060009054906101000a900473ffffffffffffffffffffffffffffffffffffffff16905090565b60008060009054906101000a900473ffffffffffffffffffffffffffffffffffffffff1673ffffffffffffffffffffffffffffffffffffffff163373ffffffffffffffffffffffffffffffffffffffff1614905090565b6040518060400160405280600381526020017f434154000000000000000000000000000000000000000000000000000000000081525081565b3373ffffffffffffffffffffffffffffffffffffffff168273ffffffffffffffffffffffffffffffffffffffff161415611818576040517f08c379a00000000000000000000000000000000000000000000000000000000081526004018080602001828103825260128152602001807f617070726f76616c20746f2063616c6c6572000000000000000000000000000081525060200191505060405180910390fd5b80600660003373ffffffffffffffffffffffffffffffffffffffff1673ffffffffffffffffffffffffffffffffffffffff16815260200190815260200160002060008473ffffffffffffffffffffffffffffffffffffffff1673ffffffffffffffffffffffffffffffffffffffff16815260200190815260200160002060006101000a81548160ff0219169083151502179055508173ffffffffffffffffffffffffffffffffffffffff163373ffffffffffffffffffffffffffffffffffffffff167f17307eab39ab6107e8899845ad3d59bd9653f200f220920489ca2b5937696c3183604051808215151515815260200191505060405180910390a35050565b611924338383610fc8565b5050565b60075481565b606481565b61193c82611e00565b6119ae576040517f08c379a00000000000000000000000000000000000000000000000000000000081526004018080602001828103825260118152602001807f6e6f6e6578697374656e7420746f6b656e00000000000000000000000000000081525060200191505060405180910390fd5b6119b83383611eb3565b611a2a576040517f08c379a000000000000000000000000000000000000000000000000000000000815260040180806020018281038252600e8152602001807f6e6f7420617574686f72697a656400000000000000000000000000000000000081525060200191505060405180910390fd5b611a36848484846124cf565b50505050565b6000611a483384611e72565b611aba576040517f08c379a000000000000000000000000000000000000000000000000000000000815260040180806020018281038252600d8152602001807f4e6f74206f776e206b697474790000000000000000000000000000000000000081525060200191505060405180910390fd5b611ac43383611e72565b611b36576040517f08c379a000000000000000000000000000000000000000000000000000000000815260040180806020018281038252600d8152602001807f4e6f74206f776e206b697474790000000000000000000000000000000000000081525060200191505060405180910390fd5b81831415611bac576040517f08c379a00000000000000000000000000000000000000000000000000000000081526004018080602001828103825260108152602001807f4c657473206e6f7420646f20746869730000000000000000000000000000000081525060200191505060405180910390fd5b600060018481548110611bbb57fe5b90600052602060002090600202019050600060018481548110611bda57fe5b906000526020600020906002020190506000611bfe8360000154836000015461255e565b90506000611c4b6001611c3d8660010160109054906101000a900461ffff1661ffff168660010160109054906101000a900461ffff1661ffff166126be565b61226d90919063ffffffff16565b90506000611c5c88888486336122f5565b90506005600088815260200190815260200160002081908060018154018082558091505090600182039060005260206000200160009091929091909150555060056000898152602001908152602001600020819080600181540180825580915050906001820390600052602060002001600090919290919091505550809550505050505092915050565b6000600660008473ffffffffffffffffffffffffffffffffffffffff1673ffffffffffffffffffffffffffffffffffffffff16815260200190815260200160002060008373ffffffffffffffffffffffffffffffffffffffff1673ffffffffffffffffffffffffffffffffffffffff16815260200190815260200160002060009054906101000a900460ff16905092915050565b611d826116e6565b611df4576040517f08c379a00000000000000000000000000000000000000000000000000000000081526004018080602001828103825260208152602001807f4f776e61626c653a2063616c6c6572206973206e6f7420746865206f776e657281525060200191505060405180910390fd5b611dfd816126d8565b50565b6000806002600084815260200190815260200160002060009054906101000a900473ffffffffffffffffffffffffffffffffffffffff169050600073ffffffffffffffffffffffffffffffffffffffff168173ffffffffffffffffffffffffffffffffffffffff161415915050919050565b60008273ffffffffffffffffffffffffffffffffffffffff16611e9483611204565b73ffffffffffffffffffffffffffffffffffffffff1614905092915050565b600080611ebf83611204565b90508073ffffffffffffffffffffffffffffffffffffffff168473ffffffffffffffffffffffffffffffffffffffff161480611f2e57508373ffffffffffffffffffffffffffffffffffffffff16611f1684610bb6565b73ffffffffffffffffffffffffffffffffffffffff16145b80611f3f5750611f3e8185611ce6565b5b91505092915050565b600073ffffffffffffffffffffffffffffffffffffffff168273ffffffffffffffffffffffffffffffffffffffff161415611feb576040517f08c379a000000000000000000000000000000000000000000000000000000000815260040180806020018281038252601c8152602001807f7472616e7366657220746f20746865207a65726f20616464726573730000000081525060200191505060405180910390fd5b3073ffffffffffffffffffffffffffffffffffffffff168273ffffffffffffffffffffffffffffffffffffffff16141561202457600080fd5b6120776001600460008573ffffffffffffffffffffffffffffffffffffffff1673ffffffffffffffffffffffffffffffffffffffff1681526020019081526020016000205461226d90919063ffffffff16565b600460008473ffffffffffffffffffffffffffffffffffffffff1673ffffffffffffffffffffffffffffffffffffffff16815260200190815260200160002081905550816002600083815260200190815260200160002060006101000a81548173ffffffffffffffffffffffffffffffffffffffff021916908373ffffffffffffffffffffffffffffffffffffffff160217905550600073ffffffffffffffffffffffffffffffffffffffff168373ffffffffffffffffffffffffffffffffffffffff161461220d576121936001600460008673ffffffffffffffffffffffffffffffffffffffff1673ffffffffffffffffffffffffffffffffffffffff1681526020019081526020016000205461281c90919063ffffffff16565b600460008573ffffffffffffffffffffffffffffffffffffffff1673ffffffffffffffffffffffffffffffffffffffff168152602001908152602001600020819055506003600082815260200190815260200160002060006101000a81549073ffffffffffffffffffffffffffffffffffffffff02191690555b808273ffffffffffffffffffffffffffffffffffffffff168473ffffffffffffffffffffffffffffffffffffffff167fddf252ad1be2c89b69c2b068fc378daa952ba7f163c4a11628f55a4df523b3ef60405160405180910390a4505050565b6000808284019050838110156122eb576040517f08c379a000000000000000000000000000000000000000000000000000000000815260040180806020018281038252601b8152602001807f536166654d6174683a206164646974696f6e206f766572666c6f77000000000081525060200191505060405180910390fd5b8091505092915050565b60006122ff612ba4565b6040518060a001604052808581526020014267ffffffffffffffff1681526020018863ffffffff1681526020018763ffffffff1681526020018661ffff168152509050600061243060018084908060018154018082558091505090600182039060005260206000209060020201600090919290919091506000820151816000015560208201518160010160006101000a81548167ffffffffffffffff021916908367ffffffffffffffff16021790555060408201518160010160086101000a81548163ffffffff021916908363ffffffff160217905550606082015181600101600c6101000a81548163ffffffff021916908363ffffffff16021790555060808201518160010160106101000a81548161ffff021916908361ffff160217905550505061281c90919063ffffffff16565b90507f0a5311bd2a6608f08a180df2ee7c5946819a649b204b554bb8e39825b2c50ad584828a8a89604051808673ffffffffffffffffffffffffffffffffffffffff1673ffffffffffffffffffffffffffffffffffffffff1681526020018581526020018481526020018381526020018281526020019550505050505060405180910390a16124c160008583611f48565b809250505095945050505050565b6124da848484611f48565b6124e684848484612866565b612558576040517f08c379a000000000000000000000000000000000000000000000000000000000815260040180806020018281038252601e8152602001807f7472616e7366657220746f206e6f6e204552433732315265636569766572000081525060200191505060405180910390fd5b50505050565b6000612568612bed565b6000612572612a39565b90506000600790506000600190505b60808111612613576000818460ff1616146125c157606487816125a057fe5b0660ff16848360ff16600881106125b357fe5b6020020181815250506125e8565b606486816125cb57fe5b0660ff16848360ff16600881106125de57fe5b6020020181815250505b606487816125f257fe5b049650606486816125ff57fe5b049550600182039150600281029050612581565b50600060078360ff168161262357fe5b06905060638360ff168161263357fe5b0660ff16848260ff166008811061264657fe5b602002018181525050600080600090505b60088110156126af5761268386826008811061266f57fe5b60200201518361226d90919063ffffffff16565b9150600781146126a4576126a1606483612a4b90919063ffffffff16565b91505b600181019050612657565b50809550505050505092915050565b6000818310156126ce57816126d0565b825b905092915050565b600073ffffffffffffffffffffffffffffffffffffffff168173ffffffffffffffffffffffffffffffffffffffff16141561275e576040517f08c379a0000000000000000000000000000000000000000000000000000000008152600401808060200182810382526026815260200180612c866026913960400191505060405180910390fd5b8073ffffffffffffffffffffffffffffffffffffffff166000809054906101000a900473ffffffffffffffffffffffffffffffffffffffff1673ffffffffffffffffffffffffffffffffffffffff167f8be0079c531659141344cd1fd0a4f28419497f9722a3daafe3b4186f6b6457e060405160405180910390a3806000806101000a81548173ffffffffffffffffffffffffffffffffffffffff021916908373ffffffffffffffffffffffffffffffffffffffff16021790555050565b600061285e83836040518060400160405280601e81526020017f536166654d6174683a207375627472616374696f6e206f766572666c6f770000815250612ad1565b905092915050565b600061287184612b91565b61287e5760019050612a31565b60008473ffffffffffffffffffffffffffffffffffffffff1663150b7a02338887876040518563ffffffff1660e01b8152600401808573ffffffffffffffffffffffffffffffffffffffff1673ffffffffffffffffffffffffffffffffffffffff1681526020018473ffffffffffffffffffffffffffffffffffffffff1673ffffffffffffffffffffffffffffffffffffffff16815260200183815260200180602001828103825283818151815260200191508051906020019080838360005b8381101561295957808201518184015260208101905061293e565b50505050905090810190601f1680156129865780820380516001836020036101000a031916815260200191505b5095505050505050602060405180830381600087803b1580156129a857600080fd5b505af11580156129bc573d6000803e3d6000fd5b505050506040513d60208110156129d257600080fd5b8101908080519060200190929190505050905063150b7a0260e01b7bffffffffffffffffffffffffffffffffffffffffffffffffffffffff1916817bffffffffffffffffffffffffffffffffffffffffffffffffffffffff1916149150505b949350505050565b600060ff4281612a4557fe5b06905090565b600080831415612a5e5760009050612acb565b6000828402905082848281612a6f57fe5b0414612ac6576040517f08c379a0000000000000000000000000000000000000000000000000000000008152600401808060200182810382526021815260200180612cac6021913960400191505060405180910390fd5b809150505b92915050565b6000838311158290612b7e576040517f08c379a00000000000000000000000000000000000000000000000000000000081526004018080602001828103825283818151815260200191508051906020019080838360005b83811015612b43578082015181840152602081019050612b28565b50505050905090810190601f168015612b705780820380516001836020036101000a031916815260200191505b509250505060405180910390fd5b5060008385039050809150509392505050565b600080823b905060008111915050919050565b6040518060a0016040528060008152602001600067ffffffffffffffff168152602001600063ffffffff168152602001600063ffffffff168152602001600061ffff1681525090565b60405180610100016040528060089060208202803883398082019150509050509056fe617070726f76656420717565727920666f72206e6f6e6578697374656e74206b697474794f776e657220717565727920666f72206e6f6e6578697374656e74206b69747479617070726f76652063616c6c6572206973206e6f74206f776e6572206e6f7220617070726f76656420666f7220616c6c4f776e61626c653a206e6577206f776e657220697320746865207a65726f2061646472657373536166654d6174683a206d756c7469706c69636174696f6e206f766572666c6f7742616c616e636520717565727920666f7220746865207a65726f2061646472657373a265627a7a723158202b269e85574082bf0cdda6c3bed1c6c9f6f3b42ea4eea1375bc01c4019c3078364736f6c63430005100032",
    "source": "pragma solidity 0.5.16;\n\nimport \"./TigerBreeding.sol\";\n\n/**\n * @title The TigerMinting contract responsible to create tigers.\n * @author Andrew Ayson\n */\ncontract TigerMinting is TigerBreeding {\n    /// @dev Limits the number of tigers the contract owner can ever create.\n    uint256 public constant CREATION_LIMIT_GEN0 = 100;\n\n    /// @dev Counts the number of tigers the contract owner has created.\n    uint256 public gen0Count;\n\n    /**\n     * @notice Creates a new gen0 tiger\n     * @dev Can only be called by owner and when limit has not be reached\n     * @return The id of the created tiger\n     */\n    function createGen0Tiger(uint256 _genes) external onlyOwner returns (uint256) {\n        require(gen0Count < CREATION_LIMIT_GEN0, \"Limit gen0 reached\");\n\n        gen0Count = gen0Count.add(1);\n\n        return _createTiger(0, 0, 0, _genes, msg.sender);\n    }\n}\n",
    "sourcePath": "/Users/bananaQ/Documents/own_projects/business/crypto-tigers/eth/contracts/TigerMinting.sol",
    "compiler": {
        "name": "solc",
        "version": "0.5.16+commit.9c3226ce.Emscripten.clang"
    },
    "schemaVersion": "3.4.3",
    "updatedAt": "2021-12-23T14:23:59.500Z",
    "devdoc": {
        "author": "Andrew Ayson",
        "methods": {
            "approve(address,uint256)": {
                "details": "[ERC721] The zero address indicates there is no approved address Requires - msg.sender is owner or approved opperator - cannot approve owner",
                "params": {
                    "_tigerId": "The tiger id that is approved for",
                    "_to": "The address."
                }
            },
            "balanceOf(address)": {
                "details": "[ERC721] Tigers assigned to the zero address are considered invalid, and this function throws for queries about the zero address",
                "params": {
                    "_owner": "The address to check"
                },
                "return": "The address of the owner of the tiger"
            },
            "breed(uint256,uint256)": {
                "params": {
                    "_dadId": "the id of the dad",
                    "_momId": "the id of the mom"
                }
            },
            "createGen0Tiger(uint256)": {
                "details": "Can only be called by owner and when limit has not be reached",
                "return": "The id of the created tiger"
            },
            "getApproved(uint256)": {
                "details": "[ERC721] Get the approval address of the tiger Requires - _tigerId must exist",
                "params": {
                    "_tigerId": "The tiger id"
                },
                "return": "The approved address for this tiger, or the zero address if there is none"
            },
            "getChildren(uint256)": {
                "params": {
                    "_tigerId": "the id of the mom"
                },
                "return": "array of ids of the children"
            },
            "isApprovedForAll(address,address)": {
                "details": "[ERC721]",
                "params": {
                    "_operator": "The operator",
                    "_owner": "The owner"
                },
                "return": "True if `_operator` is an approved operator for `_owner`, false otherwise"
            },
            "isOwner()": {
                "details": "Returns true if the caller is the current owner."
            },
            "owner()": {
                "details": "Returns the address of the current owner."
            },
            "ownerOf(uint256)": {
                "details": "[ERC721] Tigers assigned to the zero address are considered invalid, and this function throws for queries about the zero address",
                "return": "the address of the onwer of _tigerId"
            },
            "renounceOwnership()": {
                "details": "Leaves the contract without owner. It will not be possible to call `onlyOwner` functions anymore. Can only be called by the current owner.     * NOTE: Renouncing ownership will leave the contract without an owner, thereby removing any functionality that is only available to the owner."
            },
            "safeTransferFrom(address,address,uint256)": {
                "details": "[ERC721] Transfer implementation with a check on caller if it can accept ERC721 Requires - valid token - valid, non-zero _to address (via _transfer) - not to this address to prevent potential misuse (via _transfer) - msg.sender to be the owner, approved, or operator - when the caller is a smart contract, it should accept ERC721 tokens",
                "params": {
                    "_from": "current owner of the tiger",
                    "_tigerId": "uint256 id of the tiger to be transferred",
                    "_to": "address to receive the ownership of the given tiger id"
                }
            },
            "safeTransferFrom(address,address,uint256,bytes)": {
                "details": "[ERC721] This works identically to the other function with an extra data parameter except this function just sets data to \"\"",
                "params": {
                    "_data": "bytes data to send along with a safe transfer check",
                    "_from": "current owner of the tiger",
                    "_tigerId": "The id of the tiger to be transferred",
                    "_to": "address to receive the ownership of the given tiger id"
                }
            },
            "setApprovalForAll(address,bool)": {
                "details": "[ERC721] Emits the ApprovalForAll event. Requires - cannot approve self",
                "params": {
                    "_approved": "The approval status",
                    "_operator": "The tiger id"
                }
            },
            "supportsInterface(bytes4)": {
                "details": "Interface identification is specified in ERC-165. This function uses less than 30,000 gas.",
                "params": {
                    "_interfaceId": "The interface identifier, as specified in ERC-165"
                },
                "return": "true if the contract implements _interfaceId and _interfaceId is not 0xffffffff, false otherwise"
            },
            "tokenByIndex(uint256)": {
                "details": "[ERC721Enumerable] Requires: - _index < totalSupply()",
                "params": {
                    "_index": "A counter less than `totalSupply()`"
                },
                "return": "_index which is the same as the identifier"
            },
            "tokenOfOwnerByIndex(address,uint256)": {
                "details": "Gets the token ID at a given index of the tokens list of the requested owner.Be aware when calling this contract as its quite expensive because it loops through all tigers. Could potentially be optimized if we save all tigers also in an mapping of owners.",
                "params": {
                    "_index": "uint256 representing the index to be accessed of the requested tokens list",
                    "_owner": "address owning the tokens list to be accessed"
                },
                "return": "uint256 token ID at the given index of the tokens list owned by the requested address"
            },
            "tokensOfOwner(address)": {
                "details": "[ERC721Enumerable] Requires - _index < balanceOf(_owner) - _owner is  non-zero addressBe aware when calling this contract as its quite expensive because it loops through all tigers",
                "params": {
                    "_owner": "An address where we are interested in tigers owned by them"
                },
                "return": "The token identifier for the `_index`th tiger assigned to `_owner`,  (sort order not specified)"
            },
            "totalSupply()": {
                "details": "[ERC721Enumerable]",
                "return": "A count of valid tigers tracked by this contract, where each one of them has an assigned and queryable owner not equal to the zero address"
            },
            "transfer(address,uint256)": {
                "params": {
                    "_tigerId": "id of the tiger to be transferred",
                    "_to": "address to receive the ownership of the given tiger id"
                }
            },
            "transferFrom(address,address,uint256)": {
                "details": "[ERC721] Transfers the ownership of a given token id to another address Requires - valid token - valid, non-zero _to address (via _transfer) - not to this address to prevent potential misuse (via _transfer) - msg.sender to be the owner, approved, or operator",
                "params": {
                    "_from": "current owner of the tiger",
                    "_tigerId": "id of the tiger to be transferred",
                    "_to": "address to receive the ownership of the given tiger id"
                }
            },
            "transferOwnership(address)": {
                "details": "Transfers ownership of the contract to a new account (`newOwner`). Can only be called by the current owner."
            }
        },
        "title": "The TigerMinting contract responsible to create tigers."
    },
    "userdoc": {
        "methods": {
            "approve(address,uint256)": {
                "notice": "Change or reaffirm the approved address for an tiger"
            },
            "balanceOf(address)": {
                "notice": "Count all Tigers assigned to an owner"
            },
            "breed(uint256,uint256)": {
                "notice": "Breed a new tiger based on a mom and dad"
            },
            "createGen0Tiger(uint256)": {
                "notice": "Creates a new gen0 tiger"
            },
            "getApproved(uint256)": {
                "notice": "Get the approved address for a single tiger"
            },
            "getChildren(uint256)": {
                "notice": "Get all the children of a tigerId"
            },
            "isApprovedForAll(address,address)": {
                "notice": "Query if an address is an authorized operator for another address"
            },
            "ownerOf(uint256)": {
                "notice": "Find the owner of an Tiger"
            },
            "safeTransferFrom(address,address,uint256)": {
                "notice": "Transfers the ownership of an Tiger from one address to another address"
            },
            "safeTransferFrom(address,address,uint256,bytes)": {
                "notice": "Transfers the ownership of an Tiger from one address to another address"
            },
            "setApprovalForAll(address,bool)": {
                "notice": "Enable or disable approval for a third party (\"operator\") to manage all of `msg.sender`'s assets"
            },
            "supportsInterface(bytes4)": {
                "notice": "Query if a contract implements an interface"
            },
            "tokenByIndex(uint256)": {
                "notice": "Enumerate valid tigers"
            },
            "tokensOfOwner(address)": {
                "notice": "Returns a list of all Tiger IDs assigned to an address."
            },
            "totalSupply()": {
                "notice": "Count tigers tracked by this contract"
            },
            "transfer(address,uint256)": {
                "notice": "Transfers the ownership of an own Tiger to another address"
            },
            "transferFrom(address,address,uint256)": {
                "notice": "Transfer ownership of a Tiger -- THE CALLER IS RESPONSIBLE TO CONFIRM THAT `_to` IS CAPABLE OF RECEIVING TIGERS OR ELSE THEY MAY BE PERMANENTLY LOST"
            }
        }
    }
}