{
  "contractName": "TigerBase",
  "abi": [
    {
      "anonymous": false,
      "inputs": [
        {
          "indexed": true,
          "internalType": "address",
          "name": "_owner",
          "type": "address"
        },
        {
          "indexed": true,
          "internalType": "address",
          "name": "_approved",
          "type": "address"
        },
        {
          "indexed": true,
          "internalType": "uint256",
          "name": "_tigerId",
          "type": "uint256"
        }
      ],
      "name": "Approval",
      "type": "event"
    },
    {
      "anonymous": false,
      "inputs": [
        {
          "indexed": true,
          "internalType": "address",
          "name": "_owner",
          "type": "address"
        },
        {
          "indexed": true,
          "internalType": "address",
          "name": "_operator",
          "type": "address"
        },
        {
          "indexed": false,
          "internalType": "bool",
          "name": "_approved",
          "type": "bool"
        }
      ],
      "name": "ApprovalForAll",
      "type": "event"
    },
    {
      "anonymous": false,
      "inputs": [
        {
          "indexed": false,
          "internalType": "address",
          "name": "owner",
          "type": "address"
        },
        {
          "indexed": false,
          "internalType": "uint256",
          "name": "tigerId",
          "type": "uint256"
        },
        {
          "indexed": false,
          "internalType": "uint256",
          "name": "momId",
          "type": "uint256"
        },
        {
          "indexed": false,
          "internalType": "uint256",
          "name": "dadId",
          "type": "uint256"
        },
        {
          "indexed": false,
          "internalType": "uint256",
          "name": "genes",
          "type": "uint256"
        }
      ],
      "name": "Birth",
      "type": "event"
    },
    {
      "anonymous": false,
      "inputs": [
        {
          "indexed": true,
          "internalType": "address",
          "name": "previousOwner",
          "type": "address"
        },
        {
          "indexed": true,
          "internalType": "address",
          "name": "newOwner",
          "type": "address"
        }
      ],
      "name": "OwnershipTransferred",
      "type": "event"
    },
    {
      "anonymous": false,
      "inputs": [
        {
          "indexed": true,
          "internalType": "address",
          "name": "from",
          "type": "address"
        },
        {
          "indexed": true,
          "internalType": "address",
          "name": "to",
          "type": "address"
        },
        {
          "indexed": true,
          "internalType": "uint256",
          "name": "tigerId",
          "type": "uint256"
        }
      ],
      "name": "Transfer",
      "type": "event"
    },
    {
      "constant": true,
      "inputs": [],
      "name": "isOwner",
      "outputs": [
        {
          "internalType": "bool",
          "name": "",
          "type": "bool"
        }
      ],
      "payable": false,
      "stateMutability": "view",
      "type": "function"
    },
    {
      "constant": true,
      "inputs": [],
      "name": "owner",
      "outputs": [
        {
          "internalType": "address",
          "name": "",
          "type": "address"
        }
      ],
      "payable": false,
      "stateMutability": "view",
      "type": "function"
    },
    {
      "constant": false,
      "inputs": [],
      "name": "renounceOwnership",
      "outputs": [],
      "payable": false,
      "stateMutability": "nonpayable",
      "type": "function"
    },
    {
      "constant": false,
      "inputs": [
        {
          "internalType": "address",
          "name": "newOwner",
          "type": "address"
        }
      ],
      "name": "transferOwnership",
      "outputs": [],
      "payable": false,
      "stateMutability": "nonpayable",
      "type": "function"
    }
  ],
  "bytecode": "0x6080604052336000806101000a81548173ffffffffffffffffffffffffffffffffffffffff021916908373ffffffffffffffffffffffffffffffffffffffff1602179055503373ffffffffffffffffffffffffffffffffffffffff16600073ffffffffffffffffffffffffffffffffffffffff167f8be0079c531659141344cd1fd0a4f28419497f9722a3daafe3b4186f6b6457e060405160405180910390a36104e9806100ae6000396000f3fe608060405234801561001057600080fd5b506004361061004c5760003560e01c8063715018a6146100515780638da5cb5b1461005b5780638f32d59b146100a5578063f2fde38b146100c7575b600080fd5b61005961010b565b005b610063610244565b604051808273ffffffffffffffffffffffffffffffffffffffff1673ffffffffffffffffffffffffffffffffffffffff16815260200191505060405180910390f35b6100ad61026d565b604051808215151515815260200191505060405180910390f35b610109600480360360208110156100dd57600080fd5b81019080803573ffffffffffffffffffffffffffffffffffffffff1690602001909291905050506102c4565b005b61011361026d565b610185576040517f08c379a00000000000000000000000000000000000000000000000000000000081526004018080602001828103825260208152602001807f4f776e61626c653a2063616c6c6572206973206e6f7420746865206f776e657281525060200191505060405180910390fd5b600073ffffffffffffffffffffffffffffffffffffffff166000809054906101000a900473ffffffffffffffffffffffffffffffffffffffff1673ffffffffffffffffffffffffffffffffffffffff167f8be0079c531659141344cd1fd0a4f28419497f9722a3daafe3b4186f6b6457e060405160405180910390a360008060006101000a81548173ffffffffffffffffffffffffffffffffffffffff021916908373ffffffffffffffffffffffffffffffffffffffff160217905550565b60008060009054906101000a900473ffffffffffffffffffffffffffffffffffffffff16905090565b60008060009054906101000a900473ffffffffffffffffffffffffffffffffffffffff1673ffffffffffffffffffffffffffffffffffffffff163373ffffffffffffffffffffffffffffffffffffffff1614905090565b6102cc61026d565b61033e576040517f08c379a00000000000000000000000000000000000000000000000000000000081526004018080602001828103825260208152602001807f4f776e61626c653a2063616c6c6572206973206e6f7420746865206f776e657281525060200191505060405180910390fd5b6103478161034a565b50565b600073ffffffffffffffffffffffffffffffffffffffff168173ffffffffffffffffffffffffffffffffffffffff1614156103d0576040517f08c379a000000000000000000000000000000000000000000000000000000000815260040180806020018281038252602681526020018061048f6026913960400191505060405180910390fd5b8073ffffffffffffffffffffffffffffffffffffffff166000809054906101000a900473ffffffffffffffffffffffffffffffffffffffff1673ffffffffffffffffffffffffffffffffffffffff167f8be0079c531659141344cd1fd0a4f28419497f9722a3daafe3b4186f6b6457e060405160405180910390a3806000806101000a81548173ffffffffffffffffffffffffffffffffffffffff021916908373ffffffffffffffffffffffffffffffffffffffff1602179055505056fe4f776e61626c653a206e6577206f776e657220697320746865207a65726f2061646472657373a265627a7a7231582057bdf5983fdab6d5c66e0c56aaa9b8ccd624942f63472c30b73fe775e0e2a72564736f6c63430005100032",
  "source": "pragma solidity 0.5.16;\n\nimport \"./utils/SafeMath.sol\";\nimport \"./utils/Ownable.sol\";\n\n/**\n * @title The base contract that contains the base logic, structs and data that are needed\n * @author Andrew Ayson\n */\ncontract TigerBase is Ownable {\n    using SafeMath for uint256;\n\n    /**\n     * @dev The Birth event is fired every time a new Tiger is created.\n     * This includes the creation through breeding and creation via gen0\n     */\n    event Birth(\n        address owner,\n        uint256 tigerId,\n        uint256 momId,\n        uint256 dadId,\n        uint256 genes\n    );\n\n    /**\n     * @dev [ERC721] This emits when ownership of a Tiger changes by any mechanism.\n     * This event emits when Tigers are created (`from` == 0) and destroyed\n     * (`to` == 0). Exception: during contract creation, any number of Tigers\n     * may be created and assigned without emitting Transfer. At the time of\n     * any transfer, the approved address for that Tiger (if any) is reset to none.\n     */\n    event Transfer(\n        address indexed from,\n        address indexed to,\n        uint256 indexed tigerId\n    );\n\n    /**\n     * @dev [ERC721]  This emits when the approved address for an Tiger is changed or\n     * reaffirmed. The zero address indicates there is no approved address.\n     * When a Transfer event emits, this also indicates that the approved\n     * address for that Tiger (if any) is reset to none.\n     */\n    event Approval(\n        address indexed _owner,\n        address indexed _approved,\n        uint256 indexed _tigerId\n    );\n\n    /**\n     * @dev This emits when an operator is enabled or disabled for an owner.\n     * The operator can manage all Tigers of the owner.\n     */\n    event ApprovalForAll(\n        address indexed _owner,\n        address indexed _operator,\n        bool _approved\n    );\n\n    /**\n     * @dev The main Tiger struct, that contains all info about a tiger\n     */\n    struct Tiger {\n        // The unique genes of this tiger\n        uint256 genes;\n        // The timestamp from the block when the tiger was born\n        uint64 birthTime;\n        // The references to its parents, set to 0 for gen0 tigers\n        uint32 momId;\n        uint32 dadId;\n        // The genereation of the tiger. Tigers start with gen0,\n        // and each breeded generation will have a higher generation number\n        uint16 generation;\n    }\n\n    /**\n     * @dev An array containing all tigers\n     */\n    Tiger[] internal _tigers;\n\n    /// @dev Mapping from tiger id to owner address, must be a valid non-0 address\n    mapping(uint256 => address) internal _tigerIdToOwner;\n    /// @dev Mapping from tiger id to approved address\n    mapping(uint256 => address) internal _tigerIdToApproved;\n    /// @dev Mapping from owner to number of owned tiger\n    mapping(address => uint256) internal _ownedTigersCount;\n    /// @dev Mapping from tiger id to number of children\n    mapping(uint256 => uint256[]) internal _tigerToChildren;\n\n    /// @dev Mapping from owner to operator approvals\n    mapping(address => mapping(address => bool)) internal _operatorApprovals;\n\n    /**\n     * @dev Assign ownership of a specific Tiger to an address.\n     * @dev This poses no restriction on msg.sender\n     * @param _from The address from who to transfer from, can be 0 for creation of a tiger\n     * @param _to The address to who to transfer to, cannot be 0 address\n     * @param _tigerId The id of the transfering tiger,\n     */\n    function _transfer(\n        address _from,\n        address _to,\n        uint256 _tigerId\n    ) internal {\n        require(_to != address(0), \"transfer to the zero address\");\n        require(_to != address(this));\n\n        _ownedTigersCount[_to] = _ownedTigersCount[_to].add(1);\n        _tigerIdToOwner[_tigerId] = _to;\n\n        if (_from != address(0)) {\n            _ownedTigersCount[_from] = _ownedTigersCount[_from].sub(1);\n            delete _tigerIdToApproved[_tigerId];\n        }\n\n        emit Transfer(_from, _to, _tigerId);\n    }\n\n    /**\n     * @dev Logic for creation of a tiger, via gen0 creation or breeding.\n     * @param _momId The mother of the tiger (0 for gen0)\n     * @param _dadId The dad of the tiger (0 for gen0)\n     * @param _generation The generation number of this tiger, must be computed by caller\n     * @param _genes The generic code, must be computed by the caller\n     * @param _owner The initial owner, must be non-zero\n     * @return The id of the created tiger\n     */\n    function _createTiger(\n        uint256 _momId,\n        uint256 _dadId,\n        uint256 _generation,\n        uint256 _genes,\n        address _owner\n    ) internal returns (uint256) {\n        Tiger memory _tiger = Tiger({\n            genes: _genes,\n            birthTime: uint64(block.timestamp),\n            momId: uint32(_momId),\n            dadId: uint32(_dadId),\n            generation: uint16(_generation)\n        });\n\n        uint256 newtigerId = _tigers.push(_tiger).sub(1);\n\n        emit Birth(_owner, newtigerId, _momId, _dadId, _genes);\n\n        _transfer(address(0), _owner, newtigerId);\n\n        return newtigerId;\n    }\n}\n",
  "sourcePath": "/Users/bananaQ/Documents/own_projects/business/crypto_tigers/backend/contracts/TigerBase.sol",
  "compiler": {
    "name": "solc",
    "version": "0.5.16+commit.9c3226ce.Emscripten.clang"
  },
  "schemaVersion": "3.4.3",
  "updatedAt": "2021-12-25T14:21:30.150Z",
  "devdoc": {
    "author": "Andrew Ayson",
    "methods": {
      "isOwner()": {
        "details": "Returns true if the caller is the current owner."
      },
      "owner()": {
        "details": "Returns the address of the current owner."
      },
      "renounceOwnership()": {
        "details": "Leaves the contract without owner. It will not be possible to call `onlyOwner` functions anymore. Can only be called by the current owner.     * NOTE: Renouncing ownership will leave the contract without an owner, thereby removing any functionality that is only available to the owner."
      },
      "transferOwnership(address)": {
        "details": "Transfers ownership of the contract to a new account (`newOwner`). Can only be called by the current owner."
      }
    },
    "title": "The base contract that contains the base logic, structs and data that are needed"
  },
  "userdoc": {
    "methods": {}
  }
}