{
  "contractName": "TigerCore",
  "abi": [
    {
      "anonymous": false,
      "inputs": [
        {
          "indexed": true,
          "internalType": "address",
          "name": "owner",
          "type": "address"
        },
        {
          "indexed": true,
          "internalType": "address",
          "name": "approved",
          "type": "address"
        },
        {
          "indexed": true,
          "internalType": "uint256",
          "name": "tokenId",
          "type": "uint256"
        }
      ],
      "name": "Approval",
      "type": "event"
    },
    {
      "anonymous": false,
      "inputs": [
        {
          "indexed": true,
          "internalType": "address",
          "name": "owner",
          "type": "address"
        },
        {
          "indexed": true,
          "internalType": "address",
          "name": "operator",
          "type": "address"
        },
        {
          "indexed": false,
          "internalType": "bool",
          "name": "approved",
          "type": "bool"
        }
      ],
      "name": "ApprovalForAll",
      "type": "event"
    },
    {
      "anonymous": false,
      "inputs": [
        {
          "indexed": false,
          "internalType": "address",
          "name": "owner",
          "type": "address"
        },
        {
          "indexed": false,
          "internalType": "uint256",
          "name": "tigerId",
          "type": "uint256"
        },
        {
          "indexed": false,
          "internalType": "uint256",
          "name": "momId",
          "type": "uint256"
        },
        {
          "indexed": false,
          "internalType": "uint256",
          "name": "dadId",
          "type": "uint256"
        },
        {
          "indexed": false,
          "internalType": "uint256",
          "name": "genes",
          "type": "uint256"
        }
      ],
      "name": "Birth",
      "type": "event"
    },
    {
      "anonymous": false,
      "inputs": [
        {
          "indexed": false,
          "internalType": "string",
          "name": "TxType",
          "type": "string"
        },
        {
          "indexed": false,
          "internalType": "address",
          "name": "owner",
          "type": "address"
        },
        {
          "indexed": false,
          "internalType": "uint256",
          "name": "tokenId",
          "type": "uint256"
        }
      ],
      "name": "BreedTransaction",
      "type": "event"
    },
    {
      "anonymous": false,
      "inputs": [
        {
          "indexed": true,
          "internalType": "address",
          "name": "previousOwner",
          "type": "address"
        },
        {
          "indexed": true,
          "internalType": "address",
          "name": "newOwner",
          "type": "address"
        }
      ],
      "name": "OwnershipTransferred",
      "type": "event"
    },
    {
      "anonymous": false,
      "inputs": [
        {
          "indexed": true,
          "internalType": "address",
          "name": "from",
          "type": "address"
        },
        {
          "indexed": true,
          "internalType": "address",
          "name": "to",
          "type": "address"
        },
        {
          "indexed": true,
          "internalType": "uint256",
          "name": "tokenId",
          "type": "uint256"
        }
      ],
      "name": "Transfer",
      "type": "event"
    },
    {
      "constant": true,
      "inputs": [],
      "name": "CREATION_LIMIT_GEN0",
      "outputs": [
        {
          "internalType": "uint256",
          "name": "",
          "type": "uint256"
        }
      ],
      "payable": false,
      "stateMutability": "view",
      "type": "function"
    },
    {
      "constant": false,
      "inputs": [
        {
          "internalType": "address",
          "name": "_to",
          "type": "address"
        },
        {
          "internalType": "uint256",
          "name": "_tigerId",
          "type": "uint256"
        }
      ],
      "name": "approve",
      "outputs": [],
      "payable": false,
      "stateMutability": "nonpayable",
      "type": "function"
    },
    {
      "constant": true,
      "inputs": [
        {
          "internalType": "address",
          "name": "_owner",
          "type": "address"
        }
      ],
      "name": "balanceOf",
      "outputs": [
        {
          "internalType": "uint256",
          "name": "",
          "type": "uint256"
        }
      ],
      "payable": false,
      "stateMutability": "view",
      "type": "function"
    },
    {
      "constant": false,
      "inputs": [
        {
          "internalType": "uint256",
          "name": "_momId",
          "type": "uint256"
        },
        {
          "internalType": "uint256",
          "name": "_dadId",
          "type": "uint256"
        }
      ],
      "name": "breed",
      "outputs": [],
      "payable": true,
      "stateMutability": "payable",
      "type": "function"
    },
    {
      "constant": false,
      "inputs": [
        {
          "internalType": "uint256",
          "name": "_genes",
          "type": "uint256"
        }
      ],
      "name": "createGen0Tiger",
      "outputs": [
        {
          "internalType": "uint256",
          "name": "",
          "type": "uint256"
        }
      ],
      "payable": false,
      "stateMutability": "nonpayable",
      "type": "function"
    },
    {
      "constant": true,
      "inputs": [],
      "name": "gen0Count",
      "outputs": [
        {
          "internalType": "uint256",
          "name": "",
          "type": "uint256"
        }
      ],
      "payable": false,
      "stateMutability": "view",
      "type": "function"
    },
    {
      "constant": true,
      "inputs": [
        {
          "internalType": "uint256",
          "name": "_tigerId",
          "type": "uint256"
        }
      ],
      "name": "getApproved",
      "outputs": [
        {
          "internalType": "address",
          "name": "",
          "type": "address"
        }
      ],
      "payable": false,
      "stateMutability": "view",
      "type": "function"
    },
    {
      "constant": true,
      "inputs": [
        {
          "internalType": "uint256",
          "name": "_tigerId",
          "type": "uint256"
        }
      ],
      "name": "getChildren",
      "outputs": [
        {
          "internalType": "uint256[]",
          "name": "",
          "type": "uint256[]"
        }
      ],
      "payable": false,
      "stateMutability": "view",
      "type": "function"
    },
    {
      "constant": true,
      "inputs": [
        {
          "internalType": "address",
          "name": "_owner",
          "type": "address"
        },
        {
          "internalType": "address",
          "name": "_operator",
          "type": "address"
        }
      ],
      "name": "isApprovedForAll",
      "outputs": [
        {
          "internalType": "bool",
          "name": "",
          "type": "bool"
        }
      ],
      "payable": false,
      "stateMutability": "view",
      "type": "function"
    },
    {
      "constant": true,
      "inputs": [],
      "name": "isOwner",
      "outputs": [
        {
          "internalType": "bool",
          "name": "",
          "type": "bool"
        }
      ],
      "payable": false,
      "stateMutability": "view",
      "type": "function"
    },
    {
      "constant": true,
      "inputs": [],
      "name": "name",
      "outputs": [
        {
          "internalType": "string",
          "name": "",
          "type": "string"
        }
      ],
      "payable": false,
      "stateMutability": "view",
      "type": "function"
    },
    {
      "constant": true,
      "inputs": [],
      "name": "owner",
      "outputs": [
        {
          "internalType": "address",
          "name": "",
          "type": "address"
        }
      ],
      "payable": false,
      "stateMutability": "view",
      "type": "function"
    },
    {
      "constant": true,
      "inputs": [
        {
          "internalType": "uint256",
          "name": "_tigerId",
          "type": "uint256"
        }
      ],
      "name": "ownerOf",
      "outputs": [
        {
          "internalType": "address",
          "name": "",
          "type": "address"
        }
      ],
      "payable": false,
      "stateMutability": "view",
      "type": "function"
    },
    {
      "constant": false,
      "inputs": [],
      "name": "renounceOwnership",
      "outputs": [],
      "payable": false,
      "stateMutability": "nonpayable",
      "type": "function"
    },
    {
      "constant": false,
      "inputs": [
        {
          "internalType": "address",
          "name": "_from",
          "type": "address"
        },
        {
          "internalType": "address",
          "name": "_to",
          "type": "address"
        },
        {
          "internalType": "uint256",
          "name": "_tigerId",
          "type": "uint256"
        }
      ],
      "name": "safeTransferFrom",
      "outputs": [],
      "payable": false,
      "stateMutability": "nonpayable",
      "type": "function"
    },
    {
      "constant": false,
      "inputs": [
        {
          "internalType": "address",
          "name": "_from",
          "type": "address"
        },
        {
          "internalType": "address",
          "name": "_to",
          "type": "address"
        },
        {
          "internalType": "uint256",
          "name": "_tigerId",
          "type": "uint256"
        },
        {
          "internalType": "bytes",
          "name": "_data",
          "type": "bytes"
        }
      ],
      "name": "safeTransferFrom",
      "outputs": [],
      "payable": false,
      "stateMutability": "nonpayable",
      "type": "function"
    },
    {
      "constant": false,
      "inputs": [
        {
          "internalType": "address",
          "name": "_operator",
          "type": "address"
        },
        {
          "internalType": "bool",
          "name": "_approved",
          "type": "bool"
        }
      ],
      "name": "setApprovalForAll",
      "outputs": [],
      "payable": false,
      "stateMutability": "nonpayable",
      "type": "function"
    },
    {
      "constant": true,
      "inputs": [
        {
          "internalType": "bytes4",
          "name": "_interfaceId",
          "type": "bytes4"
        }
      ],
      "name": "supportsInterface",
      "outputs": [
        {
          "internalType": "bool",
          "name": "",
          "type": "bool"
        }
      ],
      "payable": false,
      "stateMutability": "view",
      "type": "function"
    },
    {
      "constant": true,
      "inputs": [],
      "name": "symbol",
      "outputs": [
        {
          "internalType": "string",
          "name": "",
          "type": "string"
        }
      ],
      "payable": false,
      "stateMutability": "view",
      "type": "function"
    },
    {
      "constant": true,
      "inputs": [
        {
          "internalType": "uint256",
          "name": "_index",
          "type": "uint256"
        }
      ],
      "name": "tokenByIndex",
      "outputs": [
        {
          "internalType": "uint256",
          "name": "",
          "type": "uint256"
        }
      ],
      "payable": false,
      "stateMutability": "view",
      "type": "function"
    },
    {
      "constant": true,
      "inputs": [
        {
          "internalType": "address",
          "name": "_owner",
          "type": "address"
        },
        {
          "internalType": "uint256",
          "name": "_index",
          "type": "uint256"
        }
      ],
      "name": "tokenOfOwnerByIndex",
      "outputs": [
        {
          "internalType": "uint256",
          "name": "",
          "type": "uint256"
        }
      ],
      "payable": false,
      "stateMutability": "view",
      "type": "function"
    },
    {
      "constant": true,
      "inputs": [
        {
          "internalType": "address",
          "name": "_owner",
          "type": "address"
        }
      ],
      "name": "tokensOfOwner",
      "outputs": [
        {
          "internalType": "uint256[]",
          "name": "",
          "type": "uint256[]"
        }
      ],
      "payable": false,
      "stateMutability": "view",
      "type": "function"
    },
    {
      "constant": true,
      "inputs": [],
      "name": "totalSupply",
      "outputs": [
        {
          "internalType": "uint256",
          "name": "",
          "type": "uint256"
        }
      ],
      "payable": false,
      "stateMutability": "view",
      "type": "function"
    },
    {
      "constant": false,
      "inputs": [
        {
          "internalType": "address",
          "name": "_to",
          "type": "address"
        },
        {
          "internalType": "uint256",
          "name": "_tigerId",
          "type": "uint256"
        }
      ],
      "name": "transfer",
      "outputs": [],
      "payable": false,
      "stateMutability": "nonpayable",
      "type": "function"
    },
    {
      "constant": false,
      "inputs": [
        {
          "internalType": "address",
          "name": "_from",
          "type": "address"
        },
        {
          "internalType": "address",
          "name": "_to",
          "type": "address"
        },
        {
          "internalType": "uint256",
          "name": "_tigerId",
          "type": "uint256"
        }
      ],
      "name": "transferFrom",
      "outputs": [],
      "payable": false,
      "stateMutability": "nonpayable",
      "type": "function"
    },
    {
      "constant": false,
      "inputs": [
        {
          "internalType": "address",
          "name": "newOwner",
          "type": "address"
        }
      ],
      "name": "transferOwnership",
      "outputs": [],
      "payable": false,
      "stateMutability": "nonpayable",
      "type": "function"
    },
    {
      "constant": true,
      "inputs": [
        {
          "internalType": "uint256",
          "name": "_tigerId",
          "type": "uint256"
        }
      ],
      "name": "getTiger",
      "outputs": [
        {
          "internalType": "uint256",
          "name": "genes",
          "type": "uint256"
        },
        {
          "internalType": "uint256",
          "name": "birthTime",
          "type": "uint256"
        },
        {
          "internalType": "uint256",
          "name": "dadId",
          "type": "uint256"
        },
        {
          "internalType": "uint256",
          "name": "momId",
          "type": "uint256"
        },
        {
          "internalType": "uint256",
          "name": "generation",
          "type": "uint256"
        }
      ],
      "payable": false,
      "stateMutability": "view",
      "type": "function"
    }
  ],
  "bytecode": "0x6080604052336000806101000a81548173ffffffffffffffffffffffffffffffffffffffff021916908373ffffffffffffffffffffffffffffffffffffffff1602179055503373ffffffffffffffffffffffffffffffffffffffff16600073ffffffffffffffffffffffffffffffffffffffff167f8be0079c531659141344cd1fd0a4f28419497f9722a3daafe3b4186f6b6457e060405160405180910390a3612f92806100ae6000396000f3fe60806040526004361061019c5760003560e01c80637394d6f4116100ec578063a9059cbb1161008a578063b88d4fde11610064578063b88d4fde14610a63578063d9ecad7b14610b75578063e985e9c514610bc1578063f2fde38b14610c4a5761019c565b8063a9059cbb146109b2578063b30387a414610a0d578063b483433014610a385761019c565b80638da5cb5b116100c65780638da5cb5b1461083f5780638f32d59b1461089657806395d89b41146108c5578063a22cb465146109555761019c565b80637394d6f4146106df578063810c92361461074a5780638462151c146107995761019c565b80632f745c59116101595780634f6ccce7116101335780634f6ccce7146105995780636352211e146105e857806370a0823114610663578063715018a6146106c85761019c565b80632f745c591461041f57806342842e0e1461048e57806349ae8dc3146105095761019c565b806301ffc9a7146101a157806306fdde0314610213578063081812fc146102a3578063095ea7b31461031e57806318160ddd1461037957806323b872dd146103a4575b600080fd5b3480156101ad57600080fd5b506101f9600480360360208110156101c457600080fd5b8101908080357bffffffffffffffffffffffffffffffffffffffffffffffffffffffff19169060200190929190505050610c9b565b604051808215151515815260200191505060405180910390f35b34801561021f57600080fd5b50610228610d3b565b6040518080602001828103825283818151815260200191508051906020019080838360005b8381101561026857808201518184015260208101905061024d565b50505050905090810190601f1680156102955780820380516001836020036101000a031916815260200191505b509250505060405180910390f35b3480156102af57600080fd5b506102dc600480360360208110156102c657600080fd5b8101908080359060200190929190505050610d74565b604051808273ffffffffffffffffffffffffffffffffffffffff1673ffffffffffffffffffffffffffffffffffffffff16815260200191505060405180910390f35b34801561032a57600080fd5b506103776004803603604081101561034157600080fd5b81019080803573ffffffffffffffffffffffffffffffffffffffff16906020019092919080359060200190929190505050610e0f565b005b34801561038557600080fd5b5061038e610fcf565b6040518082815260200191505060405180910390f35b3480156103b057600080fd5b5061041d600480360360608110156103c757600080fd5b81019080803573ffffffffffffffffffffffffffffffffffffffff169060200190929190803573ffffffffffffffffffffffffffffffffffffffff16906020019092919080359060200190929190505050610fdc565b005b34801561042b57600080fd5b506104786004803603604081101561044257600080fd5b81019080803573ffffffffffffffffffffffffffffffffffffffff169060200190929190803590602001909291905050506110e3565b6040518082815260200191505060405180910390f35b34801561049a57600080fd5b50610507600480360360608110156104b157600080fd5b81019080803573ffffffffffffffffffffffffffffffffffffffff169060200190929190803573ffffffffffffffffffffffffffffffffffffffff16906020019092919080359060200190929190505050611186565b005b34801561051557600080fd5b506105426004803603602081101561052c57600080fd5b81019080803590602001909291905050506111a6565b6040518080602001828103825283818151815260200191508051906020019060200280838360005b8381101561058557808201518184015260208101905061056a565b505050509050019250505060405180910390f35b3480156105a557600080fd5b506105d2600480360360208110156105bc57600080fd5b8101908080359060200190929190505050611216565b6040518082815260200191505060405180910390f35b3480156105f457600080fd5b506106216004803603602081101561060b57600080fd5b810190808035906020019092919050505061129c565b604051808273ffffffffffffffffffffffffffffffffffffffff1673ffffffffffffffffffffffffffffffffffffffff16815260200191505060405180910390f35b34801561066f57600080fd5b506106b26004803603602081101561068657600080fd5b81019080803573ffffffffffffffffffffffffffffffffffffffff169060200190929190505050611364565b6040518082815260200191505060405180910390f35b3480156106d457600080fd5b506106dd611432565b005b3480156106eb57600080fd5b506107186004803603602081101561070257600080fd5b810190808035906020019092919050505061156b565b604051808681526020018581526020018481526020018381526020018281526020019550505050505060405180910390f35b34801561075657600080fd5b506107836004803603602081101561076d57600080fd5b810190808035906020019092919050505061161a565b6040518082815260200191505060405180910390f35b3480156107a557600080fd5b506107e8600480360360208110156107bc57600080fd5b81019080803573ffffffffffffffffffffffffffffffffffffffff169060200190929190505050611741565b6040518080602001828103825283818151815260200191508051906020019060200280838360005b8381101561082b578082015181840152602081019050610810565b505050509050019250505060405180910390f35b34801561084b57600080fd5b5061085461192b565b604051808273ffffffffffffffffffffffffffffffffffffffff1673ffffffffffffffffffffffffffffffffffffffff16815260200191505060405180910390f35b3480156108a257600080fd5b506108ab611954565b604051808215151515815260200191505060405180910390f35b3480156108d157600080fd5b506108da6119ab565b6040518080602001828103825283818151815260200191508051906020019080838360005b8381101561091a5780820151818401526020810190506108ff565b50505050905090810190601f1680156109475780820380516001836020036101000a031916815260200191505b509250505060405180910390f35b34801561096157600080fd5b506109b06004803603604081101561097857600080fd5b81019080803573ffffffffffffffffffffffffffffffffffffffff1690602001909291908035151590602001909291905050506119e4565b005b3480156109be57600080fd5b50610a0b600480360360408110156109d557600080fd5b81019080803573ffffffffffffffffffffffffffffffffffffffff16906020019092919080359060200190929190505050611b87565b005b348015610a1957600080fd5b50610a22611b96565b6040518082815260200191505060405180910390f35b348015610a4457600080fd5b50610a4d611b9c565b6040518082815260200191505060405180910390f35b348015610a6f57600080fd5b50610b7360048036036080811015610a8657600080fd5b81019080803573ffffffffffffffffffffffffffffffffffffffff169060200190929190803573ffffffffffffffffffffffffffffffffffffffff1690602001909291908035906020019092919080359060200190640100000000811115610aed57600080fd5b820183602082011115610aff57600080fd5b80359060200191846001830284011164010000000083111715610b2157600080fd5b91908080601f016020809104026020016040519081016040528093929190818152602001838380828437600081840152601f19601f820116905080830192505050505050509192919290505050611ba2565b005b610bab60048036036040811015610b8b57600080fd5b810190808035906020019092919080359060200190929190505050611cab565b6040518082815260200191505060405180910390f35b348015610bcd57600080fd5b50610c3060048036036040811015610be457600080fd5b81019080803573ffffffffffffffffffffffffffffffffffffffff169060200190929190803573ffffffffffffffffffffffffffffffffffffffff169060200190929190505050611f55565b604051808215151515815260200191505060405180910390f35b348015610c5657600080fd5b50610c9960048036036020811015610c6d57600080fd5b81019080803573ffffffffffffffffffffffffffffffffffffffff169060200190929190505050611fe9565b005b60006380ac58cd60e01b7bffffffffffffffffffffffffffffffffffffffffffffffffffffffff1916827bffffffffffffffffffffffffffffffffffffffffffffffffffffffff19161480610d3457506301ffc9a760e01b7bffffffffffffffffffffffffffffffffffffffffffffffffffffffff1916827bffffffffffffffffffffffffffffffffffffffffffffffffffffffff1916145b9050919050565b6040518060400160405280600c81526020017f43727970746f546967657273000000000000000000000000000000000000000081525081565b6000610d7f8261206f565b610dd4576040517f08c379a0000000000000000000000000000000000000000000000000000000008152600401808060200182810382526024815260200180612ed66024913960400191505060405180910390fd5b6003600083815260200190815260200160002060009054906101000a900473ffffffffffffffffffffffffffffffffffffffff169050919050565b6000610e1a8261129c565b90508073ffffffffffffffffffffffffffffffffffffffff168373ffffffffffffffffffffffffffffffffffffffff161415610ebe576040517f08c379a00000000000000000000000000000000000000000000000000000000081526004018080602001828103825260198152602001807f617070726f76616c20746f2063757272656e74206f776e65720000000000000081525060200191505060405180910390fd5b610ec833836120e1565b610f1d576040517f08c379a0000000000000000000000000000000000000000000000000000000008152600401808060200182810382526030815260200180612e806030913960400191505060405180910390fd5b826003600084815260200190815260200160002060006101000a81548173ffffffffffffffffffffffffffffffffffffffff021916908373ffffffffffffffffffffffffffffffffffffffff160217905550818373ffffffffffffffffffffffffffffffffffffffff168273ffffffffffffffffffffffffffffffffffffffff167f8c5be1e5ebec7d5bd14f71427d1e84f3dd0314c0f7b2291e5b200ac8c7c3b92560405160405180910390a4505050565b6000600180549050905090565b610fe58161206f565b611057576040517f08c379a00000000000000000000000000000000000000000000000000000000081526004018080602001828103825260118152602001807f6e6f6e6578697374656e7420746f6b656e00000000000000000000000000000081525060200191505060405180910390fd5b6110613382612122565b6110d3576040517f08c379a000000000000000000000000000000000000000000000000000000000815260040180806020018281038252600e8152602001807f6e6f7420617574686f72697a656400000000000000000000000000000000000081525060200191505060405180910390fd5b6110de8383836121b7565b505050565b60006110ee83611364565b8210611162576040517f08c379a00000000000000000000000000000000000000000000000000000000081526004018080602001828103825260138152602001807f696e646578206f7574206f6620626f756e64730000000000000000000000000081525060200191505060405180910390fd5b61116b83611741565b828151811061117657fe5b6020026020010151905092915050565b6111a183838360405180602001604052806000815250611ba2565b505050565b6060806005600084815260200190815260200160002080548060200260200160405190810160405280929190818152602001828054801561120657602002820191906000526020600020905b8154815260200190600101908083116111f2575b5050505050905080915050919050565b6000611220610fcf565b8210611294576040517f08c379a00000000000000000000000000000000000000000000000000000000081526004018080602001828103825260138152602001807f696e646578206f7574206f6620626f756e64730000000000000000000000000081525060200191505060405180910390fd5b819050919050565b6000806002600084815260200190815260200160002060009054906101000a900473ffffffffffffffffffffffffffffffffffffffff169050600073ffffffffffffffffffffffffffffffffffffffff168173ffffffffffffffffffffffffffffffffffffffff16141561135b576040517f08c379a0000000000000000000000000000000000000000000000000000000008152600401808060200182810382526021815260200180612f3d6021913960400191505060405180910390fd5b80915050919050565b60008073ffffffffffffffffffffffffffffffffffffffff168273ffffffffffffffffffffffffffffffffffffffff1614156113eb576040517f08c379a0000000000000000000000000000000000000000000000000000000008152600401808060200182810382526022815260200180612f1b6022913960400191505060405180910390fd5b600460008373ffffffffffffffffffffffffffffffffffffffff1673ffffffffffffffffffffffffffffffffffffffff168152602001908152602001600020549050919050565b61143a611954565b6114ac576040517f08c379a00000000000000000000000000000000000000000000000000000000081526004018080602001828103825260208152602001807f4f776e61626c653a2063616c6c6572206973206e6f7420746865206f776e657281525060200191505060405180910390fd5b600073ffffffffffffffffffffffffffffffffffffffff166000809054906101000a900473ffffffffffffffffffffffffffffffffffffffff1673ffffffffffffffffffffffffffffffffffffffff167f8be0079c531659141344cd1fd0a4f28419497f9722a3daafe3b4186f6b6457e060405160405180910390a360008060006101000a81548173ffffffffffffffffffffffffffffffffffffffff021916908373ffffffffffffffffffffffffffffffffffffffff160217905550565b6000806000806000806001878154811061158157fe5b906000526020600020906002020190508060010160009054906101000a900467ffffffffffffffff1667ffffffffffffffff16945080600101600c9054906101000a900463ffffffff1663ffffffff1693508060010160089054906101000a900463ffffffff1663ffffffff1692508060010160109054906101000a900461ffff1661ffff169150806000015495505091939590929450565b6000611624611954565b611696576040517f08c379a00000000000000000000000000000000000000000000000000000000081526004018080602001828103825260208152602001807f4f776e61626c653a2063616c6c6572206973206e6f7420746865206f776e657281525060200191505060405180910390fd5b6103e86007541061170f576040517f08c379a00000000000000000000000000000000000000000000000000000000081526004018080602001828103825260128152602001807f4c696d69742067656e302072656163686564000000000000000000000000000081525060200191505060405180910390fd5b61172560016007546124dc90919063ffffffff16565b60078190555061173a60008060008533612564565b9050919050565b6060600073ffffffffffffffffffffffffffffffffffffffff168273ffffffffffffffffffffffffffffffffffffffff1614156117e6576040517f08c379a00000000000000000000000000000000000000000000000000000000081526004018080602001828103825260208152602001807f546f6b656e20717565727920666f7220746865207a65726f206164647265737381525060200191505060405180910390fd5b60006117f183611364565b9050600081141561183557600060405190808252806020026020018201604052801561182c5781602001602082028038833980820191505090505b50915050611926565b6060816040519080825280602002602001820160405280156118665781602001602082028038833980820191505090505b5090506000611873610fcf565b9050600080905060008090505b82811161191d578673ffffffffffffffffffffffffffffffffffffffff166002600083815260200190815260200160002060009054906101000a900473ffffffffffffffffffffffffffffffffffffffff1673ffffffffffffffffffffffffffffffffffffffff16141561191057808483815181106118fb57fe5b60200260200101818152505081806001019250505b8080600101915050611880565b83955050505050505b919050565b60008060009054906101000a900473ffffffffffffffffffffffffffffffffffffffff16905090565b60008060009054906101000a900473ffffffffffffffffffffffffffffffffffffffff1673ffffffffffffffffffffffffffffffffffffffff163373ffffffffffffffffffffffffffffffffffffffff1614905090565b6040518060400160405280600581526020017f544947455200000000000000000000000000000000000000000000000000000081525081565b3373ffffffffffffffffffffffffffffffffffffffff168273ffffffffffffffffffffffffffffffffffffffff161415611a86576040517f08c379a00000000000000000000000000000000000000000000000000000000081526004018080602001828103825260128152602001807f617070726f76616c20746f2063616c6c6572000000000000000000000000000081525060200191505060405180910390fd5b80600660003373ffffffffffffffffffffffffffffffffffffffff1673ffffffffffffffffffffffffffffffffffffffff16815260200190815260200160002060008473ffffffffffffffffffffffffffffffffffffffff1673ffffffffffffffffffffffffffffffffffffffff16815260200190815260200160002060006101000a81548160ff0219169083151502179055508173ffffffffffffffffffffffffffffffffffffffff163373ffffffffffffffffffffffffffffffffffffffff167f17307eab39ab6107e8899845ad3d59bd9653f200f220920489ca2b5937696c3183604051808215151515815260200191505060405180910390a35050565b611b92338383611186565b5050565b60075481565b6103e881565b611bab8261206f565b611c1d576040517f08c379a00000000000000000000000000000000000000000000000000000000081526004018080602001828103825260118152602001807f6e6f6e6578697374656e7420746f6b656e00000000000000000000000000000081525060200191505060405180910390fd5b611c273383612122565b611c99576040517f08c379a000000000000000000000000000000000000000000000000000000000815260040180806020018281038252600e8152602001807f6e6f7420617574686f72697a656400000000000000000000000000000000000081525060200191505060405180910390fd5b611ca58484848461273e565b50505050565b6000611cb733846120e1565b611d29576040517f08c379a000000000000000000000000000000000000000000000000000000000815260040180806020018281038252600d8152602001807f4e6f74206f776e2074696765720000000000000000000000000000000000000081525060200191505060405180910390fd5b611d3333836120e1565b611da5576040517f08c379a000000000000000000000000000000000000000000000000000000000815260040180806020018281038252600d8152602001807f4e6f74206f776e2074696765720000000000000000000000000000000000000081525060200191505060405180910390fd5b81831415611e1b576040517f08c379a00000000000000000000000000000000000000000000000000000000081526004018080602001828103825260118152602001807f4c65742773206e6f7420646f207468697300000000000000000000000000000081525060200191505060405180910390fd5b600060018481548110611e2a57fe5b90600052602060002090600202019050600060018481548110611e4957fe5b906000526020600020906002020190506000611e6d836000015483600001546127cd565b90506000611eba6001611eac8660010160109054906101000a900461ffff1661ffff168660010160109054906101000a900461ffff1661ffff1661292d565b6124dc90919063ffffffff16565b90506000611ecb8888848633612564565b90506005600088815260200190815260200160002081908060018154018082558091505090600182039060005260206000200160009091929091909150555060056000898152602001908152602001600020819080600181540180825580915050906001820390600052602060002001600090919290919091505550809550505050505092915050565b6000600660008473ffffffffffffffffffffffffffffffffffffffff1673ffffffffffffffffffffffffffffffffffffffff16815260200190815260200160002060008373ffffffffffffffffffffffffffffffffffffffff1673ffffffffffffffffffffffffffffffffffffffff16815260200190815260200160002060009054906101000a900460ff16905092915050565b611ff1611954565b612063576040517f08c379a00000000000000000000000000000000000000000000000000000000081526004018080602001828103825260208152602001807f4f776e61626c653a2063616c6c6572206973206e6f7420746865206f776e657281525060200191505060405180910390fd5b61206c81612947565b50565b6000806002600084815260200190815260200160002060009054906101000a900473ffffffffffffffffffffffffffffffffffffffff169050600073ffffffffffffffffffffffffffffffffffffffff168173ffffffffffffffffffffffffffffffffffffffff161415915050919050565b60008273ffffffffffffffffffffffffffffffffffffffff166121038361129c565b73ffffffffffffffffffffffffffffffffffffffff1614905092915050565b60008061212e8361129c565b90508073ffffffffffffffffffffffffffffffffffffffff168473ffffffffffffffffffffffffffffffffffffffff16148061219d57508373ffffffffffffffffffffffffffffffffffffffff1661218584610d74565b73ffffffffffffffffffffffffffffffffffffffff16145b806121ae57506121ad8185611f55565b5b91505092915050565b600073ffffffffffffffffffffffffffffffffffffffff168273ffffffffffffffffffffffffffffffffffffffff16141561225a576040517f08c379a000000000000000000000000000000000000000000000000000000000815260040180806020018281038252601c8152602001807f7472616e7366657220746f20746865207a65726f20616464726573730000000081525060200191505060405180910390fd5b3073ffffffffffffffffffffffffffffffffffffffff168273ffffffffffffffffffffffffffffffffffffffff16141561229357600080fd5b6122e66001600460008573ffffffffffffffffffffffffffffffffffffffff1673ffffffffffffffffffffffffffffffffffffffff168152602001908152602001600020546124dc90919063ffffffff16565b600460008473ffffffffffffffffffffffffffffffffffffffff1673ffffffffffffffffffffffffffffffffffffffff16815260200190815260200160002081905550816002600083815260200190815260200160002060006101000a81548173ffffffffffffffffffffffffffffffffffffffff021916908373ffffffffffffffffffffffffffffffffffffffff160217905550600073ffffffffffffffffffffffffffffffffffffffff168373ffffffffffffffffffffffffffffffffffffffff161461247c576124026001600460008673ffffffffffffffffffffffffffffffffffffffff1673ffffffffffffffffffffffffffffffffffffffff16815260200190815260200160002054612a8b90919063ffffffff16565b600460008573ffffffffffffffffffffffffffffffffffffffff1673ffffffffffffffffffffffffffffffffffffffff168152602001908152602001600020819055506003600082815260200190815260200160002060006101000a81549073ffffffffffffffffffffffffffffffffffffffff02191690555b808273ffffffffffffffffffffffffffffffffffffffff168473ffffffffffffffffffffffffffffffffffffffff167fddf252ad1be2c89b69c2b068fc378daa952ba7f163c4a11628f55a4df523b3ef60405160405180910390a4505050565b60008082840190508381101561255a576040517f08c379a000000000000000000000000000000000000000000000000000000000815260040180806020018281038252601b8152602001807f536166654d6174683a206164646974696f6e206f766572666c6f77000000000081525060200191505060405180910390fd5b8091505092915050565b600061256e612e13565b6040518060a001604052808581526020014267ffffffffffffffff1681526020018863ffffffff1681526020018763ffffffff1681526020018661ffff168152509050600061269f60018084908060018154018082558091505090600182039060005260206000209060020201600090919290919091506000820151816000015560208201518160010160006101000a81548167ffffffffffffffff021916908367ffffffffffffffff16021790555060408201518160010160086101000a81548163ffffffff021916908363ffffffff160217905550606082015181600101600c6101000a81548163ffffffff021916908363ffffffff16021790555060808201518160010160106101000a81548161ffff021916908361ffff1602179055505050612a8b90919063ffffffff16565b90507f0a5311bd2a6608f08a180df2ee7c5946819a649b204b554bb8e39825b2c50ad584828a8a89604051808673ffffffffffffffffffffffffffffffffffffffff1673ffffffffffffffffffffffffffffffffffffffff1681526020018581526020018481526020018381526020018281526020019550505050505060405180910390a1612730600085836121b7565b809250505095945050505050565b6127498484846121b7565b61275584848484612ad5565b6127c7576040517f08c379a000000000000000000000000000000000000000000000000000000000815260040180806020018281038252601e8152602001807f7472616e7366657220746f206e6f6e204552433732315265636569766572000081525060200191505060405180910390fd5b50505050565b60006127d7612e5c565b60006127e1612ca8565b90506000600790506000600190505b60808111612882576000818460ff161614612830576064878161280f57fe5b0660ff16848360ff166008811061282257fe5b602002018181525050612857565b6064868161283a57fe5b0660ff16848360ff166008811061284d57fe5b6020020181815250505b6064878161286157fe5b0496506064868161286e57fe5b0495506001820391506002810290506127f0565b50600060078360ff168161289257fe5b06905060638360ff16816128a257fe5b0660ff16848260ff16600881106128b557fe5b602002018181525050600080600090505b600881101561291e576128f28682600881106128de57fe5b6020020151836124dc90919063ffffffff16565b91506007811461291357612910606483612cba90919063ffffffff16565b91505b6001810190506128c6565b50809550505050505092915050565b60008183101561293d578161293f565b825b905092915050565b600073ffffffffffffffffffffffffffffffffffffffff168173ffffffffffffffffffffffffffffffffffffffff1614156129cd576040517f08c379a0000000000000000000000000000000000000000000000000000000008152600401808060200182810382526026815260200180612eb06026913960400191505060405180910390fd5b8073ffffffffffffffffffffffffffffffffffffffff166000809054906101000a900473ffffffffffffffffffffffffffffffffffffffff1673ffffffffffffffffffffffffffffffffffffffff167f8be0079c531659141344cd1fd0a4f28419497f9722a3daafe3b4186f6b6457e060405160405180910390a3806000806101000a81548173ffffffffffffffffffffffffffffffffffffffff021916908373ffffffffffffffffffffffffffffffffffffffff16021790555050565b6000612acd83836040518060400160405280601e81526020017f536166654d6174683a207375627472616374696f6e206f766572666c6f770000815250612d40565b905092915050565b6000612ae084612e00565b612aed5760019050612ca0565b60008473ffffffffffffffffffffffffffffffffffffffff1663150b7a02338887876040518563ffffffff1660e01b8152600401808573ffffffffffffffffffffffffffffffffffffffff1673ffffffffffffffffffffffffffffffffffffffff1681526020018473ffffffffffffffffffffffffffffffffffffffff1673ffffffffffffffffffffffffffffffffffffffff16815260200183815260200180602001828103825283818151815260200191508051906020019080838360005b83811015612bc8578082015181840152602081019050612bad565b50505050905090810190601f168015612bf55780820380516001836020036101000a031916815260200191505b5095505050505050602060405180830381600087803b158015612c1757600080fd5b505af1158015612c2b573d6000803e3d6000fd5b505050506040513d6020811015612c4157600080fd5b8101908080519060200190929190505050905063150b7a0260e01b7bffffffffffffffffffffffffffffffffffffffffffffffffffffffff1916817bffffffffffffffffffffffffffffffffffffffffffffffffffffffff1916149150505b949350505050565b600060ff4281612cb457fe5b06905090565b600080831415612ccd5760009050612d3a565b6000828402905082848281612cde57fe5b0414612d35576040517f08c379a0000000000000000000000000000000000000000000000000000000008152600401808060200182810382526021815260200180612efa6021913960400191505060405180910390fd5b809150505b92915050565b6000838311158290612ded576040517f08c379a00000000000000000000000000000000000000000000000000000000081526004018080602001828103825283818151815260200191508051906020019080838360005b83811015612db2578082015181840152602081019050612d97565b50505050905090810190601f168015612ddf5780820380516001836020036101000a031916815260200191505b509250505060405180910390fd5b5060008385039050809150509392505050565b600080823b905060008111915050919050565b6040518060a0016040528060008152602001600067ffffffffffffffff168152602001600063ffffffff168152602001600063ffffffff168152602001600061ffff1681525090565b60405180610100016040528060089060208202803883398082019150509050509056fe617070726f76652063616c6c6572206973206e6f74206f776e6572206e6f7220617070726f76656420666f7220616c6c4f776e61626c653a206e6577206f776e657220697320746865207a65726f2061646472657373617070726f76656420717565727920666f72206e6f6e6578697374656e74207469676572536166654d6174683a206d756c7469706c69636174696f6e206f766572666c6f7742616c616e636520717565727920666f7220746865207a65726f20616464726573734f776e657220717565727920666f72206e6f6e6578697374656e74207469676572a265627a7a7231582004fa6567b7cfaa91ae072a96e7de6277d1475d163ae17cb5efd8b8f51b57092164736f6c63430005100032",
  "source": "pragma solidity 0.5.16;\n\nimport \"./TigerMinting.sol\";\n\n/**\n * @title The TigerCore contract.\n * @author Andrew Ayson\n * @dev This contract is split in the following way:\n *      - TigerBase: This is where we define the most fundamental code shared throughout the core\n *             functionality. This includes our main data storage, constants and data types, plus\n *             internal functions for managing these items.\n *      - TigerOwnership: This provides the methods required for basic non-fungible token\n *      - TigerBreeding: This file contains the methods necessary to breed tigers together\n *      - TigerMinting: This final facet contains the functionality we use for creating new gen0 tigers.\n */\ncontract TigerCore is TigerMinting {\n    /**\n     * @notice Returns all the relevant information about a specific tiger\n     * @param _tigerId the id of the tiger to get information from\n     */\n    function getTiger(uint256 _tigerId)\n        public\n        view\n        returns (\n            uint256 genes,\n            uint256 birthTime,\n            uint256 dadId,\n            uint256 momId,\n            uint256 generation\n        )\n    {\n        Tiger storage tiger = _tigers[_tigerId];\n\n        birthTime = uint256(tiger.birthTime);\n        dadId = uint256(tiger.dadId);\n        momId = uint256(tiger.momId);\n        generation = uint256(tiger.generation);\n        genes = tiger.genes;\n    }\n}\n",
  "sourcePath": "/Users/bananaQ/Documents/own_projects/business/crypto_tigers/backend/contracts/TigerCore.sol",
  "compiler": {
    "name": "solc",
    "version": "0.5.16+commit.9c3226ce.Emscripten.clang"
  },
  "schemaVersion": "3.4.3",
  "updatedAt": "2021-12-25T19:14:45.131Z",
  "networkType": "ethereum",
  "devdoc": {
    "author": "Andrew Ayson",
    "details": "This contract is split in the following way:     - TigerBase: This is where we define the most fundamental code shared throughout the core            functionality. This includes our main data storage, constants and data types, plus            internal functions for managing these items.     - TigerOwnership: This provides the methods required for basic non-fungible token     - TigerBreeding: This file contains the methods necessary to breed tigers together     - TigerMinting: This final facet contains the functionality we use for creating new gen0 tigers.",
    "methods": {
      "approve(address,uint256)": {
        "details": "[ERC721] The zero address indicates there is no approved address Requires - msg.sender is owner or approved opperator - cannot approve owner",
        "params": {
          "_tigerId": "The tiger id that is approved for",
          "_to": "The address."
        }
      },
      "balanceOf(address)": {
        "details": "[ERC721] Tigers assigned to the zero address are considered invalid, and this function throws for queries about the zero address",
        "params": {
          "_owner": "The address to check"
        },
        "return": "The address of the owner of the tiger"
      },
      "breed(uint256,uint256)": {
        "params": {
          "_dadId": "the id of the dad",
          "_momId": "the id of the mom"
        }
      },
      "createGen0Tiger(uint256)": {
        "details": "Can only be called by owner and when limit has not be reached",
        "return": "The id of the created tiger"
      },
      "getApproved(uint256)": {
        "details": "[ERC721] Get the approval address of the tiger Requires - _tigerId must exist",
        "params": {
          "_tigerId": "The tiger id"
        },
        "return": "The approved address for this tiger, or the zero address if there is none"
      },
      "getChildren(uint256)": {
        "params": {
          "_tigerId": "the id of the mom"
        },
        "return": "array of ids of the children"
      },
      "getTiger(uint256)": {
        "params": {
          "_tigerId": "the id of the tiger to get information from"
        }
      },
      "isApprovedForAll(address,address)": {
        "details": "[ERC721]",
        "params": {
          "_operator": "The operator",
          "_owner": "The owner"
        },
        "return": "True if `_operator` is an approved operator for `_owner`, false otherwise"
      },
      "isOwner()": {
        "details": "Returns true if the caller is the current owner."
      },
      "owner()": {
        "details": "Returns the address of the current owner."
      },
      "ownerOf(uint256)": {
        "details": "[ERC721] Tigers assigned to the zero address are considered invalid, and this function throws for queries about the zero address",
        "return": "the address of the onwer of _tigerId"
      },
      "renounceOwnership()": {
        "details": "Leaves the contract without owner. It will not be possible to call `onlyOwner` functions anymore. Can only be called by the current owner.     * NOTE: Renouncing ownership will leave the contract without an owner, thereby removing any functionality that is only available to the owner."
      },
      "safeTransferFrom(address,address,uint256)": {
        "details": "[ERC721] Transfer implementation with a check on caller if it can accept ERC721 Requires - valid token - valid, non-zero _to address (via _transfer) - not to this address to prevent potential misuse (via _transfer) - msg.sender to be the owner, approved, or operator - when the caller is a smart contract, it should accept ERC721 tokens",
        "params": {
          "_from": "current owner of the tiger",
          "_tigerId": "uint256 id of the tiger to be transferred",
          "_to": "address to receive the ownership of the given tiger id"
        }
      },
      "safeTransferFrom(address,address,uint256,bytes)": {
        "details": "[ERC721] This works identically to the other function with an extra data parameter except this function just sets data to \"\"",
        "params": {
          "_data": "bytes data to send along with a safe transfer check",
          "_from": "current owner of the tiger",
          "_tigerId": "The id of the tiger to be transferred",
          "_to": "address to receive the ownership of the given tiger id"
        }
      },
      "setApprovalForAll(address,bool)": {
        "details": "[ERC721] Emits the ApprovalForAll event. Requires - cannot approve self",
        "params": {
          "_approved": "The approval status",
          "_operator": "The tiger id"
        }
      },
      "supportsInterface(bytes4)": {
        "details": "Interface identification is specified in ERC-165. This function uses less than 30,000 gas.",
        "params": {
          "_interfaceId": "The interface identifier, as specified in ERC-165"
        },
        "return": "true if the contract implements _interfaceId and _interfaceId is not 0xffffffff, false otherwise"
      },
      "tokenByIndex(uint256)": {
        "details": "[ERC721Enumerable] Requires: - _index < totalSupply()",
        "params": {
          "_index": "A counter less than `totalSupply()`"
        },
        "return": "_index which is the same as the identifier"
      },
      "tokenOfOwnerByIndex(address,uint256)": {
        "details": "Gets the token ID at a given index of the tokens list of the requested owner.Be aware when calling this contract as its quite expensive because it loops through all tigers. Could potentially be optimized if we save all tigers also in an mapping of owners.",
        "params": {
          "_index": "uint256 representing the index to be accessed of the requested tokens list",
          "_owner": "address owning the tokens list to be accessed"
        },
        "return": "uint256 token ID at the given index of the tokens list owned by the requested address"
      },
      "tokensOfOwner(address)": {
        "details": "[ERC721Enumerable] Requires - _index < balanceOf(_owner) - _owner is  non-zero addressBe aware when calling this contract as its quite expensive because it loops through all tigers",
        "params": {
          "_owner": "An address where we are interested in tigers owned by them"
        },
        "return": "The token identifier for the `_index`th tiger assigned to `_owner`,  (sort order not specified)"
      },
      "totalSupply()": {
        "details": "[ERC721Enumerable]",
        "return": "A count of valid tigers tracked by this contract, where each one of them has an assigned and queryable owner not equal to the zero address"
      },
      "transfer(address,uint256)": {
        "params": {
          "_tigerId": "id of the tiger to be transferred",
          "_to": "address to receive the ownership of the given tiger id"
        }
      },
      "transferFrom(address,address,uint256)": {
        "details": "[ERC721] Transfers the ownership of a given token id to another address Requires - valid token - valid, non-zero _to address (via _transfer) - not to this address to prevent potential misuse (via _transfer) - msg.sender to be the owner, approved, or operator",
        "params": {
          "_from": "current owner of the tiger",
          "_tigerId": "id of the tiger to be transferred",
          "_to": "address to receive the ownership of the given tiger id"
        }
      },
      "transferOwnership(address)": {
        "details": "Transfers ownership of the contract to a new account (`newOwner`). Can only be called by the current owner."
      }
    },
    "title": "The TigerCore contract."
  },
  "userdoc": {
    "methods": {
      "approve(address,uint256)": {
        "notice": "Change or reaffirm the approved address for an tiger"
      },
      "balanceOf(address)": {
        "notice": "Count all Tigers assigned to an owner"
      },
      "breed(uint256,uint256)": {
        "notice": "Breed a new tiger based on a mom and dad"
      },
      "createGen0Tiger(uint256)": {
        "notice": "Creates a new gen0 tiger"
      },
      "getApproved(uint256)": {
        "notice": "Get the approved address for a single tiger"
      },
      "getChildren(uint256)": {
        "notice": "Get all the children of a tigerId"
      },
      "getTiger(uint256)": {
        "notice": "Returns all the relevant information about a specific tiger"
      },
      "isApprovedForAll(address,address)": {
        "notice": "Query if an address is an authorized operator for another address"
      },
      "ownerOf(uint256)": {
        "notice": "Find the owner of an Tiger"
      },
      "safeTransferFrom(address,address,uint256)": {
        "notice": "Transfers the ownership of an Tiger from one address to another address"
      },
      "safeTransferFrom(address,address,uint256,bytes)": {
        "notice": "Transfers the ownership of an Tiger from one address to another address"
      },
      "setApprovalForAll(address,bool)": {
        "notice": "Enable or disable approval for a third party (\"operator\") to manage all of `msg.sender`'s assets"
      },
      "supportsInterface(bytes4)": {
        "notice": "Query if a contract implements an interface"
      },
      "tokenByIndex(uint256)": {
        "notice": "Enumerate valid tigers"
      },
      "tokensOfOwner(address)": {
        "notice": "Returns a list of all Tiger IDs assigned to an address."
      },
      "totalSupply()": {
        "notice": "Count tigers tracked by this contract"
      },
      "transfer(address,uint256)": {
        "notice": "Transfers the ownership of an own Tiger to another address"
      },
      "transferFrom(address,address,uint256)": {
        "notice": "Transfer ownership of a Tiger -- THE CALLER IS RESPONSIBLE TO CONFIRM THAT `_to` IS CAPABLE OF RECEIVING TIGERS OR ELSE THEY MAY BE PERMANENTLY LOST"
      }
    }
  }
}